{
  "contractName": "Deal",
  "abi": [
    {
      "inputs": [
        {
          "internalType": "address",
          "name": "_buyer",
          "type": "address"
        },
        {
          "internalType": "address",
          "name": "_seller",
          "type": "address"
        },
        {
          "internalType": "contract IERC20",
          "name": "_erc20",
          "type": "address"
        },
        {
          "internalType": "contract IERC721",
          "name": "_erc721",
          "type": "address"
        },
        {
          "internalType": "uint256",
          "name": "_price",
          "type": "uint256"
        },
        {
          "internalType": "uint256[]",
          "name": "_assetItems",
          "type": "uint256[]"
        }
      ],
      "stateMutability": "nonpayable",
      "type": "constructor"
    },
    {
      "anonymous": false,
      "inputs": [
        {
          "indexed": false,
          "internalType": "uint256",
          "name": "qty",
          "type": "uint256"
        }
      ],
      "name": "DealAssetsWithdrawn",
      "type": "event"
    },
    {
      "anonymous": false,
      "inputs": [],
      "name": "DealCanceled",
      "type": "event"
    },
    {
      "anonymous": false,
      "inputs": [],
      "name": "DealCoinsWithdrawn",
      "type": "event"
    },
    {
      "anonymous": false,
      "inputs": [],
      "name": "DealCreated",
      "type": "event"
    },
    {
      "anonymous": false,
      "inputs": [],
      "name": "DealSettled",
      "type": "event"
    },
    {
      "anonymous": false,
      "inputs": [
        {
          "indexed": false,
          "internalType": "bytes32",
          "name": "message",
          "type": "bytes32"
        },
        {
          "indexed": false,
          "internalType": "uint256",
          "name": "num",
          "type": "uint256"
        }
      ],
      "name": "Debug",
      "type": "event"
    },
    {
      "inputs": [],
      "name": "buyer",
      "outputs": [
        {
          "internalType": "address",
          "name": "",
          "type": "address"
        }
      ],
      "stateMutability": "view",
      "type": "function"
    },
    {
      "inputs": [],
      "name": "creator",
      "outputs": [
        {
          "internalType": "address",
          "name": "",
          "type": "address"
        }
      ],
      "stateMutability": "view",
      "type": "function"
    },
    {
      "inputs": [],
      "name": "owner",
      "outputs": [
        {
          "internalType": "address",
          "name": "",
          "type": "address"
        }
      ],
      "stateMutability": "view",
      "type": "function"
    },
    {
      "inputs": [],
      "name": "seller",
      "outputs": [
        {
          "internalType": "address",
          "name": "",
          "type": "address"
        }
      ],
      "stateMutability": "view",
      "type": "function"
    },
    {
      "inputs": [],
      "name": "getDeal",
      "outputs": [
        {
          "components": [
            {
              "internalType": "address",
              "name": "buyer",
              "type": "address"
            },
            {
              "internalType": "address",
              "name": "seller",
              "type": "address"
            },
            {
              "internalType": "contract IERC20",
              "name": "erc20",
              "type": "address"
            },
            {
              "internalType": "contract IERC721",
              "name": "erc721",
              "type": "address"
            },
            {
              "internalType": "uint256",
              "name": "price",
              "type": "uint256"
            },
            {
              "internalType": "uint256[]",
              "name": "assetItems",
              "type": "uint256[]"
            },
            {
              "internalType": "enum DealStatus",
              "name": "status",
              "type": "uint8"
            }
          ],
          "internalType": "struct DealStruct",
          "name": "deal",
          "type": "tuple"
        }
      ],
      "stateMutability": "view",
      "type": "function"
    },
    {
      "inputs": [],
      "name": "missingDealAssets",
      "outputs": [
        {
          "internalType": "uint256",
          "name": "",
          "type": "uint256"
        }
      ],
      "stateMutability": "view",
      "type": "function"
    },
    {
      "inputs": [],
      "name": "canBuy",
      "outputs": [
        {
          "internalType": "bool",
          "name": "",
          "type": "bool"
        }
      ],
      "stateMutability": "view",
      "type": "function"
    },
    {
      "inputs": [
        {
          "internalType": "uint256",
          "name": "assetId",
          "type": "uint256"
        }
      ],
      "name": "assetOwner",
      "outputs": [
        {
          "internalType": "address",
          "name": "",
          "type": "address"
        }
      ],
      "stateMutability": "view",
      "type": "function"
    },
    {
      "inputs": [],
      "name": "dealAssetsDeposited",
      "outputs": [
        {
          "internalType": "uint256",
          "name": "",
          "type": "uint256"
        }
      ],
      "stateMutability": "view",
      "type": "function"
    },
    {
      "inputs": [],
      "name": "missingDealCoins",
      "outputs": [
        {
          "internalType": "uint256",
          "name": "",
          "type": "uint256"
        }
      ],
      "stateMutability": "view",
      "type": "function"
    },
    {
      "inputs": [],
      "name": "settle",
      "outputs": [],
      "stateMutability": "nonpayable",
      "type": "function"
    },
    {
      "inputs": [
        {
          "internalType": "uint256",
          "name": "count",
          "type": "uint256"
        }
      ],
      "name": "withdrawDealAssets",
      "outputs": [],
      "stateMutability": "nonpayable",
      "type": "function"
    },
    {
      "inputs": [],
      "name": "withdrawDealCoins",
      "outputs": [],
      "stateMutability": "nonpayable",
      "type": "function"
    },
    {
      "inputs": [],
      "name": "getOwner",
      "outputs": [
        {
          "internalType": "address",
          "name": "",
          "type": "address"
        }
      ],
      "stateMutability": "view",
      "type": "function"
    },
    {
      "inputs": [],
      "name": "getBuyer",
      "outputs": [
        {
          "internalType": "address",
          "name": "",
          "type": "address"
        }
      ],
      "stateMutability": "view",
      "type": "function"
    },
    {
      "inputs": [],
      "name": "getSeller",
      "outputs": [
        {
          "internalType": "address",
          "name": "",
          "type": "address"
        }
      ],
      "stateMutability": "view",
      "type": "function"
    },
    {
      "inputs": [
        {
          "internalType": "address",
          "name": "newOwner",
          "type": "address"
        }
      ],
      "name": "changeOwner",
      "outputs": [],
      "stateMutability": "nonpayable",
      "type": "function"
    }
  ],
  "bytecode": "0x60806040523480156200001157600080fd5b50604051620012c4380380620012c483398101604081905262000034916200012d565b60018054336001600160a01b031991821681179092556000805482169092179091556002805482166001600160a01b03898116919091179091556003805483168883161790556004805483168783161790556005805490921690851617905560068290558051620000ad906007906020840190620000c6565b50506008805461ffff1916905550620002839350505050565b82805482825590600052602060002090810192821562000104579160200282015b8281111562000104578251825591602001919060010190620000e7565b506200011292915062000116565b5090565b5b8082111562000112576000815560010162000117565b60008060008060008060c0878903121562000146578182fd5b865162000153816200026a565b8096505060208088015162000168816200026a565b60408901519096506200017b816200026a565b60608901519095506200018e816200026a565b608089015160a08a015191955093506001600160401b0380821115620001b2578384fd5b818a0191508a601f830112620001c6578384fd5b815181811115620001db57620001db62000254565b83810260405185828201018181108582111715620001fd57620001fd62000254565b604052828152858101935084860182860187018f10156200021c578788fd5b8795505b838610156200024057805185526001959095019493860193860162000220565b508096505050505050509295509295509295565b634e487b7160e01b600052604160045260246000fd5b6001600160a01b03811681146200028057600080fd5b50565b61103180620002936000396000f3fe608060405234801561001057600080fd5b506004361061010b5760003560e01c80637150d8ae116100a25780638e0b1745116100715780638e0b1745146101b85780639019bae1146101c0578063a6f9dae1146101c8578063dbd0e1b6146101db578063ff65226c146101e35761010b565b80637150d8ae14610198578063893d20e8146101a05780638b43bf8b146101a85780638da5cb5b146101b05761010b565b80632a0ee644116100de5780632a0ee6441461015357806349ad698414610166578063603daf9a1461017b5780636680b513146101835761010b565b806302d05d3f1461011057806308551a531461012e57806311da60b4146101365780631c17def114610140575b600080fd5b6101186101f8565b6040516101259190610d0c565b60405180910390f35b610118610207565b61013e610216565b005b61013e61014e366004610cba565b61030c565b610118610161366004610cba565b61055d565b61016e6105e4565b6040516101259190610f92565b6101186106e6565b61018b6106f5565b6040516101259190610ee8565b6101186107c6565b6101186107d5565b61016e6107e4565b610118610889565b61013e610898565b61016e610a0f565b61013e6101d6366004610c5b565b610b01565b610118610b4d565b6101eb610b5c565b6040516101259190610d5d565b6000546001600160a01b031681565b6003546001600160a01b031681565b600060085460ff16600281111561023d57634e487b7160e01b600052602160045260246000fd5b146102635760405162461bcd60e51b815260040161025a90610d68565b60405180910390fd5b6001546001600160a01b0316331461028d5760405162461bcd60e51b815260040161025a90610e97565b6102956105e4565b156102b25760405162461bcd60e51b815260040161025a90610ebb565b6102ba6107e4565b156102d75760405162461bcd60e51b815260040161025a90610e6a565b6102e16002610bed565b6040517f8fcd434ae56c624f34ecd897fd7e8160104acbeb898add80c033fb445c47be1790600090a1565b6000600260085460ff16600281111561033557634e487b7160e01b600052602160045260246000fd5b141561036a576002546001600160a01b031633146103655760405162461bcd60e51b815260040161025a90610e0f565b610394565b6003546001600160a01b031633146103945760405162461bcd60e51b815260040161025a90610dea565b60005b60075481101561052157828210801561046457506005546007805430926001600160a01b031691636352211e91859081106103e257634e487b7160e01b600052603260045260246000fd5b90600052602060002001546040518263ffffffff1660e01b81526004016104099190610f92565b60206040518083038186803b15801561042157600080fd5b505afa158015610435573d6000803e3d6000fd5b505050506040513d601f19601f820116820180604052508101906104599190610c7e565b6001600160a01b0316145b1561050f57600554600780546001600160a01b03909216916323b872dd913091339190869081106104a557634e487b7160e01b600052603260045260246000fd5b90600052602060002001546040518463ffffffff1660e01b81526004016104ce93929190610d20565b600060405180830381600087803b1580156104e857600080fd5b505af11580156104fc573d6000803e3d6000fd5b50505050818061050b90610fb2565b9250505b8061051981610fb2565b915050610397565b507f4a362c78b6086fb52f496eec53dd826013b183d45d8ac334d4b380918b1a4c90826040516105519190610f92565b60405180910390a15050565b6005546040516331a9108f60e11b81526000916001600160a01b031690636352211e9061058e908590600401610f92565b60206040518083038186803b1580156105a657600080fd5b505afa1580156105ba573d6000803e3d6000fd5b505050506040513d601f19601f820116820180604052508101906105de9190610c7e565b92915050565b600080805b6007548110156106d0576005546007805430926001600160a01b031691636352211e918590811061062a57634e487b7160e01b600052603260045260246000fd5b90600052602060002001546040518263ffffffff1660e01b81526004016106519190610f92565b60206040518083038186803b15801561066957600080fd5b505afa15801561067d573d6000803e3d6000fd5b505050506040513d601f19601f820116820180604052508101906106a19190610c7e565b6001600160a01b031614156106be57816106ba81610fb2565b9250505b806106c881610fb2565b9150506105e9565b506007546106df908290610f9b565b9150505b90565b6002546001600160a01b031690565b6106fd610c22565b6040805160e0810182526002546001600160a01b03908116825260035481166020808401919091526004548216838501526005549091166060830152600654608083015260078054845181840281018401909552808552929360a0850193909283018282801561078c57602002820191906000526020600020905b815481526020019060010190808311610778575b505050918352505060085460209091019060ff1660028111156107bf57634e487b7160e01b600052602160045260246000fd5b9052905090565b6002546001600160a01b031681565b6001546001600160a01b031690565b600480546040516370a0823160e01b815260009283926001600160a01b0316916370a082319161081691309101610d0c565b60206040518083038186803b15801561082e57600080fd5b505afa158015610842573d6000803e3d6000fd5b505050506040513d601f19601f820116820180604052508101906108669190610cd2565b9050600654811061087b5760009150506106e3565b806006546106df9190610f9b565b6001546001600160a01b031681565b6002546001600160a01b03163314806108bb57506003546001600160a01b031633145b6108d75760405162461bcd60e51b815260040161025a90610dc6565b600260085460ff1660028111156108fe57634e487b7160e01b600052602160045260246000fd5b1415610933576003546001600160a01b0316331461092e5760405162461bcd60e51b815260040161025a90610e33565b61095d565b6002546001600160a01b0316331461095d5760405162461bcd60e51b815260040161025a90610d8f565b6004805460065460405163a9059cbb60e01b81526001600160a01b039092169263a9059cbb92610991923392909101610d44565b602060405180830381600087803b1580156109ab57600080fd5b505af11580156109bf573d6000803e3d6000fd5b505050506040513d601f19601f820116820180604052508101906109e39190610c9a565b506040517f4451ad69d9ceccace8a9bce15573087dce61e5bd1905b302527ace7f9acd435790600090a1565b600080805b600754811015610afb576005546007805430926001600160a01b031691636352211e9185908110610a5557634e487b7160e01b600052603260045260246000fd5b90600052602060002001546040518263ffffffff1660e01b8152600401610a7c9190610f92565b60206040518083038186803b158015610a9457600080fd5b505afa158015610aa8573d6000803e3d6000fd5b505050506040513d601f19601f82011682018060405250810190610acc9190610c7e565b6001600160a01b03161415610ae95781610ae581610fb2565b9250505b80610af381610fb2565b915050610a14565b50905090565b6001546001600160a01b03163314610b2b5760405162461bcd60e51b815260040161025a90610e97565b600180546001600160a01b0319166001600160a01b0392909216919091179055565b6003546001600160a01b031690565b600654600480546002546040516370a0823160e01b8152600094936001600160a01b03938416936370a0823193610b969391169101610d0c565b60206040518083038186803b158015610bae57600080fd5b505afa158015610bc2573d6000803e3d6000fd5b505050506040513d601f19601f82011682018060405250810190610be69190610cd2565b1015905090565b6008805482919060ff19166001836002811115610c1a57634e487b7160e01b600052602160045260246000fd5b021790555050565b6040805160e08101825260008082526020820181905291810182905260608082018390526080820183905260a08201529060c082015290565b600060208284031215610c6c578081fd5b8135610c7781610fe3565b9392505050565b600060208284031215610c8f578081fd5b8151610c7781610fe3565b600060208284031215610cab578081fd5b81518015158114610c77578182fd5b600060208284031215610ccb578081fd5b5035919050565b600060208284031215610ce3578081fd5b5051919050565b60038110610d0857634e487b7160e01b600052602160045260246000fd5b9052565b6001600160a01b0391909116815260200190565b6001600160a01b039384168152919092166020820152604081019190915260600190565b6001600160a01b03929092168252602082015260400190565b901515815260200190565b6020808252600d908201526c2222a0a62fa727aa2fa7a822a760991b604082015260600190565b6020808252601c908201527f4f4e4c595f42555945525f4245464f52455f534554544c454d454e5400000000604082015260600190565b6020808252600a90820152692727aa2fa6a2a6a122a960b11b604082015260600190565b6020808252600b908201526a53454c4c45525f4f4e4c5960a81b604082015260600190565b6020808252600a908201526942555945525f4f4e4c5960b01b604082015260600190565b6020808252601c908201527f4f4e4c595f53454c4c45525f41465445525f534554544c454d454e5400000000604082015260600190565b6020808252601390820152724445414c5f544f4b454e535f4d495353494e4760681b604082015260600190565b6020808252600a908201526927a7262cafa7aba722a960b11b604082015260600190565b6020808252601390820152724445414c5f4153534554535f4d495353494e4760681b604082015260600190565b60006020808352610100830160018060a01b038086511683860152808387015116604086015280604087015116606086015280606087015116608086015250608085015160a085015260a085015160e060c08601528181518084526101208701915084830193508592505b80831015610f735783518252928401926001929092019190840190610f53565b5060c08701519350610f8860e0870185610cea565b9695505050505050565b90815260200190565b600082821015610fad57610fad610fcd565b500390565b6000600019821415610fc657610fc6610fcd565b5060010190565b634e487b7160e01b600052601160045260246000fd5b6001600160a01b0381168114610ff857600080fd5b5056fea26469706673582212201a1e138cf08def9d866a549d7689d7f1f48aaa0e13367ad723f7a29392e64ce164736f6c63430008000033",
  "immutableReferences": {},
  "source": "// SPDX-License-Identifier: MIT\npragma solidity ^0.8.0;\npragma experimental ABIEncoderV2;\n\nimport \"@openzeppelin/contracts/token/ERC721/IERC721.sol\";\nimport \"@openzeppelin/contracts/token/ERC20/IERC20.sol\";\n\nenum DealStatus {\n    Open,\n    Cancelled,\n    Settled\n}\n\nstruct DealStruct {\n    address buyer;\n    address seller;\n    IERC20 erc20;\n    IERC721 erc721;\n    uint256 price;\n    uint256[] assetItems;\n    DealStatus status;\n}\n\n/// @title Deal -- allows atomic swap for ERC20/ERC721\n/// @author Barry Earsman\ncontract Deal {\n    address public creator;\n    address public owner;\n    address public buyer;\n    address public seller;\n    IERC20 erc20;\n    IERC721 erc721;\n    uint256 price;\n    uint256[] assetItems;\n    DealStatus status;\n    bool private settled;\n\n    event Debug(bytes32 message, uint num);\n    event DealSettled();\n    event DealCanceled();\n    event DealCreated();\n    event DealAssetsWithdrawn(uint qty);\n    event DealCoinsWithdrawn();\n\n    // This contract will allow atomic swaps for ERC20/ERC721\n    // The contract will have a price, and will have a list of assets to swap\n\n    constructor (address _buyer, address _seller, IERC20 _erc20, IERC721 _erc721, uint256 _price, uint256[] memory _assetItems) {\n        owner = msg.sender;\n        creator = msg.sender;\n        buyer = _buyer;\n        seller = _seller;\n        erc20 = _erc20;\n        erc721 = _erc721;\n        price = _price;\n        assetItems = _assetItems;\n        status = DealStatus.Open;\n        settled = false;\n    }\n\n    function getDeal() public view returns (DealStruct memory deal) {\n        return DealStruct(buyer, seller, erc20, erc721, price, assetItems, status);\n    }\n\n    function missingDealAssets() public view returns (uint256) {\n        //Check that all the assets have been deposited, and return the quantity missing    \n        uint256 assetDeposits = 0;\n        for (uint i = 0; i < assetItems.length; i ++) {\n            // Check that I (the dealroom contract) own this asset\n            if (erc721.ownerOf(assetItems[i]) == address(this)) {\n                assetDeposits ++;\n            }\n        }\n        return (assetItems.length - assetDeposits);\n    }\n\n    function canBuy() public view returns (bool) {\n        //Check that the buyer has enough tokens to buy the deal\n        return erc20.balanceOf(buyer) >= price;\n    }\n\n    function assetOwner(\n        uint256 assetId\n    ) public view returns (address) {\n        return erc721.ownerOf(assetId);\n    }\n\n    function dealAssetsDeposited() public view  returns (uint256) {\n        //Check that all the assets have been deposited, and return the quantity missing    \n        uint256 assetDeposits = 0;\n        for (uint i = 0; i < assetItems.length; i ++) {\n            // Check that I (the dealroom contract) own this asset\n            if (erc721.ownerOf(assetItems[i]) == address(this)) {\n                assetDeposits ++;\n            }\n        }\n        return assetDeposits;\n    }\n\n    function missingDealCoins() public view  returns (uint256) {\n        //Check that all the coins have been deposited, and return the amount missing\n        uint256 balance = erc20.balanceOf(address(this));\n        if (balance >= price) {\n            return 0;\n        }\n        return price - balance;\n    }\n\n    // Change the status to Settled, which will allow the buyer to withdraw the tokens, and the seller to withdraw the assets\n    function settle() public dealOpen() isOwner() {\n        require(missingDealAssets() == 0, \"DEAL_ASSETS_MISSING\");\n        require(missingDealCoins() == 0, \"DEAL_TOKENS_MISSING\");\n\n        _setDealStatus(DealStatus.Settled);\n        emit DealSettled();\n    }\n\n    function _setDealStatus(\n        DealStatus _status\n    ) private  {\n        status = _status;\n    }\n\n    //Transfer a batch of assets\n    function withdrawDealAssets(uint256 count) public {\n        uint256 transferred = 0;\n\n        if (status == DealStatus.Settled) {\n            require(msg.sender == buyer, \"BUYER_ONLY\");\n        } else {\n            require(msg.sender == seller, \"SELLER_ONLY\");\n        }\n\n        for (uint i = 0; i < assetItems.length; i ++) {\n            if (transferred < count && erc721.ownerOf(assetItems[i]) == address(this)) {\n                erc721.transferFrom(address(this), msg.sender, assetItems[i]);\n                transferred ++;\n            }\n        }\n        emit DealAssetsWithdrawn(count);\n    }\n\n    function withdrawDealCoins() public isMember() {\n        if (status == DealStatus.Settled) {\n            require(msg.sender == seller, \"ONLY_SELLER_AFTER_SETTLEMENT\");\n        } else {\n            require(msg.sender == buyer, \"ONLY_BUYER_BEFORE_SETTLEMENT\");\n        }\n        erc20.transfer(msg.sender, price);\n        emit DealCoinsWithdrawn();\n    }\n\n    function getOwner() public view returns (address) {\n        return owner;\n    }\n\n    function getBuyer() public view returns (address) {\n        return buyer;\n    }\n\n    function getSeller() public view returns (address) {\n        return seller;\n    }\n\n    function changeOwner(address newOwner) public isOwner() {\n        owner = newOwner;\n    }\n\n    modifier dealOpen() {\n        require(status == DealStatus.Open, \"DEAL_NOT_OPEN\");\n        _;\n    }\n\n    modifier dealSettled() {\n        require(status == DealStatus.Settled, \"DEAL_NOT_SETTLED\");\n        _;\n    }\n\n    modifier isOwner() {\n        require(msg.sender == owner, \"ONLY_OWNER\");\n        _;\n    }\n\n    modifier isBuyer() {\n        require(msg.sender == buyer, \"ONLY_BUYER\");\n        _;\n    }\n\n    modifier isSeller() {\n        require(msg.sender == seller, \"ONLY_SELLER\");\n        _;\n    }\n\n    modifier isMember() {\n        require(msg.sender == buyer || msg.sender == seller, \"NOT_MEMBER\");\n        _;\n    }\n}\n",
  "sourcePath": "/projects/dealrooms/ethereum/contracts/Deal.sol",
  "compiler": {
    "name": "solc",
    "version": "0.8.0+commit.c7dfd78e.Emscripten.clang"
  },
  "schemaVersion": "3.4.1",
  "updatedAt": "2021-07-29T03:56:14.036Z",
  "devdoc": {
    "author": "Barry Earsman",
    "kind": "dev",
    "methods": {},
    "title": "Deal -- allows atomic swap for ERC20/ERC721",
    "version": 1
  },
  "userdoc": {
    "kind": "user",
    "methods": {},
    "version": 1
  }
}