{
  "contractName": "DealHub",
  "abi": [
    {
      "anonymous": false,
      "inputs": [
        {
          "indexed": false,
          "internalType": "address",
          "name": "addr",
          "type": "address"
        },
        {
          "indexed": false,
          "internalType": "address",
          "name": "buyer",
          "type": "address"
        },
        {
          "indexed": false,
          "internalType": "address",
          "name": "seller",
          "type": "address"
        },
        {
          "indexed": false,
          "internalType": "address",
          "name": "erc20",
          "type": "address"
        },
        {
          "indexed": false,
          "internalType": "address",
          "name": "erc721",
          "type": "address"
        },
        {
          "indexed": false,
          "internalType": "uint256",
          "name": "price",
          "type": "uint256"
        },
        {
          "indexed": false,
          "internalType": "uint256[]",
          "name": "assets",
          "type": "uint256[]"
        }
      ],
      "name": "DealCreated",
      "type": "event"
    },
    {
      "inputs": [
        {
          "internalType": "address",
          "name": "_buyer",
          "type": "address"
        },
        {
          "internalType": "address",
          "name": "_seller",
          "type": "address"
        },
        {
          "internalType": "contract IERC20",
          "name": "_erc20",
          "type": "address"
        },
        {
          "internalType": "contract IERC721",
          "name": "_erc721",
          "type": "address"
        },
        {
          "internalType": "uint256",
          "name": "_price",
          "type": "uint256"
        },
        {
          "internalType": "uint256[]",
          "name": "_assetItems",
          "type": "uint256[]"
        }
      ],
      "name": "makeDeal",
      "outputs": [
        {
          "internalType": "address",
          "name": "",
          "type": "address"
        }
      ],
      "stateMutability": "nonpayable",
      "type": "function"
    },
    {
      "inputs": [
        {
          "internalType": "address",
          "name": "_user",
          "type": "address"
        }
      ],
      "name": "getUserDeals",
      "outputs": [
        {
          "internalType": "address[]",
          "name": "",
          "type": "address[]"
        }
      ],
      "stateMutability": "view",
      "type": "function"
    },
    {
      "inputs": [
        {
          "internalType": "address",
          "name": "addr",
          "type": "address"
        }
      ],
      "name": "getDeal",
      "outputs": [
        {
          "components": [
            {
              "internalType": "address",
              "name": "addr",
              "type": "address"
            },
            {
              "internalType": "address",
              "name": "buyer",
              "type": "address"
            },
            {
              "internalType": "address",
              "name": "seller",
              "type": "address"
            },
            {
              "internalType": "contract IERC20",
              "name": "erc20",
              "type": "address"
            },
            {
              "internalType": "contract IERC721",
              "name": "erc721",
              "type": "address"
            },
            {
              "internalType": "uint256",
              "name": "price",
              "type": "uint256"
            },
            {
              "internalType": "uint256[]",
              "name": "assetItems",
              "type": "uint256[]"
            },
            {
              "internalType": "address",
              "name": "dealMultiSig",
              "type": "address"
            }
          ],
          "internalType": "struct DealHub.DealDetails",
          "name": "",
          "type": "tuple"
        }
      ],
      "stateMutability": "view",
      "type": "function"
    },
    {
      "inputs": [],
      "name": "dealCount",
      "outputs": [
        {
          "internalType": "uint256",
          "name": "",
          "type": "uint256"
        }
      ],
      "stateMutability": "view",
      "type": "function"
    },
    {
      "inputs": [
        {
          "internalType": "address",
          "name": "newOwner",
          "type": "address"
        }
      ],
      "name": "changeOwner",
      "outputs": [],
      "stateMutability": "nonpayable",
      "type": "function"
    }
  ],
  "bytecode": "0x608060405234801561001057600080fd5b50614241806100206000396000f3fe60806040523480156200001157600080fd5b50600436106200005e5760003560e01c80637ec682851462000063578063a030e8561462000092578063a6f9dae114620000b8578063eadb3c9c14620000d1578063f04394df14620000ea575b600080fd5b6200007a62000074366004620008dd565b62000110565b60405162000089919062000a83565b60405180910390f35b620000a9620000a3366004620008b7565b62000639565b60405162000089919062000b42565b620000cf620000c9366004620008b7565b620006b1565b005b620000db62000709565b60405162000089919062000c48565b62000101620000fb366004620008b7565b6200070f565b60405162000089919062000b9f565b6000808787878787876040516200012790620007f1565b620001389695949392919062000af1565b604051809103906000f08015801562000155573d6000803e3d6000fd5b50604080516002808252606082018352929350600092909160208301908036833701905050905088816000815181106200019f57634e487b7160e01b600052603260045260246000fd5b60200260200101906001600160a01b031690816001600160a01b0316815250508781600181518110620001e257634e487b7160e01b600052603260045260246000fd5b60200260200101906001600160a01b031690816001600160a01b03168152505060008160026040516200021590620007ff565b6200022292919062000b57565b604051809103906000f0801580156200023f573d6000803e3d6000fd5b5060405163a6f9dae160e01b81529091506001600160a01b0384169063a6f9dae1906200027190849060040162000a83565b600060405180830381600087803b1580156200028c57600080fd5b505af1158015620002a1573d6000803e3d6000fd5b505050506003839080600181540180825580915050600190039060005260206000200160009091909190916101000a8154816001600160a01b0302191690836001600160a01b03160217905550600160008b6001600160a01b03166001600160a01b03168152602001908152602001600020839080600181540180825580915050600190039060005260206000200160009091909190916101000a8154816001600160a01b0302191690836001600160a01b03160217905550600160008a6001600160a01b03166001600160a01b03168152602001908152602001600020839080600181540180825580915050600190039060005260206000200160009091909190916101000a8154816001600160a01b0302191690836001600160a01b031602179055508260026000856001600160a01b03166001600160a01b0316815260200190815260200160002060000160006101000a8154816001600160a01b0302191690836001600160a01b031602179055508960026000856001600160a01b03166001600160a01b0316815260200190815260200160002060010160006101000a8154816001600160a01b0302191690836001600160a01b031602179055508860026000856001600160a01b03166001600160a01b0316815260200190815260200160002060020160006101000a8154816001600160a01b0302191690836001600160a01b031602179055508760026000856001600160a01b03166001600160a01b0316815260200190815260200160002060030160006101000a8154816001600160a01b0302191690836001600160a01b031602179055508660026000856001600160a01b03166001600160a01b0316815260200190815260200160002060040160006101000a8154816001600160a01b0302191690836001600160a01b031602179055508560026000856001600160a01b03166001600160a01b03168152602001908152602001600020600501819055508460026000856001600160a01b03166001600160a01b031681526020019081526020016000206006019080519060200190620005b29291906200080d565b506001600160a01b038381166000908152600260205260409081902060070180546001600160a01b03191692841692909217909155517fae539f727a2630674bc4069b0463041002e373aabd9740724039bcdff813e00e90620006239085908d908d908d908d908d908d9062000a97565b60405180910390a1509098975050505050505050565b6001600160a01b038116600090815260016020908152604091829020805483518184028101840190945280845260609392830182828015620006a557602002820191906000526020600020905b81546001600160a01b0316815260019091019060200180831162000686575b50505050509050919050565b6000546001600160a01b03163314620006e75760405162461bcd60e51b8152600401620006de9062000b7b565b60405180910390fd5b600080546001600160a01b0319166001600160a01b0392909216919091179055565b60035490565b620007196200085d565b6001600160a01b0380831660009081526002602081815260409283902083516101008101855281548616815260018201548616818401529281015485168385015260038101548516606084015260048101549094166080830152600584015460a083015260068401805484518184028101840190955280855292949360c08601939092830182828015620007cd57602002820191906000526020600020905b815481526020019060010190808311620007b8575b5050509183525050600791909101546001600160a01b031660209091015292915050565b6112c48062000c8183390190565b6122c78062001f4583390190565b8280548282559060005260206000209081019282156200084b579160200282015b828111156200084b5782518255916020019190600101906200082e565b5062000859929150620008a0565b5090565b604080516101008101825260008082526020820181905291810182905260608082018390526080820183905260a0820183905260c082015260e081019190915290565b5b80821115620008595760008155600101620008a1565b600060208284031215620008c9578081fd5b8135620008d68162000c67565b9392505050565b60008060008060008060c08789031215620008f6578182fd5b8635620009038162000c67565b9550602087810135620009168162000c67565b95506040880135620009288162000c67565b945060608801356200093a8162000c67565b93506080880135925060a088013567ffffffffffffffff808211156200095e578384fd5b818a0191508a601f83011262000972578384fd5b81358181111562000987576200098762000c51565b83810260405185828201018181108582111715620009a957620009a962000c51565b604052828152858101935084860182860187018f1015620009c8578788fd5b8795505b83861015620009ec578035855260019590950194938601938601620009cc565b508096505050505050509295509295509295565b6001600160a01b03169052565b6000815180845260208085019450808401835b8381101562000a475781516001600160a01b03168752958201959082019060010162000a20565b509495945050505050565b6000815180845260208085019450808401835b8381101562000a475781518752958201959082019060010162000a65565b6001600160a01b0391909116815260200190565b6001600160a01b0388811682528781166020830152868116604083015285811660608301528416608082015260a0810183905260e060c0820181905260009062000ae49083018462000a52565b9998505050505050505050565b6001600160a01b03878116825286811660208301528581166040830152841660608201526080810183905260c060a0820181905260009062000b369083018462000a52565b98975050505050505050565b600060208252620008d6602083018462000a0d565b60006040825262000b6c604083018562000a0d565b90508260208301529392505050565b6020808252600a908201526927a7262cafa7aba722a960b11b604082015260600190565b60006020825260018060a01b0380845116602084015280602085015116604084015250604083015162000bd6606084018262000a00565b50606083015162000beb608084018262000a00565b50608083015162000c0060a084018262000a00565b5060a083015160c083015260c08301516101008060e085015262000c2961012085018362000a52565b915060e085015162000c3e8286018262000a00565b5090949350505050565b90815260200190565b634e487b7160e01b600052604160045260246000fd5b6001600160a01b038116811462000c7d57600080fd5b5056fe60806040523480156200001157600080fd5b50604051620012c4380380620012c483398101604081905262000034916200012d565b60018054336001600160a01b031991821681179092556000805482169092179091556002805482166001600160a01b03898116919091179091556003805483168883161790556004805483168783161790556005805490921690851617905560068290558051620000ad906007906020840190620000c6565b50506008805461ffff1916905550620002839350505050565b82805482825590600052602060002090810192821562000104579160200282015b8281111562000104578251825591602001919060010190620000e7565b506200011292915062000116565b5090565b5b8082111562000112576000815560010162000117565b60008060008060008060c0878903121562000146578182fd5b865162000153816200026a565b8096505060208088015162000168816200026a565b60408901519096506200017b816200026a565b60608901519095506200018e816200026a565b608089015160a08a015191955093506001600160401b0380821115620001b2578384fd5b818a0191508a601f830112620001c6578384fd5b815181811115620001db57620001db62000254565b83810260405185828201018181108582111715620001fd57620001fd62000254565b604052828152858101935084860182860187018f10156200021c578788fd5b8795505b838610156200024057805185526001959095019493860193860162000220565b508096505050505050509295509295509295565b634e487b7160e01b600052604160045260246000fd5b6001600160a01b03811681146200028057600080fd5b50565b61103180620002936000396000f3fe608060405234801561001057600080fd5b506004361061010b5760003560e01c80637150d8ae116100a25780638e0b1745116100715780638e0b1745146101b85780639019bae1146101c0578063a6f9dae1146101c8578063dbd0e1b6146101db578063ff65226c146101e35761010b565b80637150d8ae14610198578063893d20e8146101a05780638b43bf8b146101a85780638da5cb5b146101b05761010b565b80632a0ee644116100de5780632a0ee6441461015357806349ad698414610166578063603daf9a1461017b5780636680b513146101835761010b565b806302d05d3f1461011057806308551a531461012e57806311da60b4146101365780631c17def114610140575b600080fd5b6101186101f8565b6040516101259190610d0c565b60405180910390f35b610118610207565b61013e610216565b005b61013e61014e366004610cba565b61030c565b610118610161366004610cba565b61055d565b61016e6105e4565b6040516101259190610f92565b6101186106e6565b61018b6106f5565b6040516101259190610ee8565b6101186107c6565b6101186107d5565b61016e6107e4565b610118610889565b61013e610898565b61016e610a0f565b61013e6101d6366004610c5b565b610b01565b610118610b4d565b6101eb610b5c565b6040516101259190610d5d565b6000546001600160a01b031681565b6003546001600160a01b031681565b600060085460ff16600281111561023d57634e487b7160e01b600052602160045260246000fd5b146102635760405162461bcd60e51b815260040161025a90610d68565b60405180910390fd5b6001546001600160a01b0316331461028d5760405162461bcd60e51b815260040161025a90610e97565b6102956105e4565b156102b25760405162461bcd60e51b815260040161025a90610ebb565b6102ba6107e4565b156102d75760405162461bcd60e51b815260040161025a90610e6a565b6102e16002610bed565b6040517f8fcd434ae56c624f34ecd897fd7e8160104acbeb898add80c033fb445c47be1790600090a1565b6000600260085460ff16600281111561033557634e487b7160e01b600052602160045260246000fd5b141561036a576002546001600160a01b031633146103655760405162461bcd60e51b815260040161025a90610e0f565b610394565b6003546001600160a01b031633146103945760405162461bcd60e51b815260040161025a90610dea565b60005b60075481101561052157828210801561046457506005546007805430926001600160a01b031691636352211e91859081106103e257634e487b7160e01b600052603260045260246000fd5b90600052602060002001546040518263ffffffff1660e01b81526004016104099190610f92565b60206040518083038186803b15801561042157600080fd5b505afa158015610435573d6000803e3d6000fd5b505050506040513d601f19601f820116820180604052508101906104599190610c7e565b6001600160a01b0316145b1561050f57600554600780546001600160a01b03909216916323b872dd913091339190869081106104a557634e487b7160e01b600052603260045260246000fd5b90600052602060002001546040518463ffffffff1660e01b81526004016104ce93929190610d20565b600060405180830381600087803b1580156104e857600080fd5b505af11580156104fc573d6000803e3d6000fd5b50505050818061050b90610fb2565b9250505b8061051981610fb2565b915050610397565b507f4a362c78b6086fb52f496eec53dd826013b183d45d8ac334d4b380918b1a4c90826040516105519190610f92565b60405180910390a15050565b6005546040516331a9108f60e11b81526000916001600160a01b031690636352211e9061058e908590600401610f92565b60206040518083038186803b1580156105a657600080fd5b505afa1580156105ba573d6000803e3d6000fd5b505050506040513d601f19601f820116820180604052508101906105de9190610c7e565b92915050565b600080805b6007548110156106d0576005546007805430926001600160a01b031691636352211e918590811061062a57634e487b7160e01b600052603260045260246000fd5b90600052602060002001546040518263ffffffff1660e01b81526004016106519190610f92565b60206040518083038186803b15801561066957600080fd5b505afa15801561067d573d6000803e3d6000fd5b505050506040513d601f19601f820116820180604052508101906106a19190610c7e565b6001600160a01b031614156106be57816106ba81610fb2565b9250505b806106c881610fb2565b9150506105e9565b506007546106df908290610f9b565b9150505b90565b6002546001600160a01b031690565b6106fd610c22565b6040805160e0810182526002546001600160a01b03908116825260035481166020808401919091526004548216838501526005549091166060830152600654608083015260078054845181840281018401909552808552929360a0850193909283018282801561078c57602002820191906000526020600020905b815481526020019060010190808311610778575b505050918352505060085460209091019060ff1660028111156107bf57634e487b7160e01b600052602160045260246000fd5b9052905090565b6002546001600160a01b031681565b6001546001600160a01b031690565b600480546040516370a0823160e01b815260009283926001600160a01b0316916370a082319161081691309101610d0c565b60206040518083038186803b15801561082e57600080fd5b505afa158015610842573d6000803e3d6000fd5b505050506040513d601f19601f820116820180604052508101906108669190610cd2565b9050600654811061087b5760009150506106e3565b806006546106df9190610f9b565b6001546001600160a01b031681565b6002546001600160a01b03163314806108bb57506003546001600160a01b031633145b6108d75760405162461bcd60e51b815260040161025a90610dc6565b600260085460ff1660028111156108fe57634e487b7160e01b600052602160045260246000fd5b1415610933576003546001600160a01b0316331461092e5760405162461bcd60e51b815260040161025a90610e33565b61095d565b6002546001600160a01b0316331461095d5760405162461bcd60e51b815260040161025a90610d8f565b6004805460065460405163a9059cbb60e01b81526001600160a01b039092169263a9059cbb92610991923392909101610d44565b602060405180830381600087803b1580156109ab57600080fd5b505af11580156109bf573d6000803e3d6000fd5b505050506040513d601f19601f820116820180604052508101906109e39190610c9a565b506040517f4451ad69d9ceccace8a9bce15573087dce61e5bd1905b302527ace7f9acd435790600090a1565b600080805b600754811015610afb576005546007805430926001600160a01b031691636352211e9185908110610a5557634e487b7160e01b600052603260045260246000fd5b90600052602060002001546040518263ffffffff1660e01b8152600401610a7c9190610f92565b60206040518083038186803b158015610a9457600080fd5b505afa158015610aa8573d6000803e3d6000fd5b505050506040513d601f19601f82011682018060405250810190610acc9190610c7e565b6001600160a01b03161415610ae95781610ae581610fb2565b9250505b80610af381610fb2565b915050610a14565b50905090565b6001546001600160a01b03163314610b2b5760405162461bcd60e51b815260040161025a90610e97565b600180546001600160a01b0319166001600160a01b0392909216919091179055565b6003546001600160a01b031690565b600654600480546002546040516370a0823160e01b8152600094936001600160a01b03938416936370a0823193610b969391169101610d0c565b60206040518083038186803b158015610bae57600080fd5b505afa158015610bc2573d6000803e3d6000fd5b505050506040513d601f19601f82011682018060405250810190610be69190610cd2565b1015905090565b6008805482919060ff19166001836002811115610c1a57634e487b7160e01b600052602160045260246000fd5b021790555050565b6040805160e08101825260008082526020820181905291810182905260608082018390526080820183905260a08201529060c082015290565b600060208284031215610c6c578081fd5b8135610c7781610fe3565b9392505050565b600060208284031215610c8f578081fd5b8151610c7781610fe3565b600060208284031215610cab578081fd5b81518015158114610c77578182fd5b600060208284031215610ccb578081fd5b5035919050565b600060208284031215610ce3578081fd5b5051919050565b60038110610d0857634e487b7160e01b600052602160045260246000fd5b9052565b6001600160a01b0391909116815260200190565b6001600160a01b039384168152919092166020820152604081019190915260600190565b6001600160a01b03929092168252602082015260400190565b901515815260200190565b6020808252600d908201526c2222a0a62fa727aa2fa7a822a760991b604082015260600190565b6020808252601c908201527f4f4e4c595f42555945525f4245464f52455f534554544c454d454e5400000000604082015260600190565b6020808252600a90820152692727aa2fa6a2a6a122a960b11b604082015260600190565b6020808252600b908201526a53454c4c45525f4f4e4c5960a81b604082015260600190565b6020808252600a908201526942555945525f4f4e4c5960b01b604082015260600190565b6020808252601c908201527f4f4e4c595f53454c4c45525f41465445525f534554544c454d454e5400000000604082015260600190565b6020808252601390820152724445414c5f544f4b454e535f4d495353494e4760681b604082015260600190565b6020808252600a908201526927a7262cafa7aba722a960b11b604082015260600190565b6020808252601390820152724445414c5f4153534554535f4d495353494e4760681b604082015260600190565b60006020808352610100830160018060a01b038086511683860152808387015116604086015280604087015116606086015280606087015116608086015250608085015160a085015260a085015160e060c08601528181518084526101208701915084830193508592505b80831015610f735783518252928401926001929092019190840190610f53565b5060c08701519350610f8860e0870185610cea565b9695505050505050565b90815260200190565b600082821015610fad57610fad610fcd565b500390565b6000600019821415610fc657610fc6610fcd565b5060010190565b634e487b7160e01b600052601160045260246000fd5b6001600160a01b0381168114610ff857600080fd5b5056fea26469706673582212201a1e138cf08def9d866a549d7689d7f1f48aaa0e13367ad723f7a29392e64ce164736f6c6343000800003360806040523480156200001157600080fd5b50604051620022c7380380620022c783398101604081905262000034916200028f565b81518160328211158015620000495750818111155b80156200005557508015155b80156200006157508115155b620000895760405162461bcd60e51b8152600401620000809062000365565b60405180910390fd5b60005b8451811015620001ce5760026000868381518110620000bb57634e487b7160e01b600052603260045260246000fd5b6020908102919091018101516001600160a01b031682528101919091526040016000205460ff1615620001025760405162461bcd60e51b815260040162000080906200039c565b60006001600160a01b03168582815181106200012e57634e487b7160e01b600052603260045260246000fd5b60200260200101516001600160a01b03161415620001605760405162461bcd60e51b81526004016200008090620003c6565b6001600260008784815181106200018757634e487b7160e01b600052603260045260246000fd5b6020908102919091018101516001600160a01b03168252810191909152604001600020805460ff191691151591909117905580620001c581620003ef565b9150506200008c565b508351620001e4906004906020870190620001f1565b505050600555506200042d565b82805482825590600052602060002090810192821562000249579160200282015b828111156200024957825182546001600160a01b0319166001600160a01b0390911617825560209092019160019091019062000212565b50620002579291506200025b565b5090565b5b808211156200025757600081556001016200025c565b80516001600160a01b03811681146200028a57600080fd5b919050565b60008060408385031215620002a2578182fd5b82516001600160401b0380821115620002b9578384fd5b818501915085601f830112620002cd578384fd5b8151602082821115620002e457620002e462000417565b8082026040518282820101818110868211171562000306576200030662000417565b604052838152828101945085830182870184018b101562000325578889fd5b8896505b8487101562000352576200033d8162000272565b86526001969096019594830194830162000329565b5097909101519698969750505050505050565b60208082526013908201527f696e76616c696420726571756972656d656e7400000000000000000000000000604082015260600190565b60208082526010908201526f34b99030b63932b0b23c9037bbb732b960811b604082015260600190565b6020808252600f908201526e6973206e756c6c206164647265737360881b604082015260600190565b60006000198214156200041057634e487b7160e01b81526011600452602481fd5b5060010190565b634e487b7160e01b600052604160045260246000fd5b611e8a806200043d6000396000f3fe60806040526004361061014f5760003560e01c8063969f8a83116100b6578063c64274741161006f578063c642747414610467578063c69ed5f214610487578063d74f8edd146104a7578063dc8452cd146104bc578063e20056e6146104d1578063f3fc536d146104f15761019e565b8063969f8a83146103b0578063a0e67e2b146103dd578063a96bf00c146103f2578063b77bf60014610412578063ba51a6df14610427578063bdfd2793146104475761019e565b8063501895ae11610108578063501895ae146102de578063642f2eaf146102fe5780636486aa51146103305780637065cb481461035057806379716e4314610370578063915c219e146103905761019e565b8063025e7c27146101dd5780630c4ecab414610213578063113642e514610240578063173825d91461026d5780632f54bf6e1461028d5780634aae13ca146102ad5761019e565b3661019e57341561019c57336001600160a01b03167fe1fffcc4923d04b559f4d29a8bfc6cda04eb5b0d3c460751c2402c5c5cc9109c346040516101939190611bae565b60405180910390a25b005b341561019c57336001600160a01b03167fe1fffcc4923d04b559f4d29a8bfc6cda04eb5b0d3c460751c2402c5c5cc9109c346040516101939190611bae565b3480156101e957600080fd5b506101fd6101f8366004611a58565b610511565b60405161020a9190611afd565b60405180910390f35b34801561021f57600080fd5b5061023361022e366004611a70565b61053b565b60405161020a9190611ba3565b34801561024c57600080fd5b5061026061025b366004611a58565b61055b565b60405161020a9190611bae565b34801561027957600080fd5b5061019c610288366004611948565b6105ef565b34801561029957600080fd5b506102336102a8366004611948565b61080d565b3480156102b957600080fd5b506102cd6102c8366004611a58565b610822565b60405161020a959493929190611bb7565b3480156102ea57600080fd5b506102606102f9366004611a58565b61093d565b34801561030a57600080fd5b5061031e610319366004611a58565b61094f565b60405161020a96959493929190611b11565b34801561033c57600080fd5b5061023361034b366004611a58565b610a1c565b34801561035c57600080fd5b5061019c61036b366004611948565b610ac8565b34801561037c57600080fd5b5061019c61038b366004611a58565b610c2d565b34801561039c57600080fd5b506102606103ab36600461199b565b610d1d565b3480156103bc57600080fd5b506103d06103cb366004611a58565b610d32565b60405161020a9190611b56565b3480156103e957600080fd5b506103d0610f6c565b3480156103fe57600080fd5b5061023361040d366004611a70565b610fce565b34801561041e57600080fd5b50610260610ff9565b34801561043357600080fd5b5061019c610442366004611a58565b610fff565b34801561045357600080fd5b506102cd610462366004611a58565b6110a7565b34801561047357600080fd5b5061026061048236600461199b565b6111d3565b34801561049357600080fd5b5061019c6104a2366004611a58565b6111e0565b3480156104b357600080fd5b506102606113dc565b3480156104c857600080fd5b506102606113e1565b3480156104dd57600080fd5b5061019c6104ec366004611969565b6113e7565b3480156104fd57600080fd5b5061019c61050c366004611a58565b6115cf565b6004818154811061052157600080fd5b6000918252602090912001546001600160a01b0316905081565b600160209081526000928352604080842090915290825290205460ff1681565b6000805b6004548110156105e9576000838152600160205260408120600480549192918490811061059c57634e487b7160e01b600052603260045260246000fd5b60009182526020808320909101546001600160a01b0316835282019290925260400190205460ff16156105d7576105d4600183611d79565b91505b806105e181611e0d565b91505061055f565b50919050565b3330146106175760405162461bcd60e51b815260040161060e90611d24565b60405180910390fd5b6001600160a01b038116600090815260026020526040902054819060ff166106515760405162461bcd60e51b815260040161060e90611cf6565b6001600160a01b0382166000908152600260205260408120805460ff191690555b60045461068190600190611d91565b81101561077b57826001600160a01b0316600482815481106106b357634e487b7160e01b600052603260045260246000fd5b6000918252602090912001546001600160a01b0316141561076957600480546106de90600190611d91565b815481106106fc57634e487b7160e01b600052603260045260246000fd5b600091825260209091200154600480546001600160a01b03909216918390811061073657634e487b7160e01b600052603260045260246000fd5b9060005260206000200160006101000a8154816001600160a01b0302191690836001600160a01b0316021790555061077b565b8061077381611e0d565b915050610672565b50600480548061079b57634e487b7160e01b600052603160045260246000fd5b600082815260209020810160001990810180546001600160a01b031916905501905560045460055411156107d5576004546107d590610fff565b6040516001600160a01b038316907f8001553a916ef2f495d26a907cc54d96ed840d7bda71e73194bf5a9df7a76b9090600090a25050565b60026020526000908152604090205460ff1681565b600081815260208181526040808320815160c08101835281546001600160a01b031681526001820154938101939093526002810180546060948694859485948594919284019161087190611dd8565b80601f016020809104026020016040519081016040528092919081815260200182805461089d90611dd8565b80156108ea5780601f106108bf576101008083540402835291602001916108ea565b820191906000526020600020905b8154815290600101906020018083116108cd57829003601f168201915b5050509183525050600382015460ff1615156020820152600482015460408083019190915260059092015460609182015290820151825191830151608090930151999a9099919850919650945092505050565b60036020526000908152604090205481565b6000602081905290815260409020805460018201546002830180546001600160a01b0390931693919261098190611dd8565b80601f01602080910402602001604051908101604052809291908181526020018280546109ad90611dd8565b80156109fa5780601f106109cf576101008083540402835291602001916109fa565b820191906000526020600020905b8154815290600101906020018083116109dd57829003601f168201915b5050505060038301546004840154600590940154929360ff9091169290915086565b600080805b600454811015610ac05760008481526001602052604081206004805491929184908110610a5e57634e487b7160e01b600052603260045260246000fd5b60009182526020808320909101546001600160a01b0316835282019290925260400190205460ff1615610a9957610a96600183611d79565b91505b600554821415610aae57600192505050610ac3565b80610ab881611e0d565b915050610a21565b50505b919050565b333014610ae75760405162461bcd60e51b815260040161060e90611d24565b6001600160a01b038116600090815260026020526040902054819060ff1615610b225760405162461bcd60e51b815260040161060e90611c52565b816001600160a01b038116610b495760405162461bcd60e51b815260040161060e90611ca1565b600454610b57906001611d79565b60055460328211158015610b6b5750818111155b8015610b7657508015155b8015610b8157508115155b610b9d5760405162461bcd60e51b815260040161060e90611bf6565b6001600160a01b038516600081815260026020526040808220805460ff1916600190811790915560048054918201815583527f8a35acfbc15ff81a39ae7d344fd709f28e8600b4aa8c65c6b64bfe7fe36bd19b0180546001600160a01b03191684179055517ff39e6e1eb0edcf53c221607b54b00cd28f3196fed0a24994dc308b8f611b682d9190a25050505050565b3360008181526002602052604090205460ff16610c5c5760405162461bcd60e51b815260040161060e90611cf6565b81610c66816116be565b610c825760405162461bcd60e51b815260040161060e90611ccc565b60008381526001602090815260408083203380855292529091205484919060ff1615610cc05760405162461bcd60e51b815260040161060e90611d49565b6000858152600160208181526040808420338086529252808420805460ff1916909317909255905187927fe1c52dc63b719ade82e8bea94cc41a0d5d28e4aaf536adb5e9cccc9ff8c1aeda91a3610d16856111e0565b5050505050565b6000610d2a8484846116db565b949350505050565b60045460609060009067ffffffffffffffff811115610d6157634e487b7160e01b600052604160045260246000fd5b604051908082528060200260200182016040528015610d8a578160200160208202803683370190505b5090506000805b600454811015610e925760008581526001602052604081206004805491929184908110610dce57634e487b7160e01b600052603260045260246000fd5b60009182526020808320909101546001600160a01b0316835282019290925260400190205460ff1615610e805760048181548110610e1c57634e487b7160e01b600052603260045260246000fd5b9060005260206000200160009054906101000a90046001600160a01b0316838381518110610e5a57634e487b7160e01b600052603260045260246000fd5b6001600160a01b0390921660209283029190910190910152610e7d600183611d79565b91505b80610e8a81611e0d565b915050610d91565b8167ffffffffffffffff811115610eb957634e487b7160e01b600052604160045260246000fd5b604051908082528060200260200182016040528015610ee2578160200160208202803683370190505b509350600090505b81811015610f6457828181518110610f1257634e487b7160e01b600052603260045260246000fd5b6020026020010151848281518110610f3a57634e487b7160e01b600052603260045260246000fd5b6001600160a01b039092166020928302919091019091015280610f5c81611e0d565b915050610eea565b505050919050565b60606004805480602002602001604051908101604052809291908181526020018280548015610fc457602002820191906000526020600020905b81546001600160a01b03168152600190910190602001808311610fa6575b5050505050905090565b60009182526001602090815260408084206001600160a01b0393909316845291905290205460ff1690565b60065481565b33301461101e5760405162461bcd60e51b815260040161060e90611d24565b60045481603282118015906110335750818111155b801561103e57508015155b801561104957508115155b6110655760405162461bcd60e51b815260040161060e90611bf6565b60058390556040517fa3f1ee9126a074d9326c682f561767f710e927faa811f7a99829d49dc421797a9061109a908590611bae565b60405180910390a1505050565b6000818152600360209081526040808320548352828252808320815160c08101835281546001600160a01b031681526001820154938101939093526002810180546060948694859485948594919284019161110190611dd8565b80601f016020809104026020016040519081016040528092919081815260200182805461112d90611dd8565b801561117a5780601f1061114f5761010080835404028352916020019161117a565b820191906000526020600020905b81548152906001019060200180831161115d57829003601f168201915b5050509183525050600382015460ff1615156020820152600482015460408083019190915260059092015460609182015260a083015191830151835191840151608090940151929b909a50909850919650945092505050565b6000610d2a848484611711565b3360008181526002602052604090205460ff1661120f5760405162461bcd60e51b815260040161060e90611cf6565b60008281526001602090815260408083203380855292529091205483919060ff1661124c5760405162461bcd60e51b815260040161060e90611c78565b600084815260208190526040902060030154849060ff16156112805760405162461bcd60e51b815260040161060e90611c23565b61128985610a1c565b15610d1657600085815260208190526040902060038101805460ff19166001908117909155815490820154600283018054611367936001600160a01b03169291906112d390611dd8565b90508460020180546112e490611dd8565b80601f016020809104026020016040519081016040528092919081815260200182805461131090611dd8565b801561135d5780601f106113325761010080835404028352916020019161135d565b820191906000526020600020905b81548152906001019060200180831161134057829003601f168201915b5050505050611875565b1561139c5760405186907f7e9e1cb65db4927b1815f498cbaa226a15c277816f7df407573682110522c9b190600090a26113d4565b60405186907fdbe42d02a4e07d7eeff2874efe172540c93b297d206f6d691c9782a257323e3290600090a260038101805460ff191690555b505050505050565b603281565b60055481565b3330146114065760405162461bcd60e51b815260040161060e90611d24565b6001600160a01b038216600090815260026020526040902054829060ff166114405760405162461bcd60e51b815260040161060e90611cf6565b6001600160a01b038216600090815260026020526040902054829060ff161561147b5760405162461bcd60e51b815260040161060e90611c52565b60005b60045481101561153557846001600160a01b0316600482815481106114b357634e487b7160e01b600052603260045260246000fd5b6000918252602090912001546001600160a01b031614156115235783600482815481106114f057634e487b7160e01b600052603260045260246000fd5b9060005260206000200160006101000a8154816001600160a01b0302191690836001600160a01b03160217905550611535565b8061152d81611e0d565b91505061147e565b506001600160a01b03808516600081815260026020526040808220805460ff1990811690915593871682528082208054909416600117909355915190917f8001553a916ef2f495d26a907cc54d96ed840d7bda71e73194bf5a9df7a76b9091a26040516001600160a01b038416907ff39e6e1eb0edcf53c221607b54b00cd28f3196fed0a24994dc308b8f611b682d90600090a250505050565b3360008181526002602052604090205460ff166115fe5760405162461bcd60e51b815260040161060e90611cf6565b60008281526001602090815260408083203380855292529091205483919060ff1661163b5760405162461bcd60e51b815260040161060e90611c78565b600084815260208190526040902060030154849060ff161561166f5760405162461bcd60e51b815260040161060e90611c23565b6000858152600160209081526040808320338085529252808320805460ff191690555187927f9aec1a62b961581534d37fd62d35e3648f05a17b1f986eda1d1a9d97b147840691a35050505050565b6000908152602081905260409020546001600160a01b0316151590565b60008383836040516020016116f293929190611abe565b6040516020818303038152906040528051906020012090509392505050565b6000836001600160a01b03811661173a5760405162461bcd60e51b815260040161060e90611ca1565b6117458585856116db565b9150611750826116be565b611864576040805160c0810182526001600160a01b038781168252602080830188815283850188815260006060860181905242608087015260a0860189905288815280845295909520845181546001600160a01b031916941693909317835551600183015592518051929391926117cd9260028501920190611898565b5060608201516003828101805460ff1916921515929092179091556080830151600483015560a09092015160059091015560068054600090815260209290925260408220849055805460019290611825908490611d79565b90915550611834905082610c2d565b60405182907f1b15da2a2b1f440c8fb970f04466e7ccd3a8215634645d232bbc23c75785b5bb90600090a261186d565b61186d82610c2d565b509392505050565b6000806040516020840160008287838a8c6187965a03f198975050505050505050565b8280546118a490611dd8565b90600052602060002090601f0160209004810192826118c6576000855561190c565b82601f106118df57805160ff191683800117855561190c565b8280016001018555821561190c579182015b8281111561190c5782518255916020019190600101906118f1565b5061191892915061191c565b5090565b5b80821115611918576000815560010161191d565b80356001600160a01b0381168114610ac357600080fd5b600060208284031215611959578081fd5b61196282611931565b9392505050565b6000806040838503121561197b578081fd5b61198483611931565b915061199260208401611931565b90509250929050565b6000806000606084860312156119af578081fd5b6119b884611931565b92506020808501359250604085013567ffffffffffffffff808211156119dc578384fd5b818701915087601f8301126119ef578384fd5b813581811115611a0157611a01611e3e565b604051601f8201601f1916810185018381118282101715611a2457611a24611e3e565b60405281815283820185018a1015611a3a578586fd5b81858501868301378585838301015280955050505050509250925092565b600060208284031215611a69578081fd5b5035919050565b60008060408385031215611a82578182fd5b8235915061199260208401611931565b60008151808452611aaa816020860160208601611da8565b601f01601f19169290920160200192915050565b60006bffffffffffffffffffffffff198560601b1682528360148301528251611aee816034850160208701611da8565b91909101603401949350505050565b6001600160a01b0391909116815260200190565b600060018060a01b038816825286602083015260c06040830152611b3860c0830187611a92565b941515606083015250608081019290925260a0909101529392505050565b6020808252825182820181905260009190848201906040850190845b81811015611b975783516001600160a01b031683529284019291840191600101611b72565b50909695505050505050565b901515815260200190565b90815260200190565b600086825260a06020830152611bd060a0830187611a92565b6001600160a01b0395909516604083015250911515606083015260809091015292915050565b6020808252601390820152721a5b9d985b1a59081c995c5d5a5c995b595b9d606a1b604082015260600190565b6020808252601590820152740e881d1e08185b1c9958591e48195e1958dd5d1959605a1b604082015260600190565b6020808252600c908201526b4f776e65722065786973747360a01b604082015260600190565b6020808252600f908201526e0e881b9bdd0818dbdb999a5c9b5959608a1b604082015260600190565b6020808252601190820152700e881859191c995cdcc81a5cc81b9d5b1b607a1b604082015260600190565b60208082526010908201526f151e08191bd95cdb89dd08195e1a5cdd60821b604082015260600190565b60208082526014908201527313dddb995c88191bd95cc81b9bdd08195e1a5cdd60621b604082015260600190565b6020808252600b908201526a13db9b1e481dd85b1b195d60aa1b604082015260600190565b6020808252601690820152750e881a5cc8185b1c9958591e4818dbdb999a5c9b595960521b604082015260600190565b60008219821115611d8c57611d8c611e28565b500190565b600082821015611da357611da3611e28565b500390565b60005b83811015611dc3578181015183820152602001611dab565b83811115611dd2576000848401525b50505050565b600281046001821680611dec57607f821691505b602082108114156105e957634e487b7160e01b600052602260045260246000fd5b6000600019821415611e2157611e21611e28565b5060010190565b634e487b7160e01b600052601160045260246000fd5b634e487b7160e01b600052604160045260246000fdfea2646970667358221220c45f452ade718a5fd81f78430b19d38aa80090c793ea24e4eb202e90ba88e93564736f6c63430008000033a2646970667358221220ee2f800d02fb853f0aff89802b7b14c2b7de121180935d4331b0559b6b8ed97364736f6c63430008000033",
  "immutableReferences": {},
  "source": "// SPDX-License-Identifier: MIT\npragma experimental ABIEncoderV2;\npragma solidity ^0.8.0;\n\nimport \"./Deal.sol\";\nimport \"./multisig/MultiSigHashed.sol\";\n\ncontract DealHub {\n    address owner;\n\n    struct DealDetails {\n        address addr;\n        address buyer;\n        address seller;\n        IERC20 erc20;\n        IERC721 erc721;\n        uint256 price;\n        uint256[] assetItems;\n        address dealMultiSig;\n    }\n\n    mapping (address => address[]) private dealsByUser;\n    mapping (address => DealDetails) private dealDetailsByAddress;\n\n    address[] private deals;\n\n    event DealCreated(address addr, address buyer, address seller, address erc20, address erc721, uint256 price, uint256[] assets);\n\n    function makeDeal(\n        address _buyer,\n        address _seller,\n        IERC20 _erc20,\n        IERC721 _erc721,\n        uint256 _price,\n        uint256[] memory _assetItems\n    ) public returns (address) {\n        Deal deal = new Deal(_buyer, _seller, _erc20, _erc721, _price, _assetItems);\n\n        //Make a deal multisig, 2/2 with Agents\n        address[] memory signatories = new address[](2);\n        signatories[0] = _buyer;\n        signatories[1] = _seller; \n        MultiSigHashed dealMultiSig = new MultiSigHashed(signatories, 2);   \n\n        //Give the deal to the Multisig\n        deal.changeOwner(address(dealMultiSig));\n\n        //===Record deal details (without upsetting the compiler)\n        //Add to list\n        deals.push(address(deal));\n\n        //Index by buyer and seller\n        dealsByUser[_buyer].push(address(deal));\n        dealsByUser[_seller].push(address(deal));\n\n        //Index by address\n        dealDetailsByAddress[address(deal)].addr = address(deal);\n        dealDetailsByAddress[address(deal)].buyer = _buyer;\n        dealDetailsByAddress[address(deal)].seller = _seller;\n        dealDetailsByAddress[address(deal)].erc20 = _erc20;\n        dealDetailsByAddress[address(deal)].erc721 = _erc721;\n        dealDetailsByAddress[address(deal)].price = _price;\n        dealDetailsByAddress[address(deal)].assetItems = _assetItems;\n        dealDetailsByAddress[address(deal)].dealMultiSig = address(dealMultiSig);\n\n        emit DealCreated(address(deal), _buyer, _seller, address(_erc20), address(_erc721), _price, _assetItems);\n\n        return address(deal);\n    }\n\n    function getUserDeals(address _user) public view returns(address[] memory) {\n        return dealsByUser[_user];\n    }\n    function getDeal(address addr) public view returns (DealDetails memory) {\n        return dealDetailsByAddress[addr];\n    }\n    function dealCount() public view returns (uint) {\n        return deals.length;\n    }\n\n    function changeOwner(address newOwner) public isOwner() {\n        owner = newOwner;\n    }\n\n    modifier isOwner() {\n        require(msg.sender == owner, \"ONLY_OWNER\");\n        _;\n    }\n}\n",
  "sourcePath": "/projects/dealrooms/ethereum/contracts/DealHub.sol",
  "compiler": {
    "name": "solc",
    "version": "0.8.0+commit.c7dfd78e.Emscripten.clang"
  },
  "schemaVersion": "3.4.1",
  "updatedAt": "2021-07-29T03:56:14.044Z",
  "devdoc": {
    "kind": "dev",
    "methods": {},
    "version": 1
  },
  "userdoc": {
    "kind": "user",
    "methods": {},
    "version": 1
  }
}