{
  "contractName": "DealRoomHub",
  "abi": [
    {
      "anonymous": false,
      "inputs": [
        {
          "indexed": false,
          "internalType": "address",
          "name": "addr",
          "type": "address"
        }
      ],
      "name": "NewRoomEvent",
      "type": "event"
    },
    {
      "inputs": [
        {
          "internalType": "address",
          "name": "buyer",
          "type": "address"
        },
        {
          "internalType": "address",
          "name": "seller",
          "type": "address"
        }
      ],
      "name": "makeBasicRoom",
      "outputs": [
        {
          "internalType": "address",
          "name": "",
          "type": "address"
        }
      ],
      "stateMutability": "nonpayable",
      "type": "function"
    },
    {
      "inputs": [
        {
          "internalType": "address",
          "name": "buyer",
          "type": "address"
        },
        {
          "internalType": "address",
          "name": "seller",
          "type": "address"
        },
        {
          "internalType": "contract IERC20",
          "name": "_erc20",
          "type": "address"
        },
        {
          "internalType": "contract IERC721",
          "name": "_erc721",
          "type": "address"
        },
        {
          "internalType": "uint256",
          "name": "_price",
          "type": "uint256"
        },
        {
          "internalType": "uint256[]",
          "name": "_assetItems",
          "type": "uint256[]"
        }
      ],
      "name": "makeBasicRoomAndDeal",
      "outputs": [
        {
          "internalType": "address",
          "name": "",
          "type": "address"
        }
      ],
      "stateMutability": "nonpayable",
      "type": "function"
    },
    {
      "inputs": [
        {
          "components": [
            {
              "internalType": "address",
              "name": "buyer",
              "type": "address"
            },
            {
              "internalType": "address",
              "name": "seller",
              "type": "address"
            },
            {
              "internalType": "address",
              "name": "arbitrator",
              "type": "address"
            },
            {
              "internalType": "address",
              "name": "sensorApprover",
              "type": "address"
            },
            {
              "internalType": "address",
              "name": "docApprover",
              "type": "address"
            }
          ],
          "internalType": "struct DealRoomHub.MakeRoomParams",
          "name": "params",
          "type": "tuple"
        }
      ],
      "name": "makeRoom",
      "outputs": [
        {
          "internalType": "address",
          "name": "",
          "type": "address"
        }
      ],
      "stateMutability": "nonpayable",
      "type": "function"
    },
    {
      "inputs": [
        {
          "internalType": "address",
          "name": "_user",
          "type": "address"
        }
      ],
      "name": "getUserRooms",
      "outputs": [
        {
          "internalType": "address[]",
          "name": "",
          "type": "address[]"
        }
      ],
      "stateMutability": "view",
      "type": "function"
    },
    {
      "inputs": [],
      "name": "getAllRooms",
      "outputs": [
        {
          "internalType": "address[]",
          "name": "",
          "type": "address[]"
        }
      ],
      "stateMutability": "view",
      "type": "function"
    },
    {
      "inputs": [
        {
          "internalType": "address",
          "name": "addr",
          "type": "address"
        }
      ],
      "name": "getRoom",
      "outputs": [
        {
          "components": [
            {
              "internalType": "address",
              "name": "addr",
              "type": "address"
            },
            {
              "internalType": "address",
              "name": "buyer",
              "type": "address"
            },
            {
              "internalType": "address",
              "name": "seller",
              "type": "address"
            },
            {
              "internalType": "address",
              "name": "arbitrator",
              "type": "address"
            },
            {
              "internalType": "address",
              "name": "sensorApprover",
              "type": "address"
            },
            {
              "internalType": "address",
              "name": "docApprover",
              "type": "address"
            },
            {
              "internalType": "address",
              "name": "dealMultiSig",
              "type": "address"
            },
            {
              "internalType": "address",
              "name": "agentMultiSig",
              "type": "address"
            }
          ],
          "internalType": "struct DealRoomHub.DealRoomDetails",
          "name": "",
          "type": "tuple"
        }
      ],
      "stateMutability": "view",
      "type": "function"
    },
    {
      "inputs": [],
      "name": "roomCount",
      "outputs": [
        {
          "internalType": "uint256",
          "name": "",
          "type": "uint256"
        }
      ],
      "stateMutability": "view",
      "type": "function"
    },
    {
      "inputs": [
        {
          "internalType": "address",
          "name": "newOwner",
          "type": "address"
        }
      ],
      "name": "changeOwner",
      "outputs": [],
      "stateMutability": "nonpayable",
      "type": "function"
    }
  ],
  "bytecode": "0x608060405234801561001057600080fd5b50614fed806100206000396000f3fe60806040523480156200001157600080fd5b5060043610620000945760003560e01c8063df93a4e31162000063578063df93a4e3146200012d578063eb1f46821462000146578063ec6d1c02146200015d578063f794cf2d14620001745762000094565b80634966dc0f14620000995780635b45f68e14620000c8578063a6f9dae114620000ee578063b01e79611462000107575b600080fd5b620000b0620000aa36600462001055565b6200017e565b604051620000bf919062001495565b60405180910390f35b620000df620000d9366004620010b8565b6200020f565b604051620000bf9190620012be565b62000105620000ff36600462001055565b62000298565b005b6200011e6200011836600462001055565b620002f0565b604051620000bf9190620012ec565b6200013762000368565b604051620000bf919062001518565b620000df62000157366004620011c7565b6200036e565b620000df6200016e3660046200107b565b62000c9f565b6200011e62000f91565b6200018862000ff5565b506001600160a01b039081166000908152600260208181526040928390208351610100810185528154861681526001820154861692810192909252918201548416928101929092526003810154831660608301526004810154831660808301526005810154831660a08301526006810154831660c08301526007015490911660e082015290565b6000806200021e888862000c9f565b604051632216827760e11b815290915081906001600160a01b0382169063442d04ee9062000257908a908a908a908a9060040162001325565b600060405180830381600087803b1580156200027257600080fd5b505af115801562000287573d6000803e3d6000fd5b50939b9a5050505050505050505050565b6000546001600160a01b03163314620002ce5760405162461bcd60e51b8152600401620002c59062001471565b60405180910390fd5b600080546001600160a01b0319166001600160a01b0392909216919091179055565b6001600160a01b0381166000908152600160209081526040918290208054835181840281018401909452808452606093928301828280156200035c57602002820191906000526020600020905b81546001600160a01b031681526001909101906020018083116200033d575b50505050509050919050565b60035490565b60008082600001518360200151604051620003899062001039565b62000396929190620012d2565b604051809103906000f080158015620003b3573d6000803e3d6000fd5b5083519091506001600160a01b0316620003e15760405162461bcd60e51b8152600401620002c590620013bf565b60208301516001600160a01b03166200040e5760405162461bcd60e51b8152600401620002c59062001449565b60408301516001600160a01b03166200043b5760405162461bcd60e51b8152600401620002c5906200141d565b60608301516001600160a01b0316620004685760405162461bcd60e51b8152600401620002c590620013e6565b60808301516001600160a01b0316620004955760405162461bcd60e51b8152600401620002c59062001391565b6040805160038082526080820190925260009160208201606080368337019050509050836000015181600081518110620004df57634e487b7160e01b600052603260045260246000fd5b60200260200101906001600160a01b031690816001600160a01b0316815250508360200151816001815181106200052657634e487b7160e01b600052603260045260246000fd5b60200260200101906001600160a01b031690816001600160a01b0316815250508360400151816002815181106200056d57634e487b7160e01b600052603260045260246000fd5b60200260200101906001600160a01b031690816001600160a01b0316815250506000816002604051620005a09062001047565b620005ad92919062001301565b604051809103906000f080158015620005ca573d6000803e3d6000fd5b506040805160038082526080820190925291925060009190602082016060803683370190505090508560600151816000815181106200061957634e487b7160e01b600052603260045260246000fd5b60200260200101906001600160a01b031690816001600160a01b0316815250508560800151816001815181106200066057634e487b7160e01b600052603260045260246000fd5b60200260200101906001600160a01b031690816001600160a01b0316815250508181600281518110620006a357634e487b7160e01b600052603260045260246000fd5b60200260200101906001600160a01b031690816001600160a01b0316815250506000816003604051620006d69062001047565b620006e392919062001301565b604051809103906000f08015801562000700573d6000803e3d6000fd5b5060405163a6f9dae160e01b81529091506001600160a01b0386169063a6f9dae19062000732908490600401620012be565b600060405180830381600087803b1580156200074d57600080fd5b505af115801562000762573d6000803e3d6000fd5b505050506003859080600181540180825580915050600190039060005260206000200160009091909190916101000a8154816001600160a01b0302191690836001600160a01b031602179055506001600088600001516001600160a01b03166001600160a01b03168152602001908152602001600020859080600181540180825580915050600190039060005260206000200160009091909190916101000a8154816001600160a01b0302191690836001600160a01b031602179055506001600088602001516001600160a01b03166001600160a01b03168152602001908152602001600020859080600181540180825580915050600190039060005260206000200160009091909190916101000a8154816001600160a01b0302191690836001600160a01b031602179055506001600088604001516001600160a01b03166001600160a01b03168152602001908152602001600020859080600181540180825580915050600190039060005260206000200160009091909190916101000a8154816001600160a01b0302191690836001600160a01b031602179055506001600088606001516001600160a01b03166001600160a01b03168152602001908152602001600020859080600181540180825580915050600190039060005260206000200160009091909190916101000a8154816001600160a01b0302191690836001600160a01b031602179055506001600088608001516001600160a01b03166001600160a01b03168152602001908152602001600020859080600181540180825580915050600190039060005260206000200160009091909190916101000a8154816001600160a01b0302191690836001600160a01b031602179055508460026000876001600160a01b03166001600160a01b0316815260200190815260200160002060000160006101000a8154816001600160a01b0302191690836001600160a01b03160217905550866000015160026000876001600160a01b03166001600160a01b0316815260200190815260200160002060010160006101000a8154816001600160a01b0302191690836001600160a01b03160217905550866020015160026000876001600160a01b03166001600160a01b0316815260200190815260200160002060020160006101000a8154816001600160a01b0302191690836001600160a01b03160217905550866040015160026000876001600160a01b03166001600160a01b0316815260200190815260200160002060030160006101000a8154816001600160a01b0302191690836001600160a01b03160217905550866060015160026000876001600160a01b03166001600160a01b0316815260200190815260200160002060040160006101000a8154816001600160a01b0302191690836001600160a01b03160217905550866080015160026000876001600160a01b03166001600160a01b0316815260200190815260200160002060050160006101000a8154816001600160a01b0302191690836001600160a01b031602179055508060026000876001600160a01b03166001600160a01b0316815260200190815260200160002060060160006101000a8154816001600160a01b0302191690836001600160a01b031602179055508260026000876001600160a01b03166001600160a01b0316815260200190815260200160002060070160006101000a8154816001600160a01b0302191690836001600160a01b031602179055507f737c7ccf6d56ea889d48343f42ff5094f91b0ef3378198334723e3588f88c8f68560405162000c8c9190620012be565b60405180910390a1509295945050505050565b600080838360405162000cb29062001039565b62000cbf929190620012d2565b604051809103906000f08015801562000cdc573d6000803e3d6000fd5b5090506001600160a01b03841662000d085760405162461bcd60e51b8152600401620002c590620013bf565b6001600160a01b03831662000d315760405162461bcd60e51b8152600401620002c59062001449565b604080516002808252606082018352600092602083019080368337019050509050848160008151811062000d7557634e487b7160e01b600052603260045260246000fd5b60200260200101906001600160a01b031690816001600160a01b031681525050838160018151811062000db857634e487b7160e01b600052603260045260246000fd5b60200260200101906001600160a01b031690816001600160a01b031681525050600081600260405162000deb9062001047565b62000df892919062001301565b604051809103906000f08015801562000e15573d6000803e3d6000fd5b5060405163a6f9dae160e01b81529091506001600160a01b0384169063a6f9dae19062000e47908490600401620012be565b600060405180830381600087803b15801562000e6257600080fd5b505af115801562000e77573d6000803e3d6000fd5b50506003805460018082019092557fc2575a0e9e593c00f959f8c92f12db2869c3395a3b0502d05e2516446f71f85b0180546001600160a01b03199081166001600160a01b038981169182179093558b83166000818152602086815260408083208054808a0182559084528284200180548716861790558e87168084528184208054808b01825590855283852001805488168717905585845260029283905292819020805487169095178555968401805486169093179092559082018054841690911790556006018054909116918616919091179055517f737c7ccf6d56ea889d48343f42ff5094f91b0ef3378198334723e3588f88c8f6925062000f7f91508590620012be565b60405180910390a15090949350505050565b6060600380548060200260200160405190810160405280929190818152602001828054801562000feb57602002820191906000526020600020905b81546001600160a01b0316815260019091019060200180831162000fcc575b5050505050905090565b6040805161010081018252600080825260208201819052918101829052606081018290526080810182905260a0810182905260c0810182905260e081019190915290565b611773806200157e83390190565b6122c78062002cf183390190565b60006020828403121562001067578081fd5b8135620010748162001564565b9392505050565b600080604083850312156200108e578081fd5b82356200109b8162001564565b91506020830135620010ad8162001564565b809150509250929050565b60008060008060008060c08789031215620010d1578182fd5b8635620010de8162001564565b9550602087810135620010f18162001564565b95506040880135620011038162001564565b94506060880135620011158162001564565b93506080880135925060a088013567ffffffffffffffff8082111562001139578384fd5b818a0191508a601f8301126200114d578384fd5b8135818111156200116257620011626200154e565b83810291506200117484830162001521565b8181528481019084860184860187018f10156200118f578788fd5b8795505b83861015620011b357803583526001959095019491860191860162001193565b508096505050505050509295509295509295565b600060a08284031215620011d9578081fd5b60405160a0810181811067ffffffffffffffff82111715620011ff57620011ff6200154e565b60405282356200120f8162001564565b81526020830135620012218162001564565b60208201526040830135620012368162001564565b604082015260608301356200124b8162001564565b60608201526080830135620012608162001564565b60808201529392505050565b6001600160a01b03169052565b6000815180845260208085019450808401835b83811015620012b35781516001600160a01b0316875295820195908201906001016200128c565b509495945050505050565b6001600160a01b0391909116815260200190565b6001600160a01b0392831681529116602082015260400190565b60006020825262001074602083018462001279565b60006040825262001316604083018562001279565b90508260208301529392505050565b6001600160a01b03858116825284166020808301919091526040820184905260806060830181905283519083018190526000918481019160a085019190845b81811015620013825784518452938201939282019260010162001364565b50919998505050505050505050565b602080825260149082015273444f435f415050524f5645525f4d495353494e4760601b604082015260600190565b6020808252600d908201526c42555945525f4d495353494e4760981b604082015260600190565b60208082526017908201527f53454e534f525f415050524f5645525f4d495353494e47000000000000000000604082015260600190565b60208082526012908201527141524249545241544f525f4d495353494e4760701b604082015260600190565b6020808252600e908201526d53454c4c45525f4d495353494e4760901b604082015260600190565b6020808252600a908201526927a7262cafa7aba722a960b11b604082015260600190565b60006101008201905060018060a01b038084511683528060208501511660208401528060408501511660408401528060608501511660608401528060808501511660808401528060a08501511660a08401525060c0830151620014fc60c08401826200126c565b5060e08301516200151160e08401826200126c565b5092915050565b90815260200190565b60405181810167ffffffffffffffff811182821017156200154657620015466200154e565b604052919050565b634e487b7160e01b600052604160045260246000fd5b6001600160a01b03811681146200157a57600080fd5b5056fe608060405234801561001057600080fd5b506040516200177338038062001773833981016040819052610031916100ab565b600680546001600160a01b0393841661010002610100600160a81b031990911617905560078054919092166001600160a01b0319918216179091556000600481905560018054831633908117909155815490921690911790556100dd565b80516001600160a01b03811681146100a657600080fd5b919050565b600080604083850312156100bd578182fd5b6100c68361008f565b91506100d46020840161008f565b90509250929050565b61168680620000ed6000396000f3fe608060405234801561001057600080fd5b50600436106101375760003560e01c806382fd5bac116100b8578063a6f9dae11161007c578063a6f9dae114610245578063a719e10314610258578063bca6ce641461026b578063c698f53b14610273578063dbd0e1b614610293578063eadb3c9c1461029b57610137565b806382fd5bac146101ef578063893d20e81461020f5780638da5cb5b146102175780638df828001461021f5780639056b9721461023257610137565b80634a3a8383116100ff5780634a3a8383146101bc5780634d2d2c9d146101c4578063603daf9a146101d75780637150d8ae146101df578063785e9e86146101e757610137565b806302d05d3f1461013c57806303988f841461015a57806308551a531461017f5780633f35253a14610187578063442d04ee146101a7575b600080fd5b6101446102a3565b6040516101519190611333565b60405180910390f35b61016d6101683660046112ba565b6102b2565b60405161015196959493929190611595565b61014461030a565b61019a6101953660046112ba565b610319565b604051610151919061158c565b6101ba6101b53660046111d1565b6104af565b005b61019a610606565b61019a6101d23660046112ba565b61060c565b6101446107e8565b6101446107fc565b610144610810565b6102026101fd3660046112ba565b61081f565b60405161015191906114d9565b610144610952565b610144610961565b6101ba61022d3660046112ba565b610970565b6101ba6102403660046112ba565b610a47565b6101ba610253366004611172565b610bfe565b6101ba6102663660046112ea565b610c4a565b610144610f0e565b6102866102813660046112ba565b610f1d565b6040516101519190611384565b610144610fc8565b61019a610fd7565b6000546001600160a01b031681565b600581815481106102c257600080fd5b6000918252602090912060069091020180546001820154600283015460038401546005909401549294506001600160a01b039182169391169160ff8082169161010090041686565b6007546001600160a01b031681565b600081600160006103298361081f565b90508115158160c0015115151482610364576040518060400160405280600b81526020016a4445414c5f45584953545360a81b81525061038c565b6040518060400160405280600e81526020016d1111505317d393d517d193d5539160921b8152505b906103b35760405162461bcd60e51b81526004016103aa9190611398565b60405180910390fd5b5060006103bf8661081f565b905060038160a0015160038111156103e757634e487b7160e01b600052602160045260246000fd5b14156103f75760009450506104a7565b60208101516040516370a0823160e01b81526000916001600160a01b0316906370a082319061042a903090600401611333565b60206040518083038186803b15801561044257600080fd5b505afa158015610456573d6000803e3d6000fd5b505050506040513d601f19601f8201168201806040525081019061047a91906112d2565b905081606001518110610492576000955050506104a7565b8082606001516104a291906115da565b955050505b505050919050565b60056040518060e001604052806004548152602001866001600160a01b03168152602001856001600160a01b031681526020018481526020018381526020016001600381111561050f57634e487b7160e01b600052602160045260246000fd5b8152600160209182018190528354808201855560009485529382902083516006909502019384558282015190840180546001600160a01b039283166001600160a01b0319918216179091556040840151600286018054919093169116179055606082015160038401556080820151805192939261059292600485019201906110d6565b5060a082015160058201805460ff191660018360038111156105c457634e487b7160e01b600052602160045260246000fd5b021790555060c09190910151600590910180549115156101000261ff0019909216919091179055600480549060006105fb836115f1565b919050555050505050565b60045490565b6000816001600061061c8361081f565b90508115158160c0015115151482610657576040518060400160405280600b81526020016a4445414c5f45584953545360a81b81525061067f565b6040518060400160405280600e81526020016d1111505317d393d517d193d5539160921b8152505b9061069d5760405162461bcd60e51b81526004016103aa9190611398565b5060006106a98661081f565b905060038160a0015160038111156106d157634e487b7160e01b600052602160045260246000fd5b14156106e15760009450506104a7565b6000805b8260800151518110156107d657306001600160a01b031683604001516001600160a01b0316636352211e8560800151848151811061073357634e487b7160e01b600052603260045260246000fd5b60200260200101516040518263ffffffff1660e01b8152600401610757919061158c565b60206040518083038186803b15801561076f57600080fd5b505afa158015610783573d6000803e3d6000fd5b505050506040513d601f19601f820116820180604052508101906107a79190611195565b6001600160a01b031614156107c457816107c0816115f1565b9250505b806107ce816115f1565b9150506106e5565b50808260800151516104a291906115da565b60065461010090046001600160a01b031690565b60065461010090046001600160a01b031681565b6003546001600160a01b031681565b610827611121565b6005828154811061084857634e487b7160e01b600052603260045260246000fd5b60009182526020918290206040805160e08101825260069093029091018054835260018101546001600160a01b03908116848601526002820154168383015260038101546060840152600481018054835181870281018701909452808452939491936080860193928301828280156108df57602002820191906000526020600020905b8154815260200190600101908083116108cb575b5050509183525050600582015460209091019060ff16600381111561091457634e487b7160e01b600052602160045260246000fd5b600381111561093357634e487b7160e01b600052602160045260246000fd5b815260059190910154610100900460ff16151560209091015292915050565b6001546001600160a01b031690565b6001546001600160a01b031681565b80600061097c8261081f565b905060018160a0015160038111156109a457634e487b7160e01b600052602160045260246000fd5b146109c15760405162461bcd60e51b81526004016103aa906113eb565b6001546001600160a01b031633146109eb5760405162461bcd60e51b81526004016103aa90611488565b6109f48361060c565b15610a115760405162461bcd60e51b81526004016103aa906114ac565b610a1a83610319565b15610a375760405162461bcd60e51b81526004016103aa9061145b565b610a42836003610fdd565b505050565b8060016000610a558361081f565b90508115158160c0015115151482610a90576040518060400160405280600b81526020016a4445414c5f45584953545360a81b815250610ab8565b6040518060400160405280600e81526020016d1111505317d393d517d193d5539160921b8152505b90610ad65760405162461bcd60e51b81526004016103aa9190611398565b506000610ae28561081f565b905060038160a001516003811115610b0a57634e487b7160e01b600052602160045260246000fd5b1415610b3f576007546001600160a01b03163314610b3a5760405162461bcd60e51b81526004016103aa90611412565b610b6e565b60065461010090046001600160a01b03163314610b6e5760405162461bcd60e51b81526004016103aa90611437565b80602001516001600160a01b031663a9059cbb3383606001516040518363ffffffff1660e01b8152600401610ba492919061136b565b602060405180830381600087803b158015610bbe57600080fd5b505af1158015610bd2573d6000803e3d6000fd5b505050506040513d601f19601f82011682018060405250810190610bf691906111b1565b505050505050565b6001546001600160a01b03163314610c285760405162461bcd60e51b81526004016103aa90611488565b600180546001600160a01b0319166001600160a01b0392909216919091179055565b8160016000610c588361081f565b90508115158160c0015115151482610c93576040518060400160405280600b81526020016a4445414c5f45584953545360a81b815250610cbb565b6040518060400160405280600e81526020016d1111505317d393d517d193d5539160921b8152505b90610cd95760405162461bcd60e51b81526004016103aa9190611398565b506000610ce58661081f565b9050600060038260a001516003811115610d0f57634e487b7160e01b600052602160045260246000fd5b1415610d495760065461010090046001600160a01b03163314610d445760405162461bcd60e51b81526004016103aa90611437565b610d73565b6007546001600160a01b03163314610d735760405162461bcd60e51b81526004016103aa90611412565b60005b826080015151811015610f04578682108015610e4d5750306001600160a01b031683604001516001600160a01b0316636352211e85608001518481518110610dce57634e487b7160e01b600052603260045260246000fd5b60200260200101516040518263ffffffff1660e01b8152600401610df2919061158c565b60206040518083038186803b158015610e0a57600080fd5b505afa158015610e1e573d6000803e3d6000fd5b505050506040513d601f19601f82011682018060405250810190610e429190611195565b6001600160a01b0316145b15610ef25782604001516001600160a01b03166323b872dd303386608001518581518110610e8b57634e487b7160e01b600052603260045260246000fd5b60200260200101516040518463ffffffff1660e01b8152600401610eb193929190611347565b600060405180830381600087803b158015610ecb57600080fd5b505af1158015610edf573d6000803e3d6000fd5b505050508180610eee906115f1565b9250505b80610efc816115f1565b915050610d76565b5050505050505050565b6002546001600160a01b031681565b60008160016000610f2d8361081f565b90508115158160c0015115151482610f68576040518060400160405280600b81526020016a4445414c5f45584953545360a81b815250610f90565b6040518060400160405280600e81526020016d1111505317d393d517d193d5539160921b8152505b90610fae5760405162461bcd60e51b81526004016103aa9190611398565b506000610fba8661081f565b60a001519695505050505050565b6007546001600160a01b031690565b60045481565b8160016000610feb8361081f565b90508115158160c0015115151482611026576040518060400160405280600b81526020016a4445414c5f45584953545360a81b81525061104e565b6040518060400160405280600e81526020016d1111505317d393d517d193d5539160921b8152505b9061106c5760405162461bcd60e51b81526004016103aa9190611398565b50836005868154811061108f57634e487b7160e01b600052603260045260246000fd5b60009182526020909120600560069092020101805460ff191660018360038111156110ca57634e487b7160e01b600052602160045260246000fd5b02179055505050505050565b828054828255906000526020600020908101928215611111579160200282015b828111156111115782518255916020019190600101906110f6565b5061111d92915061115d565b5090565b6040805160e081018252600080825260208201819052918101829052606080820183905260808201529060a08201908152600060209091015290565b5b8082111561111d576000815560010161115e565b600060208284031215611183578081fd5b813561118e81611638565b9392505050565b6000602082840312156111a6578081fd5b815161118e81611638565b6000602082840312156111c2578081fd5b8151801515811461118e578182fd5b600080600080608085870312156111e6578283fd5b84356111f181611638565b935060208581013561120281611638565b935060408601359250606086013567ffffffffffffffff80821115611225578384fd5b818801915088601f830112611238578384fd5b81358181111561124a5761124a611622565b8381026040518582820101818110858211171561126957611269611622565b604052828152858101935084860182860187018d1015611287578788fd5b8795505b838610156112a957803585526001959095019493860193860161128b565b50989b979a50959850505050505050565b6000602082840312156112cb578081fd5b5035919050565b6000602082840312156112e3578081fd5b5051919050565b600080604083850312156112fc578182fd5b50508035926020909101359150565b15159052565b6004811061132f57634e487b7160e01b600052602160045260246000fd5b9052565b6001600160a01b0391909116815260200190565b6001600160a01b039384168152919092166020820152604081019190915260600190565b6001600160a01b03929092168252602082015260400190565b602081016113928284611311565b92915050565b6000602080835283518082850152825b818110156113c4578581018301518582016040015282016113a8565b818111156113d55783604083870101525b50601f01601f1916929092016040019392505050565b6020808252600d908201526c2222a0a62fa727aa2fa7a822a760991b604082015260600190565b6020808252600b908201526a53454c4c45525f4f4e4c5960a81b604082015260600190565b6020808252600a908201526942555945525f4f4e4c5960b01b604082015260600190565b6020808252601390820152724445414c5f544f4b454e535f4d495353494e4760681b604082015260600190565b6020808252600a908201526927a7262cafa7aba722a960b11b604082015260600190565b6020808252601390820152724445414c5f4153534554535f4d495353494e4760681b604082015260600190565b6020808252825182820152828101516001600160a01b039081166040808501919091528401511660608084019190915283015160808084019190915283015160e060a0840152805161010084018190526000929182019083906101208601905b808310156115595783518252928401926001929092019190840190611539565b5060a0870151935061156e60c0870185611311565b60c0870151935061158260e087018561130b565b9695505050505050565b90815260200190565b8681526001600160a01b038681166020830152851660408201526060810184905260c081016115c76080830185611311565b82151560a0830152979650505050505050565b6000828210156115ec576115ec61160c565b500390565b60006000198214156116055761160561160c565b5060010190565b634e487b7160e01b600052601160045260246000fd5b634e487b7160e01b600052604160045260246000fd5b6001600160a01b038116811461164d57600080fd5b5056fea26469706673582212209b2a1b1c887c7973671ab07de311fe341e38ff5a43506896b091162c7aad091564736f6c6343000800003360806040523480156200001157600080fd5b50604051620022c7380380620022c783398101604081905262000034916200028f565b81518160328211158015620000495750818111155b80156200005557508015155b80156200006157508115155b620000895760405162461bcd60e51b8152600401620000809062000365565b60405180910390fd5b60005b8451811015620001ce5760026000868381518110620000bb57634e487b7160e01b600052603260045260246000fd5b6020908102919091018101516001600160a01b031682528101919091526040016000205460ff1615620001025760405162461bcd60e51b815260040162000080906200039c565b60006001600160a01b03168582815181106200012e57634e487b7160e01b600052603260045260246000fd5b60200260200101516001600160a01b03161415620001605760405162461bcd60e51b81526004016200008090620003c6565b6001600260008784815181106200018757634e487b7160e01b600052603260045260246000fd5b6020908102919091018101516001600160a01b03168252810191909152604001600020805460ff191691151591909117905580620001c581620003ef565b9150506200008c565b508351620001e4906004906020870190620001f1565b505050600555506200042d565b82805482825590600052602060002090810192821562000249579160200282015b828111156200024957825182546001600160a01b0319166001600160a01b0390911617825560209092019160019091019062000212565b50620002579291506200025b565b5090565b5b808211156200025757600081556001016200025c565b80516001600160a01b03811681146200028a57600080fd5b919050565b60008060408385031215620002a2578182fd5b82516001600160401b0380821115620002b9578384fd5b818501915085601f830112620002cd578384fd5b8151602082821115620002e457620002e462000417565b8082026040518282820101818110868211171562000306576200030662000417565b604052838152828101945085830182870184018b101562000325578889fd5b8896505b8487101562000352576200033d8162000272565b86526001969096019594830194830162000329565b5097909101519698969750505050505050565b60208082526013908201527f696e76616c696420726571756972656d656e7400000000000000000000000000604082015260600190565b60208082526010908201526f34b99030b63932b0b23c9037bbb732b960811b604082015260600190565b6020808252600f908201526e6973206e756c6c206164647265737360881b604082015260600190565b60006000198214156200041057634e487b7160e01b81526011600452602481fd5b5060010190565b634e487b7160e01b600052604160045260246000fd5b611e8a806200043d6000396000f3fe60806040526004361061014f5760003560e01c8063969f8a83116100b6578063c64274741161006f578063c642747414610467578063c69ed5f214610487578063d74f8edd146104a7578063dc8452cd146104bc578063e20056e6146104d1578063f3fc536d146104f15761019e565b8063969f8a83146103b0578063a0e67e2b146103dd578063a96bf00c146103f2578063b77bf60014610412578063ba51a6df14610427578063bdfd2793146104475761019e565b8063501895ae11610108578063501895ae146102de578063642f2eaf146102fe5780636486aa51146103305780637065cb481461035057806379716e4314610370578063915c219e146103905761019e565b8063025e7c27146101dd5780630c4ecab414610213578063113642e514610240578063173825d91461026d5780632f54bf6e1461028d5780634aae13ca146102ad5761019e565b3661019e57341561019c57336001600160a01b03167fe1fffcc4923d04b559f4d29a8bfc6cda04eb5b0d3c460751c2402c5c5cc9109c346040516101939190611bae565b60405180910390a25b005b341561019c57336001600160a01b03167fe1fffcc4923d04b559f4d29a8bfc6cda04eb5b0d3c460751c2402c5c5cc9109c346040516101939190611bae565b3480156101e957600080fd5b506101fd6101f8366004611a58565b610511565b60405161020a9190611afd565b60405180910390f35b34801561021f57600080fd5b5061023361022e366004611a70565b61053b565b60405161020a9190611ba3565b34801561024c57600080fd5b5061026061025b366004611a58565b61055b565b60405161020a9190611bae565b34801561027957600080fd5b5061019c610288366004611948565b6105ef565b34801561029957600080fd5b506102336102a8366004611948565b61080d565b3480156102b957600080fd5b506102cd6102c8366004611a58565b610822565b60405161020a959493929190611bb7565b3480156102ea57600080fd5b506102606102f9366004611a58565b61093d565b34801561030a57600080fd5b5061031e610319366004611a58565b61094f565b60405161020a96959493929190611b11565b34801561033c57600080fd5b5061023361034b366004611a58565b610a1c565b34801561035c57600080fd5b5061019c61036b366004611948565b610ac8565b34801561037c57600080fd5b5061019c61038b366004611a58565b610c2d565b34801561039c57600080fd5b506102606103ab36600461199b565b610d1d565b3480156103bc57600080fd5b506103d06103cb366004611a58565b610d32565b60405161020a9190611b56565b3480156103e957600080fd5b506103d0610f6c565b3480156103fe57600080fd5b5061023361040d366004611a70565b610fce565b34801561041e57600080fd5b50610260610ff9565b34801561043357600080fd5b5061019c610442366004611a58565b610fff565b34801561045357600080fd5b506102cd610462366004611a58565b6110a7565b34801561047357600080fd5b5061026061048236600461199b565b6111d3565b34801561049357600080fd5b5061019c6104a2366004611a58565b6111e0565b3480156104b357600080fd5b506102606113dc565b3480156104c857600080fd5b506102606113e1565b3480156104dd57600080fd5b5061019c6104ec366004611969565b6113e7565b3480156104fd57600080fd5b5061019c61050c366004611a58565b6115cf565b6004818154811061052157600080fd5b6000918252602090912001546001600160a01b0316905081565b600160209081526000928352604080842090915290825290205460ff1681565b6000805b6004548110156105e9576000838152600160205260408120600480549192918490811061059c57634e487b7160e01b600052603260045260246000fd5b60009182526020808320909101546001600160a01b0316835282019290925260400190205460ff16156105d7576105d4600183611d79565b91505b806105e181611e0d565b91505061055f565b50919050565b3330146106175760405162461bcd60e51b815260040161060e90611d24565b60405180910390fd5b6001600160a01b038116600090815260026020526040902054819060ff166106515760405162461bcd60e51b815260040161060e90611cf6565b6001600160a01b0382166000908152600260205260408120805460ff191690555b60045461068190600190611d91565b81101561077b57826001600160a01b0316600482815481106106b357634e487b7160e01b600052603260045260246000fd5b6000918252602090912001546001600160a01b0316141561076957600480546106de90600190611d91565b815481106106fc57634e487b7160e01b600052603260045260246000fd5b600091825260209091200154600480546001600160a01b03909216918390811061073657634e487b7160e01b600052603260045260246000fd5b9060005260206000200160006101000a8154816001600160a01b0302191690836001600160a01b0316021790555061077b565b8061077381611e0d565b915050610672565b50600480548061079b57634e487b7160e01b600052603160045260246000fd5b600082815260209020810160001990810180546001600160a01b031916905501905560045460055411156107d5576004546107d590610fff565b6040516001600160a01b038316907f8001553a916ef2f495d26a907cc54d96ed840d7bda71e73194bf5a9df7a76b9090600090a25050565b60026020526000908152604090205460ff1681565b600081815260208181526040808320815160c08101835281546001600160a01b031681526001820154938101939093526002810180546060948694859485948594919284019161087190611dd8565b80601f016020809104026020016040519081016040528092919081815260200182805461089d90611dd8565b80156108ea5780601f106108bf576101008083540402835291602001916108ea565b820191906000526020600020905b8154815290600101906020018083116108cd57829003601f168201915b5050509183525050600382015460ff1615156020820152600482015460408083019190915260059092015460609182015290820151825191830151608090930151999a9099919850919650945092505050565b60036020526000908152604090205481565b6000602081905290815260409020805460018201546002830180546001600160a01b0390931693919261098190611dd8565b80601f01602080910402602001604051908101604052809291908181526020018280546109ad90611dd8565b80156109fa5780601f106109cf576101008083540402835291602001916109fa565b820191906000526020600020905b8154815290600101906020018083116109dd57829003601f168201915b5050505060038301546004840154600590940154929360ff9091169290915086565b600080805b600454811015610ac05760008481526001602052604081206004805491929184908110610a5e57634e487b7160e01b600052603260045260246000fd5b60009182526020808320909101546001600160a01b0316835282019290925260400190205460ff1615610a9957610a96600183611d79565b91505b600554821415610aae57600192505050610ac3565b80610ab881611e0d565b915050610a21565b50505b919050565b333014610ae75760405162461bcd60e51b815260040161060e90611d24565b6001600160a01b038116600090815260026020526040902054819060ff1615610b225760405162461bcd60e51b815260040161060e90611c52565b816001600160a01b038116610b495760405162461bcd60e51b815260040161060e90611ca1565b600454610b57906001611d79565b60055460328211158015610b6b5750818111155b8015610b7657508015155b8015610b8157508115155b610b9d5760405162461bcd60e51b815260040161060e90611bf6565b6001600160a01b038516600081815260026020526040808220805460ff1916600190811790915560048054918201815583527f8a35acfbc15ff81a39ae7d344fd709f28e8600b4aa8c65c6b64bfe7fe36bd19b0180546001600160a01b03191684179055517ff39e6e1eb0edcf53c221607b54b00cd28f3196fed0a24994dc308b8f611b682d9190a25050505050565b3360008181526002602052604090205460ff16610c5c5760405162461bcd60e51b815260040161060e90611cf6565b81610c66816116be565b610c825760405162461bcd60e51b815260040161060e90611ccc565b60008381526001602090815260408083203380855292529091205484919060ff1615610cc05760405162461bcd60e51b815260040161060e90611d49565b6000858152600160208181526040808420338086529252808420805460ff1916909317909255905187927fe1c52dc63b719ade82e8bea94cc41a0d5d28e4aaf536adb5e9cccc9ff8c1aeda91a3610d16856111e0565b5050505050565b6000610d2a8484846116db565b949350505050565b60045460609060009067ffffffffffffffff811115610d6157634e487b7160e01b600052604160045260246000fd5b604051908082528060200260200182016040528015610d8a578160200160208202803683370190505b5090506000805b600454811015610e925760008581526001602052604081206004805491929184908110610dce57634e487b7160e01b600052603260045260246000fd5b60009182526020808320909101546001600160a01b0316835282019290925260400190205460ff1615610e805760048181548110610e1c57634e487b7160e01b600052603260045260246000fd5b9060005260206000200160009054906101000a90046001600160a01b0316838381518110610e5a57634e487b7160e01b600052603260045260246000fd5b6001600160a01b0390921660209283029190910190910152610e7d600183611d79565b91505b80610e8a81611e0d565b915050610d91565b8167ffffffffffffffff811115610eb957634e487b7160e01b600052604160045260246000fd5b604051908082528060200260200182016040528015610ee2578160200160208202803683370190505b509350600090505b81811015610f6457828181518110610f1257634e487b7160e01b600052603260045260246000fd5b6020026020010151848281518110610f3a57634e487b7160e01b600052603260045260246000fd5b6001600160a01b039092166020928302919091019091015280610f5c81611e0d565b915050610eea565b505050919050565b60606004805480602002602001604051908101604052809291908181526020018280548015610fc457602002820191906000526020600020905b81546001600160a01b03168152600190910190602001808311610fa6575b5050505050905090565b60009182526001602090815260408084206001600160a01b0393909316845291905290205460ff1690565b60065481565b33301461101e5760405162461bcd60e51b815260040161060e90611d24565b60045481603282118015906110335750818111155b801561103e57508015155b801561104957508115155b6110655760405162461bcd60e51b815260040161060e90611bf6565b60058390556040517fa3f1ee9126a074d9326c682f561767f710e927faa811f7a99829d49dc421797a9061109a908590611bae565b60405180910390a1505050565b6000818152600360209081526040808320548352828252808320815160c08101835281546001600160a01b031681526001820154938101939093526002810180546060948694859485948594919284019161110190611dd8565b80601f016020809104026020016040519081016040528092919081815260200182805461112d90611dd8565b801561117a5780601f1061114f5761010080835404028352916020019161117a565b820191906000526020600020905b81548152906001019060200180831161115d57829003601f168201915b5050509183525050600382015460ff1615156020820152600482015460408083019190915260059092015460609182015260a083015191830151835191840151608090940151929b909a50909850919650945092505050565b6000610d2a848484611711565b3360008181526002602052604090205460ff1661120f5760405162461bcd60e51b815260040161060e90611cf6565b60008281526001602090815260408083203380855292529091205483919060ff1661124c5760405162461bcd60e51b815260040161060e90611c78565b600084815260208190526040902060030154849060ff16156112805760405162461bcd60e51b815260040161060e90611c23565b61128985610a1c565b15610d1657600085815260208190526040902060038101805460ff19166001908117909155815490820154600283018054611367936001600160a01b03169291906112d390611dd8565b90508460020180546112e490611dd8565b80601f016020809104026020016040519081016040528092919081815260200182805461131090611dd8565b801561135d5780601f106113325761010080835404028352916020019161135d565b820191906000526020600020905b81548152906001019060200180831161134057829003601f168201915b5050505050611875565b1561139c5760405186907f7e9e1cb65db4927b1815f498cbaa226a15c277816f7df407573682110522c9b190600090a26113d4565b60405186907fdbe42d02a4e07d7eeff2874efe172540c93b297d206f6d691c9782a257323e3290600090a260038101805460ff191690555b505050505050565b603281565b60055481565b3330146114065760405162461bcd60e51b815260040161060e90611d24565b6001600160a01b038216600090815260026020526040902054829060ff166114405760405162461bcd60e51b815260040161060e90611cf6565b6001600160a01b038216600090815260026020526040902054829060ff161561147b5760405162461bcd60e51b815260040161060e90611c52565b60005b60045481101561153557846001600160a01b0316600482815481106114b357634e487b7160e01b600052603260045260246000fd5b6000918252602090912001546001600160a01b031614156115235783600482815481106114f057634e487b7160e01b600052603260045260246000fd5b9060005260206000200160006101000a8154816001600160a01b0302191690836001600160a01b03160217905550611535565b8061152d81611e0d565b91505061147e565b506001600160a01b03808516600081815260026020526040808220805460ff1990811690915593871682528082208054909416600117909355915190917f8001553a916ef2f495d26a907cc54d96ed840d7bda71e73194bf5a9df7a76b9091a26040516001600160a01b038416907ff39e6e1eb0edcf53c221607b54b00cd28f3196fed0a24994dc308b8f611b682d90600090a250505050565b3360008181526002602052604090205460ff166115fe5760405162461bcd60e51b815260040161060e90611cf6565b60008281526001602090815260408083203380855292529091205483919060ff1661163b5760405162461bcd60e51b815260040161060e90611c78565b600084815260208190526040902060030154849060ff161561166f5760405162461bcd60e51b815260040161060e90611c23565b6000858152600160209081526040808320338085529252808320805460ff191690555187927f9aec1a62b961581534d37fd62d35e3648f05a17b1f986eda1d1a9d97b147840691a35050505050565b6000908152602081905260409020546001600160a01b0316151590565b60008383836040516020016116f293929190611abe565b6040516020818303038152906040528051906020012090509392505050565b6000836001600160a01b03811661173a5760405162461bcd60e51b815260040161060e90611ca1565b6117458585856116db565b9150611750826116be565b611864576040805160c0810182526001600160a01b038781168252602080830188815283850188815260006060860181905242608087015260a0860189905288815280845295909520845181546001600160a01b031916941693909317835551600183015592518051929391926117cd9260028501920190611898565b5060608201516003828101805460ff1916921515929092179091556080830151600483015560a09092015160059091015560068054600090815260209290925260408220849055805460019290611825908490611d79565b90915550611834905082610c2d565b60405182907f1b15da2a2b1f440c8fb970f04466e7ccd3a8215634645d232bbc23c75785b5bb90600090a261186d565b61186d82610c2d565b509392505050565b6000806040516020840160008287838a8c6187965a03f198975050505050505050565b8280546118a490611dd8565b90600052602060002090601f0160209004810192826118c6576000855561190c565b82601f106118df57805160ff191683800117855561190c565b8280016001018555821561190c579182015b8281111561190c5782518255916020019190600101906118f1565b5061191892915061191c565b5090565b5b80821115611918576000815560010161191d565b80356001600160a01b0381168114610ac357600080fd5b600060208284031215611959578081fd5b61196282611931565b9392505050565b6000806040838503121561197b578081fd5b61198483611931565b915061199260208401611931565b90509250929050565b6000806000606084860312156119af578081fd5b6119b884611931565b92506020808501359250604085013567ffffffffffffffff808211156119dc578384fd5b818701915087601f8301126119ef578384fd5b813581811115611a0157611a01611e3e565b604051601f8201601f1916810185018381118282101715611a2457611a24611e3e565b60405281815283820185018a1015611a3a578586fd5b81858501868301378585838301015280955050505050509250925092565b600060208284031215611a69578081fd5b5035919050565b60008060408385031215611a82578182fd5b8235915061199260208401611931565b60008151808452611aaa816020860160208601611da8565b601f01601f19169290920160200192915050565b60006bffffffffffffffffffffffff198560601b1682528360148301528251611aee816034850160208701611da8565b91909101603401949350505050565b6001600160a01b0391909116815260200190565b600060018060a01b038816825286602083015260c06040830152611b3860c0830187611a92565b941515606083015250608081019290925260a0909101529392505050565b6020808252825182820181905260009190848201906040850190845b81811015611b975783516001600160a01b031683529284019291840191600101611b72565b50909695505050505050565b901515815260200190565b90815260200190565b600086825260a06020830152611bd060a0830187611a92565b6001600160a01b0395909516604083015250911515606083015260809091015292915050565b6020808252601390820152721a5b9d985b1a59081c995c5d5a5c995b595b9d606a1b604082015260600190565b6020808252601590820152740e881d1e08185b1c9958591e48195e1958dd5d1959605a1b604082015260600190565b6020808252600c908201526b4f776e65722065786973747360a01b604082015260600190565b6020808252600f908201526e0e881b9bdd0818dbdb999a5c9b5959608a1b604082015260600190565b6020808252601190820152700e881859191c995cdcc81a5cc81b9d5b1b607a1b604082015260600190565b60208082526010908201526f151e08191bd95cdb89dd08195e1a5cdd60821b604082015260600190565b60208082526014908201527313dddb995c88191bd95cc81b9bdd08195e1a5cdd60621b604082015260600190565b6020808252600b908201526a13db9b1e481dd85b1b195d60aa1b604082015260600190565b6020808252601690820152750e881a5cc8185b1c9958591e4818dbdb999a5c9b595960521b604082015260600190565b60008219821115611d8c57611d8c611e28565b500190565b600082821015611da357611da3611e28565b500390565b60005b83811015611dc3578181015183820152602001611dab565b83811115611dd2576000848401525b50505050565b600281046001821680611dec57607f821691505b602082108114156105e957634e487b7160e01b600052602260045260246000fd5b6000600019821415611e2157611e21611e28565b5060010190565b634e487b7160e01b600052601160045260246000fd5b634e487b7160e01b600052604160045260246000fdfea2646970667358221220c9ac19027e972cfcfcf262d56d0821d15bbbee6d804bbf82d42d9fe13500151164736f6c63430008000033a2646970667358221220ec64d30d5237a47f66626cfdf55c12a0c9f0577a97916241825f1573a0bd0e0864736f6c63430008000033",
  "immutableReferences": {},
  "source": "// SPDX-License-Identifier: MIT\npragma experimental ABIEncoderV2;\npragma solidity ^0.8.0;\n\nimport \"./DealRoom.sol\";\nimport \"./multisig/MultiSigHashed.sol\";\n\ncontract DealRoomHub {\n    address owner;\n\n    struct DealRoomDetails {\n        address addr;\n        address buyer;\n        address seller;\n        address arbitrator;\n        address sensorApprover;\n        address docApprover;\n        address dealMultiSig;\n        address agentMultiSig;\n    }\n\n    mapping (address => address[]) private roomsByUser;\n    mapping (address => DealRoomDetails) private roomDetailsByAddress;\n\n    address[] private rooms;\n\n    struct MakeRoomParams {\n        address buyer;\n        address seller;\n        address arbitrator;\n        address sensorApprover;\n        address docApprover;\n    }\n\n    event NewRoomEvent(\n        address addr\n    );\n\n    function makeBasicRoom(address buyer, address seller) public returns (address) {\n        DealRoom room = new DealRoom(buyer, seller);\n        require(buyer != address(0), \"BUYER_MISSING\");\n        require(seller != address(0), \"SELLER_MISSING\");   \n\n        //Make a Main multisig, 2/2 with Agents\n        address[] memory mainSignatories = new address[](2);\n        mainSignatories[0] = buyer;\n        mainSignatories[1] = seller; \n        MultiSigHashed dealMultiSig = new MultiSigHashed(mainSignatories, 2);   \n\n        //Give the room to the Multisig\n        room.changeOwner(address(dealMultiSig));\n\n        //===Record room details (without upsetting the compiler)\n        //Add to list\n        rooms.push(address(room));\n        //Index by buyer and seller\n        roomsByUser[buyer].push(address(room));\n        roomsByUser[seller].push(address(room));\n\n        //Index by address\n        roomDetailsByAddress[address(room)].addr = address(room);\n        roomDetailsByAddress[address(room)].buyer = buyer;\n        roomDetailsByAddress[address(room)].seller = seller;\n        roomDetailsByAddress[address(room)].dealMultiSig = address(dealMultiSig);\n\n        emit NewRoomEvent(address(room));\n\n        return address(room);\n    }\n\n    // Combine two transactions into one\n    // Make a basic room, then create a deal\n    function makeBasicRoomAndDeal(\n        address buyer,\n        address seller,\n        IERC20 _erc20,\n        IERC721 _erc721,\n        uint256 _price,\n        uint256[] memory _assetItems\n    ) public returns (address) {\n        address addr = makeBasicRoom(buyer, seller);\n        DealRoom room = DealRoom(addr);\n        room.makeDeal(_erc20, _erc721, _price, _assetItems);\n        return addr;\n    }\n\n    function makeRoom(MakeRoomParams memory params) public returns (address) {\n        DealRoom room = new DealRoom(params.buyer, params.seller);\n        require(params.buyer != address(0), \"BUYER_MISSING\");\n        require(params.seller != address(0), \"SELLER_MISSING\");\n        require(params.arbitrator != address(0), \"ARBITRATOR_MISSING\");\n        require(params.sensorApprover != address(0), \"SENSOR_APPROVER_MISSING\");\n        require(params.docApprover != address(0), \"DOC_APPROVER_MISSING\");\n\n        //Make an Agents multisig, 2/3 with Buyer, Seller, Arbitrator\n        address[] memory agents = new address[](3);\n        agents[0] = params.buyer;\n        agents[1] = params.seller;\n        agents[2] = params.arbitrator; \n        MultiSigHashed agentMultiSig = new MultiSigHashed(agents, 2);\n        \n        //Make a Main multisig, 3/3 with Agents, DocApprover, SensorApprover\n        address[] memory mainSignatories = new address[](3);\n        mainSignatories[0] = params.sensorApprover;\n        mainSignatories[1] = params.docApprover; \n        mainSignatories[2] = address(agentMultiSig);  \n        MultiSigHashed dealMultiSig = new MultiSigHashed(mainSignatories, 3);\n        \n        //Give the room to the Main Multisig\n        room.changeOwner(address(dealMultiSig));\n\n        //===Record room details (without upsetting the compiler)\n        //Add to list\n        rooms.push(address(room));\n        //Index by buyer and seller\n        roomsByUser[params.buyer].push(address(room));\n        roomsByUser[params.seller].push(address(room));\n        roomsByUser[params.arbitrator].push(address(room));\n        roomsByUser[params.sensorApprover].push(address(room));\n        roomsByUser[params.docApprover].push(address(room));\n\n        //Index by address\n        roomDetailsByAddress[address(room)].addr = address(room);\n        roomDetailsByAddress[address(room)].buyer = params.buyer;\n        roomDetailsByAddress[address(room)].seller = params.seller;\n        roomDetailsByAddress[address(room)].arbitrator = params.arbitrator;        \n        roomDetailsByAddress[address(room)].sensorApprover = params.sensorApprover;\n        roomDetailsByAddress[address(room)].docApprover = params.docApprover;\n        roomDetailsByAddress[address(room)].dealMultiSig = address(dealMultiSig);\n        roomDetailsByAddress[address(room)].agentMultiSig = address(agentMultiSig);\n\n        emit NewRoomEvent(address(room));\n\n        return address(room);\n    }\n\n    function getUserRooms(address _user) public view returns(address[] memory) {\n        return roomsByUser[_user];\n    }\n    function getAllRooms() public view returns(address[] memory) {\n        return rooms;\n    }\n    function getRoom(address addr) public view returns (DealRoomDetails memory) {\n        return roomDetailsByAddress[addr];\n    }\n    function roomCount() public view returns (uint) {\n        return rooms.length;\n    }\n\n    modifier roomExists(\n        address addr,\n        bool mustExist\n    ) {\n        DealRoomDetails memory roomDetails = getRoom(addr);\n        if (mustExist) {\n            //Room must exist\n            require(roomDetails.addr != address(0), \"ROOM_NOT_FOUND\");\n        } else {\n            //Room must not already exist\n            require(roomDetails.addr == address(0), \"ROOM_EXISTS\");\n        }\n        _;\n    }\n\n    function changeOwner(address newOwner) public isOwner() {\n        owner = newOwner;\n    }\n\n    modifier isOwner() {\n        require(msg.sender == owner, \"ONLY_OWNER\");\n        _;\n    }\n}\n",
  "sourcePath": "/projects/dealrooms/ethereum/contracts/DealRoomHub.sol",
  "compiler": {
    "name": "solc",
    "version": "0.8.0+commit.c7dfd78e.Emscripten.clang"
  },
  "schemaVersion": "3.4.1",
  "updatedAt": "2021-06-18T05:21:55.385Z",
  "devdoc": {
    "kind": "dev",
    "methods": {},
    "version": 1
  },
  "userdoc": {
    "kind": "user",
    "methods": {},
    "version": 1
  }
}