{
  "contractName": "DealRoom",
  "abi": [
    {
      "inputs": [
        {
          "internalType": "address",
          "name": "_buyer",
          "type": "address"
        },
        {
          "internalType": "address",
          "name": "_seller",
          "type": "address"
        }
      ],
      "stateMutability": "nonpayable",
      "type": "constructor"
    },
    {
      "anonymous": false,
      "inputs": [
        {
          "indexed": false,
          "internalType": "uint256",
          "name": "dealId",
          "type": "uint256"
        },
        {
          "indexed": false,
          "internalType": "uint256",
          "name": "amount",
          "type": "uint256"
        }
      ],
      "name": "DealAssetsWithdrawn",
      "type": "event"
    },
    {
      "anonymous": false,
      "inputs": [
        {
          "indexed": false,
          "internalType": "uint256",
          "name": "dealId",
          "type": "uint256"
        }
      ],
      "name": "DealCanceled",
      "type": "event"
    },
    {
      "anonymous": false,
      "inputs": [
        {
          "indexed": false,
          "internalType": "uint256",
          "name": "dealId",
          "type": "uint256"
        }
      ],
      "name": "DealCoinsWithdrawn",
      "type": "event"
    },
    {
      "anonymous": false,
      "inputs": [
        {
          "indexed": false,
          "internalType": "uint256",
          "name": "dealId",
          "type": "uint256"
        }
      ],
      "name": "DealCreated",
      "type": "event"
    },
    {
      "anonymous": false,
      "inputs": [
        {
          "indexed": false,
          "internalType": "uint256",
          "name": "dealId",
          "type": "uint256"
        }
      ],
      "name": "DealSettled",
      "type": "event"
    },
    {
      "anonymous": false,
      "inputs": [
        {
          "indexed": false,
          "internalType": "bytes32",
          "name": "message",
          "type": "bytes32"
        },
        {
          "indexed": false,
          "internalType": "uint256",
          "name": "num",
          "type": "uint256"
        }
      ],
      "name": "Debug",
      "type": "event"
    },
    {
      "inputs": [],
      "name": "buyer",
      "outputs": [
        {
          "internalType": "address",
          "name": "",
          "type": "address"
        }
      ],
      "stateMutability": "view",
      "type": "function"
    },
    {
      "inputs": [],
      "name": "creator",
      "outputs": [
        {
          "internalType": "address",
          "name": "",
          "type": "address"
        }
      ],
      "stateMutability": "view",
      "type": "function"
    },
    {
      "inputs": [],
      "name": "dealCount",
      "outputs": [
        {
          "internalType": "uint256",
          "name": "",
          "type": "uint256"
        }
      ],
      "stateMutability": "view",
      "type": "function"
    },
    {
      "inputs": [
        {
          "internalType": "uint256",
          "name": "",
          "type": "uint256"
        }
      ],
      "name": "deals",
      "outputs": [
        {
          "internalType": "uint256",
          "name": "id",
          "type": "uint256"
        },
        {
          "internalType": "contract IERC20",
          "name": "erc20",
          "type": "address"
        },
        {
          "internalType": "contract IERC721",
          "name": "erc721",
          "type": "address"
        },
        {
          "internalType": "uint256",
          "name": "price",
          "type": "uint256"
        },
        {
          "internalType": "enum DealRoom.DealStatus",
          "name": "status",
          "type": "uint8"
        },
        {
          "internalType": "bool",
          "name": "valid",
          "type": "bool"
        }
      ],
      "stateMutability": "view",
      "type": "function"
    },
    {
      "inputs": [],
      "name": "owner",
      "outputs": [
        {
          "internalType": "address",
          "name": "",
          "type": "address"
        }
      ],
      "stateMutability": "view",
      "type": "function"
    },
    {
      "inputs": [],
      "name": "seller",
      "outputs": [
        {
          "internalType": "address",
          "name": "",
          "type": "address"
        }
      ],
      "stateMutability": "view",
      "type": "function"
    },
    {
      "inputs": [
        {
          "internalType": "contract IERC20",
          "name": "_erc20",
          "type": "address"
        },
        {
          "internalType": "contract IERC721",
          "name": "_erc721",
          "type": "address"
        },
        {
          "internalType": "uint256",
          "name": "_price",
          "type": "uint256"
        },
        {
          "internalType": "uint256[]",
          "name": "_assetItems",
          "type": "uint256[]"
        }
      ],
      "name": "makeDeal",
      "outputs": [],
      "stateMutability": "nonpayable",
      "type": "function"
    },
    {
      "inputs": [
        {
          "internalType": "uint256",
          "name": "id",
          "type": "uint256"
        }
      ],
      "name": "dealAssetCount",
      "outputs": [
        {
          "internalType": "uint256",
          "name": "",
          "type": "uint256"
        }
      ],
      "stateMutability": "view",
      "type": "function"
    },
    {
      "inputs": [
        {
          "internalType": "uint256",
          "name": "id",
          "type": "uint256"
        }
      ],
      "name": "missingDealAssets",
      "outputs": [
        {
          "internalType": "uint256",
          "name": "",
          "type": "uint256"
        }
      ],
      "stateMutability": "view",
      "type": "function"
    },
    {
      "inputs": [
        {
          "internalType": "uint256",
          "name": "dealId",
          "type": "uint256"
        },
        {
          "internalType": "uint256",
          "name": "assetId",
          "type": "uint256"
        }
      ],
      "name": "assetOwner",
      "outputs": [
        {
          "internalType": "address",
          "name": "",
          "type": "address"
        }
      ],
      "stateMutability": "view",
      "type": "function"
    },
    {
      "inputs": [
        {
          "internalType": "uint256",
          "name": "id",
          "type": "uint256"
        }
      ],
      "name": "dealAssetsDeposited",
      "outputs": [
        {
          "internalType": "uint256",
          "name": "",
          "type": "uint256"
        }
      ],
      "stateMutability": "view",
      "type": "function"
    },
    {
      "inputs": [
        {
          "internalType": "uint256",
          "name": "id",
          "type": "uint256"
        }
      ],
      "name": "missingDealCoins",
      "outputs": [
        {
          "internalType": "uint256",
          "name": "",
          "type": "uint256"
        }
      ],
      "stateMutability": "view",
      "type": "function"
    },
    {
      "inputs": [
        {
          "internalType": "uint256",
          "name": "id",
          "type": "uint256"
        }
      ],
      "name": "settle",
      "outputs": [],
      "stateMutability": "nonpayable",
      "type": "function"
    },
    {
      "inputs": [
        {
          "internalType": "uint256",
          "name": "dealId",
          "type": "uint256"
        },
        {
          "internalType": "uint256",
          "name": "count",
          "type": "uint256"
        }
      ],
      "name": "withdrawDealAssets",
      "outputs": [],
      "stateMutability": "nonpayable",
      "type": "function"
    },
    {
      "inputs": [
        {
          "internalType": "uint256",
          "name": "dealId",
          "type": "uint256"
        }
      ],
      "name": "cancelDeal",
      "outputs": [],
      "stateMutability": "nonpayable",
      "type": "function"
    },
    {
      "inputs": [
        {
          "internalType": "uint256",
          "name": "dealId",
          "type": "uint256"
        }
      ],
      "name": "withdrawDealCoins",
      "outputs": [],
      "stateMutability": "nonpayable",
      "type": "function"
    },
    {
      "inputs": [],
      "name": "getOwner",
      "outputs": [
        {
          "internalType": "address",
          "name": "",
          "type": "address"
        }
      ],
      "stateMutability": "view",
      "type": "function"
    },
    {
      "inputs": [],
      "name": "getBuyer",
      "outputs": [
        {
          "internalType": "address",
          "name": "",
          "type": "address"
        }
      ],
      "stateMutability": "view",
      "type": "function"
    },
    {
      "inputs": [],
      "name": "getSeller",
      "outputs": [
        {
          "internalType": "address",
          "name": "",
          "type": "address"
        }
      ],
      "stateMutability": "view",
      "type": "function"
    },
    {
      "inputs": [
        {
          "internalType": "address",
          "name": "newOwner",
          "type": "address"
        }
      ],
      "name": "changeOwner",
      "outputs": [],
      "stateMutability": "nonpayable",
      "type": "function"
    },
    {
      "inputs": [
        {
          "internalType": "uint256",
          "name": "id",
          "type": "uint256"
        }
      ],
      "name": "getDeal",
      "outputs": [
        {
          "components": [
            {
              "internalType": "uint256",
              "name": "id",
              "type": "uint256"
            },
            {
              "internalType": "contract IERC20",
              "name": "erc20",
              "type": "address"
            },
            {
              "internalType": "contract IERC721",
              "name": "erc721",
              "type": "address"
            },
            {
              "internalType": "uint256",
              "name": "price",
              "type": "uint256"
            },
            {
              "internalType": "uint256[]",
              "name": "assetItems",
              "type": "uint256[]"
            },
            {
              "internalType": "enum DealRoom.DealStatus",
              "name": "status",
              "type": "uint8"
            },
            {
              "internalType": "bool",
              "name": "valid",
              "type": "bool"
            }
          ],
          "internalType": "struct DealRoom.Deal",
          "name": "",
          "type": "tuple"
        }
      ],
      "stateMutability": "view",
      "type": "function"
    },
    {
      "inputs": [],
      "name": "getDealCount",
      "outputs": [
        {
          "internalType": "uint256",
          "name": "",
          "type": "uint256"
        }
      ],
      "stateMutability": "view",
      "type": "function"
    },
    {
      "inputs": [
        {
          "internalType": "uint256",
          "name": "id",
          "type": "uint256"
        }
      ],
      "name": "getDealStatus",
      "outputs": [
        {
          "internalType": "enum DealRoom.DealStatus",
          "name": "",
          "type": "uint8"
        }
      ],
      "stateMutability": "view",
      "type": "function"
    }
  ],
  "bytecode": "0x60806040523480156200001157600080fd5b5060405162001d0938038062001d098339810160408190526200003491620000b0565b600480546001600160a01b0393841661010002610100600160a81b031990911617905560058054919092166001600160a01b031991821617909155600060028190556001805483163390811790915581549092169091179055620000e7565b80516001600160a01b0381168114620000ab57600080fd5b919050565b60008060408385031215620000c3578182fd5b620000ce8362000093565b9150620000de6020840162000093565b90509250929050565b611c1280620000f76000396000f3fe608060405234801561001057600080fd5b506004361061014d5760003560e01c806382fd5bac116100c3578063a719e1031161007c578063a719e1031461028c578063bf89293f1461029f578063c3a77ea8146102b2578063c698f53b146102c5578063dbd0e1b6146102e5578063eadb3c9c146102ed5761014d565b806382fd5bac14610223578063893d20e8146102435780638da5cb5b1461024b5780638df82800146102535780639056b97214610266578063a6f9dae1146102795761014d565b80633f35253a116101155780633f35253a146101d2578063442d04ee146101e55780634a3a8383146101f85780634d2d2c9d14610200578063603daf9a146102135780637150d8ae1461021b5761014d565b806302d05d3f1461015257806303988f841461017057806308551a5314610195578063155c3f691461019d57806331ea1a39146101bd575b600080fd5b61015a6102f5565b604051610167919061183e565b60405180910390f35b61018361017e3660046117c5565b610304565b60405161016796959493929190611b13565b61015a61035c565b6101b06101ab3660046117c5565b61036b565b6040516101679190611b0a565b6101d06101cb3660046117c5565b61054c565b005b6101b06101e03660046117c5565b6106c5565b6101d06101f33660046116dc565b610819565b6101b061099b565b6101b061020e3660046117c5565b6109a1565b61015a610b47565b61015a610b5b565b6102366102313660046117c5565b610b6f565b6040516101679190611a57565b61015a610ca2565b61015a610cb1565b6101d06102613660046117c5565b610cc0565b6101d06102743660046117c5565b610dce565b6101d061028736600461167d565b610f14565b6101d061029a3660046117f5565b610f60565b61015a6102ad3660046117f5565b61125d565b6101b06102c03660046117c5565b61137c565b6102d86102d33660046117c5565b611428565b604051610167919061188f565b61015a6114d3565b6101b06114e2565b6000546001600160a01b031681565b6003818154811061031457600080fd5b6000918252602090912060069091020180546001820154600283015460038401546005909401549294506001600160a01b039182169391169160ff8082169161010090041686565b6005546001600160a01b031681565b6000816001600061037b83610b6f565b90508115158160c00151151514826103b6576040518060400160405280600b81526020016a4445414c5f45584953545360a81b8152506103de565b6040518060400160405280600e81526020016d1111505317d393d517d193d5539160921b8152505b906104055760405162461bcd60e51b81526004016103fc91906118a3565b60405180910390fd5b50600061041186610b6f565b905060038160a00151600381111561043957634e487b7160e01b600052602160045260246000fd5b141561044a57610309945050610544565b6000805b82608001515181101561053f57306001600160a01b031683604001516001600160a01b0316636352211e8560800151848151811061049c57634e487b7160e01b600052603260045260246000fd5b60200260200101516040518263ffffffff1660e01b81526004016104c09190611b0a565b60206040518083038186803b1580156104d857600080fd5b505afa1580156104ec573d6000803e3d6000fd5b505050506040513d601f19601f8201168201806040525081019061051091906116a0565b6001600160a01b0316141561052d578161052981611b7d565b9250505b8061053781611b7d565b91505061044e565b509450505b505050919050565b60045461010090046001600160a01b031633148061057457506005546001600160a01b031633145b6105905760405162461bcd60e51b81526004016103fc9061191d565b80600061059c82610b6f565b905060018160a0015160038111156105c457634e487b7160e01b600052602160045260246000fd5b146105e15760405162461bcd60e51b81526004016103fc906118f6565b60006105ec84610b6f565b600260a0820152602081015160048054606084015160405163a9059cbb60e01b81529495506001600160a01b039384169463a9059cbb9461063594610100909404169201611876565b602060405180830381600087803b15801561064f57600080fd5b505af1158015610663573d6000803e3d6000fd5b505050506040513d601f19601f8201168201806040525081019061068791906116bc565b507f718bce6c58c439a81103f4d028e605d027207718373274d8e797f2cdf83fd344846040516106b79190611b0a565b60405180910390a150505050565b600081600160006106d583610b6f565b90508115158160c0015115151482610710576040518060400160405280600b81526020016a4445414c5f45584953545360a81b815250610738565b6040518060400160405280600e81526020016d1111505317d393d517d193d5539160921b8152505b906107565760405162461bcd60e51b81526004016103fc91906118a3565b50600061076286610b6f565b9050600081602001516001600160a01b03166370a08231306040518263ffffffff1660e01b8152600401610796919061183e565b60206040518083038186803b1580156107ae57600080fd5b505afa1580156107c2573d6000803e3d6000fd5b505050506040513d601f19601f820116820180604052508101906107e691906117dd565b9050816060015181106107fe57600095505050610544565b80826060015161080e9190611b66565b979650505050505050565b60036040518060e001604052806002548152602001866001600160a01b03168152602001856001600160a01b031681526020018481526020018381526020016001600381111561087957634e487b7160e01b600052602160045260246000fd5b8152600160209182018190528354808201855560009485529382902083516006909502019384558282015190840180546001600160a01b039283166001600160a01b031991821617909155604084015160028601805491909316911617905560608201516003840155608082015180519293926108fc92600485019201906115e1565b5060a082015160058201805460ff1916600183600381111561092e57634e487b7160e01b600052602160045260246000fd5b021790555060c09190910151600590910180549115156101000261ff00199092169190911790556002805490600061096583611b7d565b91905055507f47949ea802e880552eec1156acc6bcd581993c72b5c0939fbab6bcbba2835f1c6002546040516106b79190611b0a565b60025490565b600081600160006109b183610b6f565b90508115158160c00151151514826109ec576040518060400160405280600b81526020016a4445414c5f45584953545360a81b815250610a14565b6040518060400160405280600e81526020016d1111505317d393d517d193d5539160921b8152505b90610a325760405162461bcd60e51b81526004016103fc91906118a3565b506000610a3e86610b6f565b90506000805b826080015151811015610b3557306001600160a01b031683604001516001600160a01b0316636352211e85608001518481518110610a9257634e487b7160e01b600052603260045260246000fd5b60200260200101516040518263ffffffff1660e01b8152600401610ab69190611b0a565b60206040518083038186803b158015610ace57600080fd5b505afa158015610ae2573d6000803e3d6000fd5b505050506040513d601f19601f82011682018060405250810190610b0691906116a0565b6001600160a01b03161415610b235781610b1f81611b7d565b9250505b80610b2d81611b7d565b915050610a44565b508082608001515161080e9190611b66565b60045461010090046001600160a01b031690565b60045461010090046001600160a01b031681565b610b7761162c565b60038281548110610b9857634e487b7160e01b600052603260045260246000fd5b60009182526020918290206040805160e08101825260069093029091018054835260018101546001600160a01b0390811684860152600282015416838301526003810154606084015260048101805483518187028101870190945280845293949193608086019392830182828015610c2f57602002820191906000526020600020905b815481526020019060010190808311610c1b575b5050509183525050600582015460209091019060ff166003811115610c6457634e487b7160e01b600052602160045260246000fd5b6003811115610c8357634e487b7160e01b600052602160045260246000fd5b815260059190910154610100900460ff16151560209091015292915050565b6001546001600160a01b031690565b6001546001600160a01b031681565b806000610ccc82610b6f565b905060018160a001516003811115610cf457634e487b7160e01b600052602160045260246000fd5b14610d115760405162461bcd60e51b81526004016103fc906118f6565b6001546001600160a01b03163314610d3b5760405162461bcd60e51b81526004016103fc906119dc565b610d44836109a1565b15610d615760405162461bcd60e51b81526004016103fc90611a00565b610d6a836106c5565b15610d875760405162461bcd60e51b81526004016103fc906119af565b610d928360036114e8565b7fe5e79cf292a362bfd283293dc79aa476061a2b070cafe3fcb6d7f5bc8145005283604051610dc19190611b0a565b60405180910390a1505050565b6005546001600160a01b03163314610df85760405162461bcd60e51b81526004016103fc90611941565b806000610e0482610b6f565b905060038160a001516003811115610e2c57634e487b7160e01b600052602160045260246000fd5b14610e495760405162461bcd60e51b81526004016103fc90611a2d565b6000610e5484610b6f565b6020810151600554606083015160405163a9059cbb60e01b81529394506001600160a01b039283169363a9059cbb93610e9293169190600401611876565b602060405180830381600087803b158015610eac57600080fd5b505af1158015610ec0573d6000803e3d6000fd5b505050506040513d601f19601f82011682018060405250810190610ee491906116bc565b507f3d358fe09619c81ee537f8cdc64d3c6f0b124b94b7bdc581a18e90c49dfd1582846040516106b79190611b0a565b6001546001600160a01b03163314610f3e5760405162461bcd60e51b81526004016103fc906119dc565b600180546001600160a01b0319166001600160a01b0392909216919091179055565b8160016000610f6e83610b6f565b90508115158160c0015115151482610fa9576040518060400160405280600b81526020016a4445414c5f45584953545360a81b815250610fd1565b6040518060400160405280600e81526020016d1111505317d393d517d193d5539160921b8152505b90610fef5760405162461bcd60e51b81526004016103fc91906118a3565b506000610ffb86610b6f565b9050600060038260a00151600381111561102557634e487b7160e01b600052602160045260246000fd5b141561105f5760045461010090046001600160a01b0316331461105a5760405162461bcd60e51b81526004016103fc9061198b565b611089565b6005546001600160a01b031633146110895760405162461bcd60e51b81526004016103fc90611966565b60005b82608001515181101561121a5786821080156111635750306001600160a01b031683604001516001600160a01b0316636352211e856080015184815181106110e457634e487b7160e01b600052603260045260246000fd5b60200260200101516040518263ffffffff1660e01b81526004016111089190611b0a565b60206040518083038186803b15801561112057600080fd5b505afa158015611134573d6000803e3d6000fd5b505050506040513d601f19601f8201168201806040525081019061115891906116a0565b6001600160a01b0316145b156112085782604001516001600160a01b03166323b872dd3033866080015185815181106111a157634e487b7160e01b600052603260045260246000fd5b60200260200101516040518463ffffffff1660e01b81526004016111c793929190611852565b600060405180830381600087803b1580156111e157600080fd5b505af11580156111f5573d6000803e3d6000fd5b50505050818061120490611b7d565b9250505b8061121281611b7d565b91505061108c565b507f78d040a98f9eee42522447f0fe5d68b97fa2de8def2cf0c474051c934c5f8dbd878760405161124c929190611b58565b60405180910390a150505050505050565b6000826001600061126d83610b6f565b90508115158160c00151151514826112a8576040518060400160405280600b81526020016a4445414c5f45584953545360a81b8152506112d0565b6040518060400160405280600e81526020016d1111505317d393d517d193d5539160921b8152505b906112ee5760405162461bcd60e51b81526004016103fc91906118a3565b5060006112fa87610b6f565b905080604001516001600160a01b0316636352211e876040518263ffffffff1660e01b815260040161132c9190611b0a565b60206040518083038186803b15801561134457600080fd5b505afa158015611358573d6000803e3d6000fd5b505050506040513d601f19601f8201168201806040525081019061080e91906116a0565b6000816001600061138c83610b6f565b90508115158160c00151151514826113c7576040518060400160405280600b81526020016a4445414c5f45584953545360a81b8152506113ef565b6040518060400160405280600e81526020016d1111505317d393d517d193d5539160921b8152505b9061140d5760405162461bcd60e51b81526004016103fc91906118a3565b50600061141986610b6f565b60800151519695505050505050565b6000816001600061143883610b6f565b90508115158160c0015115151482611473576040518060400160405280600b81526020016a4445414c5f45584953545360a81b81525061149b565b6040518060400160405280600e81526020016d1111505317d393d517d193d5539160921b8152505b906114b95760405162461bcd60e51b81526004016103fc91906118a3565b5060006114c586610b6f565b60a001519695505050505050565b6005546001600160a01b031690565b60025481565b81600160006114f683610b6f565b90508115158160c0015115151482611531576040518060400160405280600b81526020016a4445414c5f45584953545360a81b815250611559565b6040518060400160405280600e81526020016d1111505317d393d517d193d5539160921b8152505b906115775760405162461bcd60e51b81526004016103fc91906118a3565b50836003868154811061159a57634e487b7160e01b600052603260045260246000fd5b60009182526020909120600560069092020101805460ff191660018360038111156115d557634e487b7160e01b600052602160045260246000fd5b02179055505050505050565b82805482825590600052602060002090810192821561161c579160200282015b8281111561161c578251825591602001919060010190611601565b50611628929150611668565b5090565b6040805160e081018252600080825260208201819052918101829052606080820183905260808201529060a08201908152600060209091015290565b5b808211156116285760008155600101611669565b60006020828403121561168e578081fd5b813561169981611bc4565b9392505050565b6000602082840312156116b1578081fd5b815161169981611bc4565b6000602082840312156116cd578081fd5b81518015158114611699578182fd5b600080600080608085870312156116f1578283fd5b84356116fc81611bc4565b935060208581013561170d81611bc4565b935060408601359250606086013567ffffffffffffffff80821115611730578384fd5b818801915088601f830112611743578384fd5b81358181111561175557611755611bae565b8381026040518582820101818110858211171561177457611774611bae565b604052828152858101935084860182860187018d1015611792578788fd5b8795505b838610156117b4578035855260019590950194938601938601611796565b50989b979a50959850505050505050565b6000602082840312156117d6578081fd5b5035919050565b6000602082840312156117ee578081fd5b5051919050565b60008060408385031215611807578182fd5b50508035926020909101359150565b15159052565b6004811061183a57634e487b7160e01b600052602160045260246000fd5b9052565b6001600160a01b0391909116815260200190565b6001600160a01b039384168152919092166020820152604081019190915260600190565b6001600160a01b03929092168252602082015260400190565b6020810161189d828461181c565b92915050565b6000602080835283518082850152825b818110156118cf578581018301518582016040015282016118b3565b818111156118e05783604083870101525b50601f01601f1916929092016040019392505050565b6020808252600d908201526c2222a0a62fa727aa2fa7a822a760991b604082015260600190565b6020808252600a90820152692727aa2fa6a2a6a122a960b11b604082015260600190565b6020808252600b908201526a27a7262cafa9a2a62622a960a91b604082015260600190565b6020808252600b908201526a53454c4c45525f4f4e4c5960a81b604082015260600190565b6020808252600a908201526942555945525f4f4e4c5960b01b604082015260600190565b6020808252601390820152724445414c5f544f4b454e535f4d495353494e4760681b604082015260600190565b6020808252600a908201526927a7262cafa7aba722a960b11b604082015260600190565b6020808252601390820152724445414c5f4153534554535f4d495353494e4760681b604082015260600190565b60208082526010908201526f1111505317d393d517d4d1551513115160821b604082015260600190565b6020808252825182820152828101516001600160a01b039081166040808501919091528401511660608084019190915283015160808084019190915283015160e060a0840152805161010084018190526000929182019083906101208601905b80831015611ad75783518252928401926001929092019190840190611ab7565b5060a08701519350611aec60c087018561181c565b60c08701519350611b0060e0870185611816565b9695505050505050565b90815260200190565b8681526001600160a01b038681166020830152851660408201526060810184905260c08101611b45608083018561181c565b82151560a0830152979650505050505050565b918252602082015260400190565b600082821015611b7857611b78611b98565b500390565b6000600019821415611b9157611b91611b98565b5060010190565b634e487b7160e01b600052601160045260246000fd5b634e487b7160e01b600052604160045260246000fd5b6001600160a01b0381168114611bd957600080fd5b5056fea264697066735822122089e04f6f61da748a8a234abd4802d3ad384070a53772a9a7ef8db1eb41f105a964736f6c63430008000033",
  "immutableReferences": {},
  "source": "// SPDX-License-Identifier: MIT\npragma solidity ^0.8.0;\npragma experimental ABIEncoderV2;\n\nimport \"@openzeppelin/contracts/token/ERC721/IERC721.sol\";\nimport \"@openzeppelin/contracts/token/ERC20/IERC20.sol\";\n\n\n/// @title DealRoom -- allows atomic swap for ERC20/ERC721\n/// @author Barry Earsman\ncontract DealRoom {\n    address public creator;\n    address public owner;\n    uint256 public dealCount;\n    Deal[] public deals;\n    bool private settled;\n    address public buyer;\n    address public seller;\n\n    event Debug(bytes32 message, uint num);\n    event DealSettled(uint256 dealId);\n    event DealCanceled(uint256 dealId);\n    event DealCreated(uint256 dealId);\n    event DealAssetsWithdrawn(uint256 dealId, uint256 amount);\n    event DealCoinsWithdrawn(uint256 dealId);\n\n    struct Deal {\n        uint256 id;\n        IERC20 erc20;\n        IERC721 erc721;\n        uint256 price;\n        uint256[] assetItems;\n        DealStatus status;\n        bool valid;\n    }\n\n    enum DealStatus {\n        Undefined,\n        Open,\n        Cancelled,\n        Settled\n    }\n\n    constructor (address _buyer, address _seller) {\n        buyer = _buyer;\n        seller = _seller;\n        dealCount = 0;\n        owner = msg.sender;\n        creator = msg.sender;\n    }\n\n    function makeDeal(\n        IERC20 _erc20,\n        IERC721 _erc721,\n        uint256 _price,\n        uint256[] memory _assetItems\n    ) public  {\n        deals.push(Deal({\n            id: dealCount,\n            erc20: _erc20,\n            erc721: _erc721,\n            price: _price,\n            assetItems: _assetItems,\n            status: DealStatus.Open,\n            valid: true\n        }));\n        dealCount ++;\n        emit DealCreated(dealCount);\n    }\n\n    function dealAssetCount(uint256 id) public view dealExists(id, true) returns (uint256) {\n        Deal memory deal = getDeal(id);\n        return deal.assetItems.length;\n    }\n\n    function missingDealAssets(\n        uint256 id\n    ) public view dealExists(id, true) returns (uint256) {\n        //Check that all the assets have been deposited, and return the quantity missing    \n        Deal memory deal = getDeal(id);\n        uint256 assetDeposits = 0;\n        for (uint i = 0; i < deal.assetItems.length; i ++) {\n            // Check that I (the dealroom contract) own this asset\n            if (deal.erc721.ownerOf(deal.assetItems[i]) == address(this)) {\n                assetDeposits ++;\n            }\n        }\n        return (deal.assetItems.length - assetDeposits);\n    }\n\n    function assetOwner(\n        uint256 dealId, uint256 assetId\n    ) public view dealExists(dealId, true) returns (address) {\n        Deal memory deal = getDeal(dealId);\n        return deal.erc721.ownerOf(assetId);\n    }\n\n    /*function depositDealCoins(uint256 dealId) public view dealExists(dealId, true) returns (uint256) {\n        Deal memory deal = getDeal(dealId);\n        if (deal.erc20.isValid()) {\n            deal.erc20.transferFrom(sender, address(this), deal.price)\n    */\n\n    function dealAssetsDeposited(\n        uint256 id\n    ) public view dealExists(id, true) returns (uint256) {\n        //Check that all the assets have been deposited, and return the quantity missing    \n        Deal memory deal = getDeal(id);\n        if (deal.status == DealStatus.Settled) {\n            return 777;\n        }\n        uint256 assetDeposits = 0;\n        for (uint i = 0; i < deal.assetItems.length; i ++) {\n            // Check that I (the dealroom contract) own this asset\n            if (deal.erc721.ownerOf(deal.assetItems[i]) == address(this)) {\n                assetDeposits ++;\n            }\n        }\n        return assetDeposits;\n    }\n\n    function missingDealCoins(\n        uint256 id\n    ) public view dealExists(id, true) returns (uint256) {\n        //Check that all the coins have been deposited, and return the amount missing\n        Deal memory deal = getDeal(id);\n        uint256 balance = deal.erc20.balanceOf(address(this));\n        if (balance >= deal.price) {\n            return 0;\n        }\n        return deal.price - balance;\n    }\n\n    // Change the status to Settled, which will allow the buyer to withdraw the tokens, and the seller to withdraw the assets\n    function settle(\n        uint256 id\n    ) public dealOpen(id) isOwner() {\n        require(missingDealAssets(id) == 0, \"DEAL_ASSETS_MISSING\");\n        require(missingDealCoins(id) == 0, \"DEAL_TOKENS_MISSING\");\n\n        _setDealStatus(id, DealStatus.Settled);\n        emit DealSettled(id);\n    }\n\n    function _setDealStatus(\n        uint256 id,\n        DealStatus status\n    ) private dealExists(id, true) {\n        deals[id].status = status;\n    }\n\n    //Transfer a batch of assets\n    function withdrawDealAssets(uint256 dealId, uint256 count) public dealExists(dealId, true) {\n        Deal memory deal = getDeal(dealId);\n        uint256 transferred = 0;\n\n        if (deal.status == DealStatus.Settled) {\n            require(msg.sender == buyer, \"BUYER_ONLY\");\n        } else {\n            require(msg.sender == seller, \"SELLER_ONLY\");\n        }\n\n        for (uint i = 0; i < deal.assetItems.length; i ++) {\n            if (transferred < count && deal.erc721.ownerOf(deal.assetItems[i]) == address(this)) {\n                deal.erc721.transferFrom(address(this), msg.sender, deal.assetItems[i]);\n                transferred ++;\n            }\n        }\n        emit DealAssetsWithdrawn(dealId, count);\n    }\n\n    //Anyone can cancel the deal\n    function cancelDeal(uint256 dealId) public isMember() dealOpen(dealId) {\n        Deal memory deal = getDeal(dealId);\n        deal.status = DealStatus.Cancelled;\n        deal.erc20.transfer(buyer, deal.price);\n        emit DealCanceled(dealId);\n    }      \n\n    //The seller withdraws the coins after the deal is settled\n    function withdrawDealCoins(uint256 dealId) public isSeller() dealSettled(dealId) {\n        Deal memory deal = getDeal(dealId);\n        deal.erc20.transfer(seller, deal.price);\n        emit DealCoinsWithdrawn(dealId);\n    }\n\n    function getOwner() public view returns (address) {\n        return owner;\n    }\n\n    function getBuyer() public view returns (address) {\n        return buyer;\n    }\n\n    function getSeller() public view returns (address) {\n        return seller;\n    }\n\n    function changeOwner(address newOwner) public isOwner() {\n        owner = newOwner;\n    }\n\n    function getDeal(\n        uint256 id\n    ) public view returns (Deal memory) {\n        return deals[id];\n    }\n\n    function getDealCount() public view returns (uint256) {\n        return dealCount;\n    }\n\n    function getDealStatus(\n        uint256 id\n    ) public view dealExists(id, true) returns (DealStatus)  {\n        Deal memory deal = getDeal(id);\n        return deal.status;\n    }\n\n    modifier dealExists(\n        uint256 id,\n        bool exists\n    ) {\n        Deal memory deal = getDeal(id);\n        require(deal.valid == exists, exists?\"DEAL_NOT_FOUND\":\"DEAL_EXISTS\");\n        _;\n    }\n\n    modifier dealOpen(\n        uint256 id\n    ) {\n        Deal memory deal = getDeal(id);\n        require(deal.status == DealStatus.Open, \"DEAL_NOT_OPEN\");\n        _;\n    }\n\n    modifier dealClosed(\n        uint256 id\n    ) {\n        Deal memory deal = getDeal(id);\n        require(deal.status != DealStatus.Open, \"DEAL_OPEN\");\n        _;\n    }\n\n    modifier dealSettled(\n        uint256 id\n    ) {\n        Deal memory deal = getDeal(id);\n        require(deal.status == DealStatus.Settled, \"DEAL_NOT_SETTLED\");\n        _;\n    }\n\n    modifier isOwner() {\n        require(msg.sender == owner, \"ONLY_OWNER\");\n        _;\n    }\n\n    modifier isBuyer() {\n        require(msg.sender == buyer, \"ONLY_BUYER\");\n        _;\n    }\n\n    modifier isSeller() {\n        require(msg.sender == seller, \"ONLY_SELLER\");\n        _;\n    }\n\n    modifier isMember() {\n        require(msg.sender == buyer || msg.sender == seller, \"NOT_MEMBER\");\n        _;\n    }\n}\n",
  "sourcePath": "/projects/dealrooms/ethereum/contracts/DealRoom.sol",
  "compiler": {
    "name": "solc",
    "version": "0.8.0+commit.c7dfd78e.Emscripten.clang"
  },
  "schemaVersion": "3.4.1",
  "updatedAt": "2021-08-12T23:15:42.491Z",
  "devdoc": {
    "author": "Barry Earsman",
    "kind": "dev",
    "methods": {},
    "title": "DealRoom -- allows atomic swap for ERC20/ERC721",
    "version": 1
  },
  "userdoc": {
    "kind": "user",
    "methods": {},
    "version": 1
  }
}