{
  "contractName": "MultiSigHashed",
  "abi": [
    {
      "inputs": [
        {
          "internalType": "address[]",
          "name": "_owners",
          "type": "address[]"
        },
        {
          "internalType": "uint256",
          "name": "_required",
          "type": "uint256"
        }
      ],
      "stateMutability": "nonpayable",
      "type": "constructor"
    },
    {
      "anonymous": false,
      "inputs": [
        {
          "indexed": true,
          "internalType": "address",
          "name": "sender",
          "type": "address"
        },
        {
          "indexed": true,
          "internalType": "bytes32",
          "name": "hash",
          "type": "bytes32"
        }
      ],
      "name": "Confirmation",
      "type": "event"
    },
    {
      "anonymous": false,
      "inputs": [
        {
          "indexed": true,
          "internalType": "address",
          "name": "sender",
          "type": "address"
        },
        {
          "indexed": false,
          "internalType": "uint256",
          "name": "value",
          "type": "uint256"
        }
      ],
      "name": "Deposit",
      "type": "event"
    },
    {
      "anonymous": false,
      "inputs": [
        {
          "indexed": true,
          "internalType": "bytes32",
          "name": "hash",
          "type": "bytes32"
        }
      ],
      "name": "Execution",
      "type": "event"
    },
    {
      "anonymous": false,
      "inputs": [
        {
          "indexed": true,
          "internalType": "bytes32",
          "name": "hash",
          "type": "bytes32"
        }
      ],
      "name": "ExecutionFailure",
      "type": "event"
    },
    {
      "anonymous": false,
      "inputs": [
        {
          "indexed": true,
          "internalType": "address",
          "name": "owner",
          "type": "address"
        }
      ],
      "name": "OwnerAddition",
      "type": "event"
    },
    {
      "anonymous": false,
      "inputs": [
        {
          "indexed": true,
          "internalType": "address",
          "name": "owner",
          "type": "address"
        }
      ],
      "name": "OwnerRemoval",
      "type": "event"
    },
    {
      "anonymous": false,
      "inputs": [
        {
          "indexed": false,
          "internalType": "uint256",
          "name": "required",
          "type": "uint256"
        }
      ],
      "name": "RequirementChange",
      "type": "event"
    },
    {
      "anonymous": false,
      "inputs": [
        {
          "indexed": true,
          "internalType": "address",
          "name": "sender",
          "type": "address"
        },
        {
          "indexed": true,
          "internalType": "bytes32",
          "name": "hash",
          "type": "bytes32"
        }
      ],
      "name": "Revocation",
      "type": "event"
    },
    {
      "anonymous": false,
      "inputs": [
        {
          "indexed": true,
          "internalType": "bytes32",
          "name": "hash",
          "type": "bytes32"
        }
      ],
      "name": "Submission",
      "type": "event"
    },
    {
      "stateMutability": "payable",
      "type": "fallback"
    },
    {
      "inputs": [],
      "name": "MAX_OWNER_COUNT",
      "outputs": [
        {
          "internalType": "uint256",
          "name": "",
          "type": "uint256"
        }
      ],
      "stateMutability": "view",
      "type": "function"
    },
    {
      "inputs": [
        {
          "internalType": "bytes32",
          "name": "",
          "type": "bytes32"
        },
        {
          "internalType": "address",
          "name": "",
          "type": "address"
        }
      ],
      "name": "confirmations",
      "outputs": [
        {
          "internalType": "bool",
          "name": "",
          "type": "bool"
        }
      ],
      "stateMutability": "view",
      "type": "function"
    },
    {
      "inputs": [
        {
          "internalType": "uint256",
          "name": "",
          "type": "uint256"
        }
      ],
      "name": "hashes",
      "outputs": [
        {
          "internalType": "bytes32",
          "name": "",
          "type": "bytes32"
        }
      ],
      "stateMutability": "view",
      "type": "function"
    },
    {
      "inputs": [
        {
          "internalType": "address",
          "name": "",
          "type": "address"
        }
      ],
      "name": "isOwner",
      "outputs": [
        {
          "internalType": "bool",
          "name": "",
          "type": "bool"
        }
      ],
      "stateMutability": "view",
      "type": "function"
    },
    {
      "inputs": [
        {
          "internalType": "uint256",
          "name": "",
          "type": "uint256"
        }
      ],
      "name": "owners",
      "outputs": [
        {
          "internalType": "address",
          "name": "",
          "type": "address"
        }
      ],
      "stateMutability": "view",
      "type": "function"
    },
    {
      "inputs": [],
      "name": "required",
      "outputs": [
        {
          "internalType": "uint256",
          "name": "",
          "type": "uint256"
        }
      ],
      "stateMutability": "view",
      "type": "function"
    },
    {
      "inputs": [],
      "name": "transactionCount",
      "outputs": [
        {
          "internalType": "uint256",
          "name": "",
          "type": "uint256"
        }
      ],
      "stateMutability": "view",
      "type": "function"
    },
    {
      "inputs": [
        {
          "internalType": "bytes32",
          "name": "",
          "type": "bytes32"
        }
      ],
      "name": "transactions",
      "outputs": [
        {
          "internalType": "address",
          "name": "destination",
          "type": "address"
        },
        {
          "internalType": "uint256",
          "name": "value",
          "type": "uint256"
        },
        {
          "internalType": "bytes",
          "name": "data",
          "type": "bytes"
        },
        {
          "internalType": "bool",
          "name": "executed",
          "type": "bool"
        },
        {
          "internalType": "uint256",
          "name": "timestamp",
          "type": "uint256"
        },
        {
          "internalType": "bytes32",
          "name": "hash",
          "type": "bytes32"
        }
      ],
      "stateMutability": "view",
      "type": "function"
    },
    {
      "stateMutability": "payable",
      "type": "receive"
    },
    {
      "inputs": [
        {
          "internalType": "bytes32",
          "name": "hash",
          "type": "bytes32"
        },
        {
          "internalType": "address",
          "name": "owner",
          "type": "address"
        }
      ],
      "name": "ownerHasConfirmed",
      "outputs": [
        {
          "internalType": "bool",
          "name": "",
          "type": "bool"
        }
      ],
      "stateMutability": "view",
      "type": "function"
    },
    {
      "inputs": [
        {
          "internalType": "address",
          "name": "owner",
          "type": "address"
        }
      ],
      "name": "addOwner",
      "outputs": [],
      "stateMutability": "nonpayable",
      "type": "function"
    },
    {
      "inputs": [
        {
          "internalType": "address",
          "name": "owner",
          "type": "address"
        }
      ],
      "name": "removeOwner",
      "outputs": [],
      "stateMutability": "nonpayable",
      "type": "function"
    },
    {
      "inputs": [
        {
          "internalType": "address",
          "name": "owner",
          "type": "address"
        },
        {
          "internalType": "address",
          "name": "newOwner",
          "type": "address"
        }
      ],
      "name": "replaceOwner",
      "outputs": [],
      "stateMutability": "nonpayable",
      "type": "function"
    },
    {
      "inputs": [
        {
          "internalType": "uint256",
          "name": "_required",
          "type": "uint256"
        }
      ],
      "name": "changeRequirement",
      "outputs": [],
      "stateMutability": "nonpayable",
      "type": "function"
    },
    {
      "inputs": [
        {
          "internalType": "address",
          "name": "destination",
          "type": "address"
        },
        {
          "internalType": "uint256",
          "name": "value",
          "type": "uint256"
        },
        {
          "internalType": "bytes",
          "name": "data",
          "type": "bytes"
        }
      ],
      "name": "submitTransaction",
      "outputs": [
        {
          "internalType": "bytes32",
          "name": "hash",
          "type": "bytes32"
        }
      ],
      "stateMutability": "nonpayable",
      "type": "function"
    },
    {
      "inputs": [
        {
          "internalType": "bytes32",
          "name": "hash",
          "type": "bytes32"
        }
      ],
      "name": "confirmTransaction",
      "outputs": [],
      "stateMutability": "nonpayable",
      "type": "function"
    },
    {
      "inputs": [
        {
          "internalType": "bytes32",
          "name": "hash",
          "type": "bytes32"
        }
      ],
      "name": "revokeConfirmation",
      "outputs": [],
      "stateMutability": "nonpayable",
      "type": "function"
    },
    {
      "inputs": [
        {
          "internalType": "bytes32",
          "name": "hash",
          "type": "bytes32"
        }
      ],
      "name": "executeTransaction",
      "outputs": [],
      "stateMutability": "nonpayable",
      "type": "function"
    },
    {
      "inputs": [
        {
          "internalType": "bytes32",
          "name": "hash",
          "type": "bytes32"
        }
      ],
      "name": "isConfirmed",
      "outputs": [
        {
          "internalType": "bool",
          "name": "",
          "type": "bool"
        }
      ],
      "stateMutability": "view",
      "type": "function"
    },
    {
      "inputs": [
        {
          "internalType": "address",
          "name": "destination",
          "type": "address"
        },
        {
          "internalType": "uint256",
          "name": "value",
          "type": "uint256"
        },
        {
          "internalType": "bytes",
          "name": "data",
          "type": "bytes"
        }
      ],
      "name": "makeHash",
      "outputs": [
        {
          "internalType": "bytes32",
          "name": "hash",
          "type": "bytes32"
        }
      ],
      "stateMutability": "pure",
      "type": "function"
    },
    {
      "inputs": [
        {
          "internalType": "bytes32",
          "name": "hash",
          "type": "bytes32"
        }
      ],
      "name": "getConfirmationCount",
      "outputs": [
        {
          "internalType": "uint256",
          "name": "count",
          "type": "uint256"
        }
      ],
      "stateMutability": "view",
      "type": "function"
    },
    {
      "inputs": [],
      "name": "getOwners",
      "outputs": [
        {
          "internalType": "address[]",
          "name": "",
          "type": "address[]"
        }
      ],
      "stateMutability": "view",
      "type": "function"
    },
    {
      "inputs": [
        {
          "internalType": "bytes32",
          "name": "hash",
          "type": "bytes32"
        }
      ],
      "name": "getConfirmations",
      "outputs": [
        {
          "internalType": "address[]",
          "name": "_confirmations",
          "type": "address[]"
        }
      ],
      "stateMutability": "view",
      "type": "function"
    },
    {
      "inputs": [
        {
          "internalType": "bytes32",
          "name": "hash",
          "type": "bytes32"
        }
      ],
      "name": "getTransaction",
      "outputs": [
        {
          "internalType": "bytes32",
          "name": "",
          "type": "bytes32"
        },
        {
          "internalType": "bytes",
          "name": "",
          "type": "bytes"
        },
        {
          "internalType": "address",
          "name": "",
          "type": "address"
        },
        {
          "internalType": "bool",
          "name": "",
          "type": "bool"
        },
        {
          "internalType": "uint256",
          "name": "",
          "type": "uint256"
        }
      ],
      "stateMutability": "view",
      "type": "function"
    },
    {
      "inputs": [
        {
          "internalType": "uint256",
          "name": "idx",
          "type": "uint256"
        }
      ],
      "name": "getTransactionByIdx",
      "outputs": [
        {
          "internalType": "bytes32",
          "name": "",
          "type": "bytes32"
        },
        {
          "internalType": "bytes",
          "name": "",
          "type": "bytes"
        },
        {
          "internalType": "address",
          "name": "",
          "type": "address"
        },
        {
          "internalType": "bool",
          "name": "",
          "type": "bool"
        },
        {
          "internalType": "uint256",
          "name": "",
          "type": "uint256"
        }
      ],
      "stateMutability": "view",
      "type": "function"
    }
  ],
  "bytecode": "0x60806040523480156200001157600080fd5b50604051620022c3380380620022c3833981810160405260408110156200003757600080fd5b81019080805160405193929190846401000000008211156200005857600080fd5b9083019060208201858111156200006e57600080fd5b82518660208202830111640100000000821117156200008c57600080fd5b82525081516020918201928201910280838360005b83811015620000bb578181015183820152602001620000a1565b50505050919091016040525060200151835190925090508160328211801590620000e55750818111155b8015620000f157508015155b8015620000fd57508115155b6200014f576040805162461bcd60e51b815260206004820152601360248201527f696e76616c696420726571756972656d656e7400000000000000000000000000604482015290519081900360640190fd5b60005b84518110156200029757600260008683815181106200016d57fe5b6020908102919091018101516001600160a01b031682528101919091526040016000205460ff1615620001da576040805162461bcd60e51b815260206004820152601060248201526f34b99030b63932b0b23c9037bbb732b960811b604482015290519081900360640190fd5b60006001600160a01b0316858281518110620001f257fe5b60200260200101516001600160a01b0316141562000249576040805162461bcd60e51b815260206004820152600f60248201526e6973206e756c6c206164647265737360881b604482015290519081900360640190fd5b6001600260008784815181106200025c57fe5b6020908102919091018101516001600160a01b03168252810191909152604001600020805460ff191691151591909117905560010162000152565b508351620002ad906004906020870190620002ba565b5050506005555062000345565b82805482825590600052602060002090810192821562000312579160200282015b828111156200031257825182546001600160a01b0319166001600160a01b03909116178255602090920191600190910190620002db565b506200032092915062000324565b5090565b5b80821115620003205780546001600160a01b031916815560010162000325565b611f6e80620003556000396000f3fe60806040526004361061014f5760003560e01c8063969f8a83116100b6578063c64274741161006f578063c642747414610749578063c69ed5f214610811578063d74f8edd1461083b578063dc8452cd14610850578063e20056e614610865578063f3fc536d146108a057610193565b8063969f8a8314610618578063a0e67e2b14610692578063a96bf00c146106a7578063b77bf600146106e0578063ba51a6df146106f5578063bdfd27931461071f57610193565b8063501895ae11610108578063501895ae146103cf578063642f2eaf146103f95780636486aa51146104c95780637065cb48146104f357806379716e4314610526578063915c219e1461055057610193565b8063025e7c27146101d15780630c4ecab414610217578063113642e514610264578063173825d9146102a05780632f54bf6e146102d35780634aae13ca1461030657610193565b366101935734156101915760408051348152905133917fe1fffcc4923d04b559f4d29a8bfc6cda04eb5b0d3c460751c2402c5c5cc9109c919081900360200190a25b005b34156101915760408051348152905133917fe1fffcc4923d04b559f4d29a8bfc6cda04eb5b0d3c460751c2402c5c5cc9109c919081900360200190a2005b3480156101dd57600080fd5b506101fb600480360360208110156101f457600080fd5b50356108ca565b604080516001600160a01b039092168252519081900360200190f35b34801561022357600080fd5b506102506004803603604081101561023a57600080fd5b50803590602001356001600160a01b03166108f1565b604080519115158252519081900360200190f35b34801561027057600080fd5b5061028e6004803603602081101561028757600080fd5b5035610911565b60408051918252519081900360200190f35b3480156102ac57600080fd5b50610191600480360360208110156102c357600080fd5b50356001600160a01b0316610980565b3480156102df57600080fd5b50610250600480360360208110156102f657600080fd5b50356001600160a01b0316610b7a565b34801561031257600080fd5b506103306004803603602081101561032957600080fd5b5035610b8f565b6040518086815260200180602001856001600160a01b031681526020018415158152602001838152602001828103825286818151815260200191508051906020019080838360005b83811015610390578181015183820152602001610378565b50505050905090810190601f1680156103bd5780820380516001836020036101000a031916815260200191505b50965050505050505060405180910390f35b3480156103db57600080fd5b5061028e600480360360208110156103f257600080fd5b5035610cae565b34801561040557600080fd5b506104236004803603602081101561041c57600080fd5b5035610cc0565b60405180876001600160a01b03168152602001868152602001806020018515158152602001848152602001838152602001828103825286818151815260200191508051906020019080838360005b83811015610489578181015183820152602001610471565b50505050905090810190601f1680156104b65780820380516001836020036101000a031916815260200191505b5097505050505050505060405180910390f35b3480156104d557600080fd5b50610250600480360360208110156104ec57600080fd5b5035610d8d565b3480156104ff57600080fd5b506101916004803603602081101561051657600080fd5b50356001600160a01b0316610e14565b34801561053257600080fd5b506101916004803603602081101561054957600080fd5b503561100f565b34801561055c57600080fd5b5061028e6004803603606081101561057357600080fd5b6001600160a01b03823516916020810135918101906060810160408201356401000000008111156105a357600080fd5b8201836020820111156105b557600080fd5b803590602001918460018302840111640100000000831117156105d757600080fd5b91908080601f016020809104026020016040519081016040528093929190818152602001838380828437600092019190915250929550611181945050505050565b34801561062457600080fd5b506106426004803603602081101561063b57600080fd5b5035611196565b60408051602080825283518183015283519192839290830191858101910280838360005b8381101561067e578181015183820152602001610666565b505050509050019250505060405180910390f35b34801561069e57600080fd5b5061064261133a565b3480156106b357600080fd5b50610250600480360360408110156106ca57600080fd5b50803590602001356001600160a01b031661139c565b3480156106ec57600080fd5b5061028e6113c7565b34801561070157600080fd5b506101916004803603602081101561071857600080fd5b50356113cd565b34801561072b57600080fd5b506103306004803603602081101561074257600080fd5b50356114be565b34801561075557600080fd5b5061028e6004803603606081101561076c57600080fd5b6001600160a01b038235169160208101359181019060608101604082013564010000000081111561079c57600080fd5b8201836020820111156107ae57600080fd5b803590602001918460018302840111640100000000831117156107d057600080fd5b91908080601f0160208091040260200160405190810160405280939291908181526020018383808284376000920191909152509295506115ee945050505050565b34801561081d57600080fd5b506101916004803603602081101561083457600080fd5b50356115fb565b34801561084757600080fd5b5061028e61186b565b34801561085c57600080fd5b5061028e611870565b34801561087157600080fd5b506101916004803603604081101561088857600080fd5b506001600160a01b0381358116916020013516611876565b3480156108ac57600080fd5b50610191600480360360208110156108c357600080fd5b5035611a9f565b600481815481106108d757fe5b6000918252602090912001546001600160a01b0316905081565b600160209081526000928352604080842090915290825290205460ff1681565b6000805b60045481101561097a576000838152600160205260408120600480549192918490811061093e57fe5b60009182526020808320909101546001600160a01b0316835282019290925260400190205460ff1615610972576001820191505b600101610915565b50919050565b3330146109c2576040805162461bcd60e51b815260206004820152600b60248201526a13db9b1e481dd85b1b195d60aa1b604482015290519081900360640190fd5b6001600160a01b038116600090815260026020526040902054819060ff16610a28576040805162461bcd60e51b815260206004820152601460248201527313dddb995c88191bd95cc81b9bdd08195e1a5cdd60621b604482015290519081900360640190fd5b6001600160a01b0382166000908152600260205260408120805460ff191690555b60045460001901811015610afc57826001600160a01b031660048281548110610a6e57fe5b6000918252602090912001546001600160a01b03161415610af457600480546000198101908110610a9b57fe5b600091825260209091200154600480546001600160a01b039092169183908110610ac157fe5b9060005260206000200160006101000a8154816001600160a01b0302191690836001600160a01b03160217905550610afc565b600101610a49565b506004805480610b0857fe5b600082815260209020810160001990810180546001600160a01b03191690550190556004546005541115610b4257600454610b42906113cd565b6040516001600160a01b038316907f8001553a916ef2f495d26a907cc54d96ed840d7bda71e73194bf5a9df7a76b9090600090a25050565b60026020526000908152604090205460ff1681565b600060606000806000610ba0611e61565b60008781526020818152604091829020825160c08101845281546001600160a01b03168152600180830154828501526002808401805487516101009482161594909402600019011691909104601f81018690048602830186018752808352929593949386019391929091830182828015610c5b5780601f10610c3057610100808354040283529160200191610c5b565b820191906000526020600020905b815481529060010190602001808311610c3e57829003601f168201915b5050509183525050600382015460ff1615156020820152600482015460408083019190915260059092015460609182015290820151825191830151608090930151999a9099919850919650945092505050565b60036020526000908152604090205481565b6000602081815291815260409081902080546001808301546002808501805487516101009582161595909502600019011691909104601f81018890048802840188019096528583526001600160a01b0390931695909491929190830182828015610d6b5780601f10610d4057610100808354040283529160200191610d6b565b820191906000526020600020905b815481529060010190602001808311610d4e57829003601f168201915b5050505060038301546004840154600590940154929360ff9091169290915086565b600080805b600454811015610e0c5760008481526001602052604081206004805491929184908110610dbb57fe5b60009182526020808320909101546001600160a01b0316835282019290925260400190205460ff1615610def576001820191505b600554821415610e0457600192505050610e0f565b600101610d92565b50505b919050565b333014610e56576040805162461bcd60e51b815260206004820152600b60248201526a13db9b1e481dd85b1b195d60aa1b604482015290519081900360640190fd5b6001600160a01b038116600090815260026020526040902054819060ff1615610eb5576040805162461bcd60e51b815260206004820152600c60248201526b4f776e65722065786973747360a01b604482015290519081900360640190fd5b816001600160a01b038116610f05576040805162461bcd60e51b81526020600482015260116024820152700e881859191c995cdcc81a5cc81b9d5b1b607a1b604482015290519081900360640190fd5b60048054905060010160055460328211158015610f225750818111155b8015610f2d57508015155b8015610f3857508115155b610f7f576040805162461bcd60e51b81526020600482015260136024820152721a5b9d985b1a59081c995c5d5a5c995b595b9d606a1b604482015290519081900360640190fd5b6001600160a01b038516600081815260026020526040808220805460ff1916600190811790915560048054918201815583527f8a35acfbc15ff81a39ae7d344fd709f28e8600b4aa8c65c6b64bfe7fe36bd19b0180546001600160a01b03191684179055517ff39e6e1eb0edcf53c221607b54b00cd28f3196fed0a24994dc308b8f611b682d9190a25050505050565b3360008181526002602052604090205460ff1661106a576040805162461bcd60e51b815260206004820152601460248201527313dddb995c88191bd95cc81b9bdd08195e1a5cdd60621b604482015290519081900360640190fd5b8161107481611c0e565b6110b8576040805162461bcd60e51b815260206004820152601060248201526f151e08191bd95cdb89dd08195e1a5cdd60821b604482015290519081900360640190fd5b60008381526001602090815260408083203380855292529091205484919060ff1615611124576040805162461bcd60e51b81526020600482015260166024820152750e881a5cc8185b1c9958591e4818dbdb999a5c9b595960521b604482015290519081900360640190fd5b6000858152600160208181526040808420338086529252808420805460ff1916909317909255905187927fe1c52dc63b719ade82e8bea94cc41a0d5d28e4aaf536adb5e9cccc9ff8c1aeda91a361117a856115fb565b5050505050565b600061118e848484611c2b565b949350505050565b600454606090819067ffffffffffffffff811180156111b457600080fd5b506040519080825280602002602001820160405280156111de578160200160208202803683370190505b5090506000805b6004548110156112a1576000858152600160205260408120600480549192918490811061120e57fe5b60009182526020808320909101546001600160a01b0316835282019290925260400190205460ff1615611299576004818154811061124857fe5b9060005260206000200160009054906101000a90046001600160a01b031683838151811061127257fe5b60200260200101906001600160a01b031690816001600160a01b0316815250506001820191505b6001016111e5565b8167ffffffffffffffff811180156112b857600080fd5b506040519080825280602002602001820160405280156112e2578160200160208202803683370190505b509350600090505b81811015611332578281815181106112fe57fe5b602002602001015184828151811061131257fe5b6001600160a01b03909216602092830291909101909101526001016112ea565b505050919050565b6060600480548060200260200160405190810160405280929190818152602001828054801561139257602002820191906000526020600020905b81546001600160a01b03168152600190910190602001808311611374575b5050505050905090565b60009182526001602090815260408084206001600160a01b0393909316845291905290205460ff1690565b60065481565b33301461140f576040805162461bcd60e51b815260206004820152600b60248201526a13db9b1e481dd85b1b195d60aa1b604482015290519081900360640190fd5b60045481603282118015906114245750818111155b801561142f57508015155b801561143a57508115155b611481576040805162461bcd60e51b81526020600482015260136024820152721a5b9d985b1a59081c995c5d5a5c995b595b9d606a1b604482015290519081900360640190fd5b60058390556040805184815290517fa3f1ee9126a074d9326c682f561767f710e927faa811f7a99829d49dc421797a9181900360200190a1505050565b6000606060008060006114cf611e61565b600087815260036020908152604080832054835282825291829020825160c08101845281546001600160a01b03168152600180830154828501526002808401805487516101009482161594909402600019011691909104601f810186900486028301860187528083529295939493860193919290918301828280156115955780601f1061156a57610100808354040283529160200191611595565b820191906000526020600020905b81548152906001019060200180831161157857829003601f168201915b5050509183525050600382015460ff1615156020820152600482015460408083019190915260059092015460609182015260a083015191830151835191840151608090940151929b909a50909850919650945092505050565b600061118e848484611cc0565b3360008181526002602052604090205460ff16611656576040805162461bcd60e51b815260206004820152601460248201527313dddb995c88191bd95cc81b9bdd08195e1a5cdd60621b604482015290519081900360640190fd5b60008281526001602090815260408083203380855292529091205483919060ff166116ba576040805162461bcd60e51b815260206004820152600f60248201526e0e881b9bdd0818dbdb999a5c9b5959608a1b604482015290519081900360640190fd5b600084815260208190526040902060030154849060ff161561171b576040805162461bcd60e51b81526020600482015260156024820152740e881d1e08185b1c9958591e48195e1958dd5d1959605a1b604482015290519081900360640190fd5b61172485610d8d565b1561117a576000858152602081815260409182902060038101805460ff19166001908117909155815481830154600280850180548851601f6000199783161561010002979097019091169290920494850187900487028201870190975283815293956117f6956001600160a01b039093169491939283908301828280156117ec5780601f106117c1576101008083540402835291602001916117ec565b820191906000526020600020905b8154815290600101906020018083116117cf57829003601f168201915b5050505050611e3e565b1561182b5760405186907f7e9e1cb65db4927b1815f498cbaa226a15c277816f7df407573682110522c9b190600090a2611863565b60405186907fdbe42d02a4e07d7eeff2874efe172540c93b297d206f6d691c9782a257323e3290600090a260038101805460ff191690555b505050505050565b603281565b60055481565b3330146118b8576040805162461bcd60e51b815260206004820152600b60248201526a13db9b1e481dd85b1b195d60aa1b604482015290519081900360640190fd5b6001600160a01b038216600090815260026020526040902054829060ff1661191e576040805162461bcd60e51b815260206004820152601460248201527313dddb995c88191bd95cc81b9bdd08195e1a5cdd60621b604482015290519081900360640190fd5b6001600160a01b038216600090815260026020526040902054829060ff161561197d576040805162461bcd60e51b815260206004820152600c60248201526b4f776e65722065786973747360a01b604482015290519081900360640190fd5b60005b600454811015611a0557846001600160a01b0316600482815481106119a157fe5b6000918252602090912001546001600160a01b031614156119fd5783600482815481106119ca57fe5b9060005260206000200160006101000a8154816001600160a01b0302191690836001600160a01b03160217905550611a05565b600101611980565b506001600160a01b03808516600081815260026020526040808220805460ff1990811690915593871682528082208054909416600117909355915190917f8001553a916ef2f495d26a907cc54d96ed840d7bda71e73194bf5a9df7a76b9091a26040516001600160a01b038416907ff39e6e1eb0edcf53c221607b54b00cd28f3196fed0a24994dc308b8f611b682d90600090a250505050565b3360008181526002602052604090205460ff16611afa576040805162461bcd60e51b815260206004820152601460248201527313dddb995c88191bd95cc81b9bdd08195e1a5cdd60621b604482015290519081900360640190fd5b60008281526001602090815260408083203380855292529091205483919060ff16611b5e576040805162461bcd60e51b815260206004820152600f60248201526e0e881b9bdd0818dbdb999a5c9b5959608a1b604482015290519081900360640190fd5b600084815260208190526040902060030154849060ff1615611bbf576040805162461bcd60e51b81526020600482015260156024820152740e881d1e08185b1c9958591e48195e1958dd5d1959605a1b604482015290519081900360640190fd5b6000858152600160209081526040808320338085529252808320805460ff191690555187927f9aec1a62b961581534d37fd62d35e3648f05a17b1f986eda1d1a9d97b147840691a35050505050565b6000908152602081905260409020546001600160a01b0316151590565b600083838360405160200180846001600160a01b031660601b815260140183815260200182805190602001908083835b60208310611c7a5780518252601f199092019160209182019101611c5b565b6001836020036101000a03801982511681845116808217855250505050505090500193505050506040516020818303038152906040528051906020012090509392505050565b6000836001600160a01b038116611d12576040805162461bcd60e51b81526020600482015260116024820152700e881859191c995cdcc81a5cc81b9d5b1b607a1b604482015290519081900360640190fd5b611d1d858585611c2b565b9150611d2882611c0e565b611e2d576040805160c0810182526001600160a01b038781168252602080830188815283850188815260006060860181905242608087015260a0860189905288815280845295909520845181546001600160a01b03191694169390931783555160018301559251805192939192611da59260028501920190611ea5565b5060608201516003828101805460ff1916921515929092179091556080830151600483015560a090920151600590910155600680546000908152602092909252604090912083905580546001019055611dfd8261100f565b60405182907f1b15da2a2b1f440c8fb970f04466e7ccd3a8215634645d232bbc23c75785b5bb90600090a2611e36565b611e368261100f565b509392505050565b6000806040516020840160008287838a8c6187965a03f198975050505050505050565b6040518060c0016040528060006001600160a01b03168152602001600081526020016060815260200160001515815260200160008152602001600080191681525090565b828054600181600116156101000203166002900490600052602060002090601f016020900481019282601f10611ee657805160ff1916838001178555611f13565b82800160010185558215611f13579182015b82811115611f13578251825591602001919060010190611ef8565b50611f1f929150611f23565b5090565b5b80821115611f1f5760008155600101611f2456fea2646970667358221220fcbc073d715a8ba68213b444eec2fd9c31d71d2ec63df45cec1a17f8dea8d2a164736f6c634300060c0033",
  "immutableReferences": {},
  "source": "// SPDX-License-Identifier: LGPLv3\npragma solidity >=0.5.0 <0.7.0;\n\n/// @title Multisignature wallet - Allows multiple parties to agree on transactions before execution.\n/// @author Stefan George - <stefan.george@consensys.net>\ncontract MultiSigHashed {\n\n    /*\n     *  Events\n     */\n    event Confirmation(address indexed sender, bytes32 indexed hash);\n    event Revocation(address indexed sender, bytes32 indexed hash);\n    event Submission(bytes32 indexed hash);\n    event Execution(bytes32 indexed hash);\n    event ExecutionFailure(bytes32 indexed hash);\n    event Deposit(address indexed sender, uint256 value);\n    event OwnerAddition(address indexed owner);\n    event OwnerRemoval(address indexed owner);\n    event RequirementChange(uint256 required);\n\n    /*\n     *  Constants\n     */\n    uint256 constant public MAX_OWNER_COUNT = 50;\n\n    /*\n     *  Storage\n     */\n    mapping (bytes32 => Transaction) public transactions;\n    mapping (bytes32 => mapping (address => bool)) public confirmations;\n    mapping (address => bool) public isOwner;\n    mapping (uint256 => bytes32) public hashes;\n    address[] public owners;\n    uint256 public required;\n    uint256 public transactionCount;\n\n    struct Transaction {\n        address destination;\n        uint256 value;\n        bytes data;\n        bool executed;\n        uint256 timestamp;\n        bytes32 hash;\n    }\n\n    /*\n     *  Modifiers\n     */\n    modifier onlyWallet() {\n        require(msg.sender == address(this), \"Only wallet\");\n        _;\n    }\n\n    modifier ownerDoesNotExist(address owner) {\n        require(!isOwner[owner], \"Owner exists\");\n        _;\n    }\n\n    modifier ownerExists(address owner) {\n        require(isOwner[owner], \"Owner does not exist\");\n        _;\n    }\n\n    modifier transactionExists(bytes32 hash) {\n        require(_transactionExists(hash), \"Tx doesn't exist\");\n        _;\n    }\n\n    modifier confirmed(bytes32 hash, address owner) {\n        require(confirmations[hash][owner], \": not confirmed\");\n        _;\n    }\n\n    modifier notConfirmed(bytes32 hash, address owner) {\n        require(!confirmations[hash][owner], \": is already confirmed\");\n        _;\n    }\n\n    function ownerHasConfirmed(bytes32 hash, address owner) public view returns (bool) {\n        return confirmations[hash][owner];\n    }\n\n    modifier notExecuted(bytes32 hash) {\n        require(!transactions[hash].executed, \": tx already executed\");\n        _;\n    }\n\n    modifier notNull(address _address) {\n        require(_address != address(0), \": address is null\");\n        _;\n    }\n\n    modifier validRequirement(uint256 ownerCount, uint256 _required) {\n        require(ownerCount <= MAX_OWNER_COUNT && _required <= ownerCount && _required != 0 && ownerCount != 0, \"invalid requirement\");\n        _;\n    }\n\n    /// @dev Fallback function allows to deposit ether.\n    fallback() external payable {\n        if (msg.value > 0)\n            emit Deposit(msg.sender, msg.value);\n    }\n\n    // @dev Explicitly defined function for receiving ether.\n    receive() external payable {\n        if (msg.value > 0)\n            emit Deposit(msg.sender, msg.value);\n    }\n\n    /*\n     * Public functions\n     */\n    /// @dev Contract constructor sets initial owners and required number of confirmations.\n    /// @param _owners List of initial owners.\n    /// @param _required Number of required confirmations.\n    constructor(address[] memory _owners, uint256 _required) public validRequirement(_owners.length, _required) {\n        for (uint256 i = 0; i < _owners.length; i++) {\n            require(!isOwner[_owners[i]], \"is already owner\");\n            require(_owners[i] != address(0), \"is null address\");\n            isOwner[_owners[i]] = true;\n        }\n        owners = _owners;\n        required = _required;\n    }\n\n    /// @dev Allows to add a new owner. Transaction has to be sent by wallet.\n    /// @param owner Address of new owner to add.\n    function addOwner(address owner)  public\n        onlyWallet\n        ownerDoesNotExist(owner)\n        notNull(owner)\n        validRequirement(owners.length + 1, required)\n    {\n        isOwner[owner] = true;\n        owners.push(owner);\n        emit OwnerAddition(owner);\n    }\n\n    /// @dev Allows to remove an owner. Transaction has to be sent by wallet.\n    /// @param owner Address of owner to remove.\n    function removeOwner(address owner) public onlyWallet ownerExists(owner) {\n        isOwner[owner] = false;\n        for (uint256 i = 0; i < owners.length - 1; i++){\n            if (owners[i] == owner) {\n                owners[i] = owners[owners.length - 1];\n                break;\n            }\n        }\n        owners.pop();\n        if (required > owners.length)\n            changeRequirement(owners.length);\n        emit OwnerRemoval(owner);\n    }\n\n    /// @dev Allows to replace an owner with a new owner. Transaction has to be sent by wallet.\n    /// @param owner Address of owner to be replaced.\n    /// @param newOwner Address of new owner.\n    function replaceOwner(address owner, address newOwner) public onlyWallet ownerExists(owner) ownerDoesNotExist(newOwner) {\n        for(uint256 i = 0; i < owners.length; i++) {\n            if (owners[i] == owner) {\n                owners[i] = newOwner;\n                break;\n            }\n        }\n        isOwner[owner] = false;\n        isOwner[newOwner] = true;\n        emit OwnerRemoval(owner);\n        emit OwnerAddition(newOwner);\n    }\n\n    /// @dev Allows to change the number of required confirmations. Transaction has to be sent by wallet.\n    /// @param _required Number of required confirmations.\n    function changeRequirement(uint256 _required) public onlyWallet validRequirement(owners.length, _required) {\n        required = _required;\n        emit RequirementChange(_required);\n    }\n\n    /// @dev Allows an owner to submit and confirm a transaction.\n    /// @param destination Transaction target address.\n    /// @param value Transaction ether value.\n    /// @param data Transaction data payload.\n    /// @return hash representing transaction ID.\n    function submitTransaction(address destination, uint256 value, bytes memory data) public returns (bytes32 hash) {\n        return addTransaction(destination, value, data);\n        //confirmTransaction(hash);\n    }\n\n    /// @dev Allows an owner to confirm a transaction.\n    /// @param hash Transaction ID.\n    function confirmTransaction(bytes32 hash) public\n        ownerExists(msg.sender)\n        transactionExists(hash)\n        notConfirmed(hash, msg.sender)\n    {\n        confirmations[hash][msg.sender] = true;\n        emit Confirmation(msg.sender, hash);\n        executeTransaction(hash);\n    }\n\n    /// @dev Allows an owner to revoke a confirmation for a transaction.\n    /// @param hash Transaction ID.\n    function revokeConfirmation(bytes32 hash) public\n        ownerExists(msg.sender)\n        confirmed(hash, msg.sender)\n        notExecuted(hash)\n    {\n        confirmations[hash][msg.sender] = false;\n        emit Revocation(msg.sender, hash);\n    }\n\n    /// @dev Allows anyone to execute a confirmed transaction.\n    /// @param hash Transaction ID.\n    function executeTransaction(bytes32 hash) public\n        ownerExists(msg.sender)\n        confirmed(hash, msg.sender)\n        notExecuted(hash)\n    {\n        if (isConfirmed(hash)) {\n            Transaction storage txn = transactions[hash];\n            txn.executed = true;\n            if (external_call(txn.destination, txn.value, txn.data.length, txn.data))\n                emit Execution(hash);\n            else {\n                emit ExecutionFailure(hash);\n                txn.executed = false;\n            }\n        }\n    }\n\n    // call has been separated into its own function in order to take advantage\n    // of the Solidity's code generator to produce a loop that copies tx.data into memory.\n    function external_call(address destination, uint256 value, uint256 dataLength, bytes memory data) internal returns (bool) {\n        bool result;\n        assembly {\n            let x := mload(0x40)   // \"Allocate\" memory for output (0x40 is where \"free memory\" pointer is stored by convention)\n            let d := add(data, 32) // First 32 bytes are the padded length of data, so exclude that\n            result := call(sub(gas(), 34710),   // 34710 is the value that solidity is currently emitting\n                                   // It includes callGas (700) + callVeryLow (3, to pay for SUB) + callValueTransferGas (9000) +\n                                   // callNewAccountGas (25000, in case the destination address does not exist and needs creating)\n                destination,\n                value,\n                d,\n                dataLength,        // Size of the input (in bytes) - this is what fixes the padding problem\n                x,\n                0                  // Output is ignored, therefore the output size is zero\n            )\n        }\n        return result;\n    }\n\n    /// @dev Returns the confirmation status of a transaction.\n    /// @param hash Transaction ID.\n    /// @return Confirmation status.\n    function isConfirmed(bytes32 hash) public view returns (bool) {\n        uint256 count = 0;\n        for (uint256 i = 0; i < owners.length; i++) {\n            if (confirmations[hash][owners[i]])\n                count += 1;\n            if (count == required)\n                return true;\n        }\n    }\n\n    /*\n     * Internal functions\n     */\n    /// @dev Adds a new transaction to the transaction mapping, if transaction does not exist yet.\n    /// @param destination Transaction target address.\n    /// @param value Transaction ether value.\n    /// @param data Transaction data payload.\n    function addTransaction(address destination, uint256 value, bytes memory data) internal\n        notNull(destination) returns (bytes32 hash) {\n        hash = _toHash(destination, value, data);\n        if (!_transactionExists(hash)) {\n            transactions[hash] = Transaction({\n                hash: hash,\n                destination: destination,\n                value: value,\n                data: data,\n                executed: false,\n                timestamp: now\n            });\n            hashes[transactionCount] = hash;\n            transactionCount += 1;\n            confirmTransaction(hash);\n            emit Submission(hash);\n        } else {\n            confirmTransaction(hash);\n        }\n    }\n\n    function makeHash(address destination, uint256 value, bytes memory data) public pure returns (bytes32 hash) {\n        return _toHash(destination, value, data);\n    }\n\n    /*\n     * Web3 call functions\n     */\n    /// @dev Returns number of confirmations of a transaction.\n    /// @param hash Transaction ID.\n    /// @return count of confirmations.\n    function getConfirmationCount(bytes32 hash) public view returns (uint256 count) {\n        for (uint256 i = 0; i < owners.length; i++) {\n            if (confirmations[hash][owners[i]])  count += 1;\n        }\n    }\n\n    /// @dev Returns list of owners.\n    /// @return address list of owner addresses.\n    function getOwners() public view returns (address[] memory) {\n        return owners;\n    }\n\n    /// @dev Returns array with owner addresses, which confirmed transaction.\n    /// @param hash Transaction ID.\n    function getConfirmations(bytes32 hash) public view returns (address[] memory _confirmations) {\n        address[] memory confirmationsTemp = new address[](owners.length);\n        uint256 count = 0;\n        uint256 i;\n        for (i = 0; i < owners.length; i++) {\n            if (confirmations[hash][owners[i]]) {\n                confirmationsTemp[count] = owners[i];\n                count += 1;\n            }\n        }\n        _confirmations = new address[](count);\n        for (i = 0; i < count; i++) {\n            _confirmations[i] = confirmationsTemp[i];\n        }\n    }\n\n    function getTransaction(bytes32 hash) public view returns (bytes32, bytes memory, address, bool, uint256) {\n        Transaction memory txn = transactions[hash];\n        return (\n            hash,\n            txn.data,\n            txn.destination,\n            txn.executed,\n            txn.timestamp\n        );\n    }\n\n    function getTransactionByIdx(uint256 idx) public view returns (bytes32, bytes memory, address, bool, uint256)  {\n        Transaction memory txn = transactions[hashes[idx]];\n        return (\n            txn.hash,\n            txn.data,\n            txn.destination,\n            txn.executed,\n            txn.timestamp\n        );\n    }\n\n    function _toHash(address destination, uint256 value, bytes memory data) internal pure returns (bytes32) {\n        return keccak256(abi.encodePacked(destination, value, data));\n    }\n\n    function _transactionExists(bytes32 hash) internal view returns (bool) {\n        return (transactions[hash].destination != address(0));\n    }\n\n    \n}\n",
  "sourcePath": "/projects/dealrooms/ethereum/contracts/multisig/MultiSigHashed.sol",
  "compiler": {
    "name": "solc",
    "version": "0.6.12+commit.27d51765.Emscripten.clang"
  },
  "schemaVersion": "3.1.0",
  "updatedAt": "2021-02-05T02:14:56.796Z",
  "devdoc": {
    "author": "Stefan George - <stefan.george@consensys.net>",
    "kind": "dev",
    "methods": {
      "addOwner(address)": {
        "details": "Allows to add a new owner. Transaction has to be sent by wallet.",
        "params": {
          "owner": "Address of new owner to add."
        }
      },
      "changeRequirement(uint256)": {
        "details": "Allows to change the number of required confirmations. Transaction has to be sent by wallet.",
        "params": {
          "_required": "Number of required confirmations."
        }
      },
      "confirmTransaction(bytes32)": {
        "details": "Allows an owner to confirm a transaction.",
        "params": {
          "hash": "Transaction ID."
        }
      },
      "constructor": {
        "details": "Contract constructor sets initial owners and required number of confirmations.",
        "params": {
          "_owners": "List of initial owners.",
          "_required": "Number of required confirmations."
        }
      },
      "executeTransaction(bytes32)": {
        "details": "Allows anyone to execute a confirmed transaction.",
        "params": {
          "hash": "Transaction ID."
        }
      },
      "getConfirmationCount(bytes32)": {
        "details": "Returns number of confirmations of a transaction.",
        "params": {
          "hash": "Transaction ID."
        },
        "returns": {
          "count": "of confirmations."
        }
      },
      "getConfirmations(bytes32)": {
        "details": "Returns array with owner addresses, which confirmed transaction.",
        "params": {
          "hash": "Transaction ID."
        }
      },
      "getOwners()": {
        "details": "Returns list of owners.",
        "returns": {
          "_0": "address list of owner addresses."
        }
      },
      "isConfirmed(bytes32)": {
        "details": "Returns the confirmation status of a transaction.",
        "params": {
          "hash": "Transaction ID."
        },
        "returns": {
          "_0": "Confirmation status."
        }
      },
      "removeOwner(address)": {
        "details": "Allows to remove an owner. Transaction has to be sent by wallet.",
        "params": {
          "owner": "Address of owner to remove."
        }
      },
      "replaceOwner(address,address)": {
        "details": "Allows to replace an owner with a new owner. Transaction has to be sent by wallet.",
        "params": {
          "newOwner": "Address of new owner.",
          "owner": "Address of owner to be replaced."
        }
      },
      "revokeConfirmation(bytes32)": {
        "details": "Allows an owner to revoke a confirmation for a transaction.",
        "params": {
          "hash": "Transaction ID."
        }
      },
      "submitTransaction(address,uint256,bytes)": {
        "details": "Allows an owner to submit and confirm a transaction.",
        "params": {
          "data": "Transaction data payload.",
          "destination": "Transaction target address.",
          "value": "Transaction ether value."
        },
        "returns": {
          "hash": "representing transaction ID."
        }
      }
    },
    "title": "Multisignature wallet - Allows multiple parties to agree on transactions before execution.",
    "version": 1
  },
  "userdoc": {
    "kind": "user",
    "methods": {},
    "version": 1
  }
}