{
  "contractName": "MultiSigHashed",
  "abi": [
    {
      "inputs": [
        {
          "internalType": "address[]",
          "name": "_owners",
          "type": "address[]"
        },
        {
          "internalType": "uint256",
          "name": "_required",
          "type": "uint256"
        }
      ],
      "stateMutability": "nonpayable",
      "type": "constructor"
    },
    {
      "anonymous": false,
      "inputs": [
        {
          "indexed": true,
          "internalType": "address",
          "name": "sender",
          "type": "address"
        },
        {
          "indexed": true,
          "internalType": "bytes32",
          "name": "hash",
          "type": "bytes32"
        }
      ],
      "name": "Confirmation",
      "type": "event"
    },
    {
      "anonymous": false,
      "inputs": [
        {
          "indexed": true,
          "internalType": "address",
          "name": "sender",
          "type": "address"
        },
        {
          "indexed": false,
          "internalType": "uint256",
          "name": "value",
          "type": "uint256"
        }
      ],
      "name": "Deposit",
      "type": "event"
    },
    {
      "anonymous": false,
      "inputs": [
        {
          "indexed": true,
          "internalType": "bytes32",
          "name": "hash",
          "type": "bytes32"
        }
      ],
      "name": "Execution",
      "type": "event"
    },
    {
      "anonymous": false,
      "inputs": [
        {
          "indexed": true,
          "internalType": "bytes32",
          "name": "hash",
          "type": "bytes32"
        }
      ],
      "name": "ExecutionFailure",
      "type": "event"
    },
    {
      "anonymous": false,
      "inputs": [
        {
          "indexed": true,
          "internalType": "address",
          "name": "owner",
          "type": "address"
        }
      ],
      "name": "OwnerAddition",
      "type": "event"
    },
    {
      "anonymous": false,
      "inputs": [
        {
          "indexed": true,
          "internalType": "address",
          "name": "owner",
          "type": "address"
        }
      ],
      "name": "OwnerRemoval",
      "type": "event"
    },
    {
      "anonymous": false,
      "inputs": [
        {
          "indexed": false,
          "internalType": "uint256",
          "name": "required",
          "type": "uint256"
        }
      ],
      "name": "RequirementChange",
      "type": "event"
    },
    {
      "anonymous": false,
      "inputs": [
        {
          "indexed": true,
          "internalType": "address",
          "name": "sender",
          "type": "address"
        },
        {
          "indexed": true,
          "internalType": "bytes32",
          "name": "hash",
          "type": "bytes32"
        }
      ],
      "name": "Revocation",
      "type": "event"
    },
    {
      "anonymous": false,
      "inputs": [
        {
          "indexed": true,
          "internalType": "bytes32",
          "name": "hash",
          "type": "bytes32"
        }
      ],
      "name": "Submission",
      "type": "event"
    },
    {
      "stateMutability": "payable",
      "type": "fallback"
    },
    {
      "inputs": [],
      "name": "MAX_OWNER_COUNT",
      "outputs": [
        {
          "internalType": "uint256",
          "name": "",
          "type": "uint256"
        }
      ],
      "stateMutability": "view",
      "type": "function"
    },
    {
      "inputs": [
        {
          "internalType": "bytes32",
          "name": "",
          "type": "bytes32"
        },
        {
          "internalType": "address",
          "name": "",
          "type": "address"
        }
      ],
      "name": "confirmations",
      "outputs": [
        {
          "internalType": "bool",
          "name": "",
          "type": "bool"
        }
      ],
      "stateMutability": "view",
      "type": "function"
    },
    {
      "inputs": [
        {
          "internalType": "uint256",
          "name": "",
          "type": "uint256"
        }
      ],
      "name": "hashes",
      "outputs": [
        {
          "internalType": "bytes32",
          "name": "",
          "type": "bytes32"
        }
      ],
      "stateMutability": "view",
      "type": "function"
    },
    {
      "inputs": [
        {
          "internalType": "address",
          "name": "",
          "type": "address"
        }
      ],
      "name": "isOwner",
      "outputs": [
        {
          "internalType": "bool",
          "name": "",
          "type": "bool"
        }
      ],
      "stateMutability": "view",
      "type": "function"
    },
    {
      "inputs": [
        {
          "internalType": "uint256",
          "name": "",
          "type": "uint256"
        }
      ],
      "name": "owners",
      "outputs": [
        {
          "internalType": "address",
          "name": "",
          "type": "address"
        }
      ],
      "stateMutability": "view",
      "type": "function"
    },
    {
      "inputs": [],
      "name": "required",
      "outputs": [
        {
          "internalType": "uint256",
          "name": "",
          "type": "uint256"
        }
      ],
      "stateMutability": "view",
      "type": "function"
    },
    {
      "inputs": [],
      "name": "transactionCount",
      "outputs": [
        {
          "internalType": "uint256",
          "name": "",
          "type": "uint256"
        }
      ],
      "stateMutability": "view",
      "type": "function"
    },
    {
      "inputs": [
        {
          "internalType": "bytes32",
          "name": "",
          "type": "bytes32"
        }
      ],
      "name": "transactions",
      "outputs": [
        {
          "internalType": "address",
          "name": "destination",
          "type": "address"
        },
        {
          "internalType": "uint256",
          "name": "value",
          "type": "uint256"
        },
        {
          "internalType": "bytes",
          "name": "data",
          "type": "bytes"
        },
        {
          "internalType": "bool",
          "name": "executed",
          "type": "bool"
        },
        {
          "internalType": "uint256",
          "name": "timestamp",
          "type": "uint256"
        },
        {
          "internalType": "bytes32",
          "name": "hash",
          "type": "bytes32"
        }
      ],
      "stateMutability": "view",
      "type": "function"
    },
    {
      "stateMutability": "payable",
      "type": "receive"
    },
    {
      "inputs": [
        {
          "internalType": "bytes32",
          "name": "hash",
          "type": "bytes32"
        },
        {
          "internalType": "address",
          "name": "owner",
          "type": "address"
        }
      ],
      "name": "ownerHasConfirmed",
      "outputs": [
        {
          "internalType": "bool",
          "name": "",
          "type": "bool"
        }
      ],
      "stateMutability": "view",
      "type": "function"
    },
    {
      "inputs": [
        {
          "internalType": "address",
          "name": "owner",
          "type": "address"
        }
      ],
      "name": "addOwner",
      "outputs": [],
      "stateMutability": "nonpayable",
      "type": "function"
    },
    {
      "inputs": [
        {
          "internalType": "address",
          "name": "owner",
          "type": "address"
        }
      ],
      "name": "removeOwner",
      "outputs": [],
      "stateMutability": "nonpayable",
      "type": "function"
    },
    {
      "inputs": [
        {
          "internalType": "address",
          "name": "owner",
          "type": "address"
        },
        {
          "internalType": "address",
          "name": "newOwner",
          "type": "address"
        }
      ],
      "name": "replaceOwner",
      "outputs": [],
      "stateMutability": "nonpayable",
      "type": "function"
    },
    {
      "inputs": [
        {
          "internalType": "uint256",
          "name": "_required",
          "type": "uint256"
        }
      ],
      "name": "changeRequirement",
      "outputs": [],
      "stateMutability": "nonpayable",
      "type": "function"
    },
    {
      "inputs": [
        {
          "internalType": "address",
          "name": "destination",
          "type": "address"
        },
        {
          "internalType": "uint256",
          "name": "value",
          "type": "uint256"
        },
        {
          "internalType": "bytes",
          "name": "data",
          "type": "bytes"
        }
      ],
      "name": "submitTransaction",
      "outputs": [
        {
          "internalType": "bytes32",
          "name": "hash",
          "type": "bytes32"
        }
      ],
      "stateMutability": "nonpayable",
      "type": "function"
    },
    {
      "inputs": [
        {
          "internalType": "bytes32",
          "name": "hash",
          "type": "bytes32"
        }
      ],
      "name": "confirmTransaction",
      "outputs": [],
      "stateMutability": "nonpayable",
      "type": "function"
    },
    {
      "inputs": [
        {
          "internalType": "bytes32",
          "name": "hash",
          "type": "bytes32"
        }
      ],
      "name": "revokeConfirmation",
      "outputs": [],
      "stateMutability": "nonpayable",
      "type": "function"
    },
    {
      "inputs": [
        {
          "internalType": "bytes32",
          "name": "hash",
          "type": "bytes32"
        }
      ],
      "name": "executeTransaction",
      "outputs": [],
      "stateMutability": "nonpayable",
      "type": "function"
    },
    {
      "inputs": [
        {
          "internalType": "bytes32",
          "name": "hash",
          "type": "bytes32"
        }
      ],
      "name": "isConfirmed",
      "outputs": [
        {
          "internalType": "bool",
          "name": "",
          "type": "bool"
        }
      ],
      "stateMutability": "view",
      "type": "function"
    },
    {
      "inputs": [
        {
          "internalType": "address",
          "name": "destination",
          "type": "address"
        },
        {
          "internalType": "uint256",
          "name": "value",
          "type": "uint256"
        },
        {
          "internalType": "bytes",
          "name": "data",
          "type": "bytes"
        }
      ],
      "name": "makeHash",
      "outputs": [
        {
          "internalType": "bytes32",
          "name": "hash",
          "type": "bytes32"
        }
      ],
      "stateMutability": "pure",
      "type": "function"
    },
    {
      "inputs": [
        {
          "internalType": "bytes32",
          "name": "hash",
          "type": "bytes32"
        }
      ],
      "name": "getConfirmationCount",
      "outputs": [
        {
          "internalType": "uint256",
          "name": "count",
          "type": "uint256"
        }
      ],
      "stateMutability": "view",
      "type": "function"
    },
    {
      "inputs": [],
      "name": "getOwners",
      "outputs": [
        {
          "internalType": "address[]",
          "name": "",
          "type": "address[]"
        }
      ],
      "stateMutability": "view",
      "type": "function"
    },
    {
      "inputs": [
        {
          "internalType": "bytes32",
          "name": "hash",
          "type": "bytes32"
        }
      ],
      "name": "getConfirmations",
      "outputs": [
        {
          "internalType": "address[]",
          "name": "_confirmations",
          "type": "address[]"
        }
      ],
      "stateMutability": "view",
      "type": "function"
    },
    {
      "inputs": [
        {
          "internalType": "bytes32",
          "name": "hash",
          "type": "bytes32"
        }
      ],
      "name": "getTransaction",
      "outputs": [
        {
          "internalType": "bytes32",
          "name": "",
          "type": "bytes32"
        },
        {
          "internalType": "bytes",
          "name": "",
          "type": "bytes"
        },
        {
          "internalType": "address",
          "name": "",
          "type": "address"
        },
        {
          "internalType": "bool",
          "name": "",
          "type": "bool"
        },
        {
          "internalType": "uint256",
          "name": "",
          "type": "uint256"
        }
      ],
      "stateMutability": "view",
      "type": "function"
    },
    {
      "inputs": [
        {
          "internalType": "uint256",
          "name": "idx",
          "type": "uint256"
        }
      ],
      "name": "getTransactionByIdx",
      "outputs": [
        {
          "internalType": "bytes32",
          "name": "",
          "type": "bytes32"
        },
        {
          "internalType": "bytes",
          "name": "",
          "type": "bytes"
        },
        {
          "internalType": "address",
          "name": "",
          "type": "address"
        },
        {
          "internalType": "bool",
          "name": "",
          "type": "bool"
        },
        {
          "internalType": "uint256",
          "name": "",
          "type": "uint256"
        }
      ],
      "stateMutability": "view",
      "type": "function"
    }
  ],
  "bytecode": "0x60806040523480156200001157600080fd5b50604051620022c7380380620022c783398101604081905262000034916200028f565b81518160328211158015620000495750818111155b80156200005557508015155b80156200006157508115155b620000895760405162461bcd60e51b8152600401620000809062000365565b60405180910390fd5b60005b8451811015620001ce5760026000868381518110620000bb57634e487b7160e01b600052603260045260246000fd5b6020908102919091018101516001600160a01b031682528101919091526040016000205460ff1615620001025760405162461bcd60e51b815260040162000080906200039c565b60006001600160a01b03168582815181106200012e57634e487b7160e01b600052603260045260246000fd5b60200260200101516001600160a01b03161415620001605760405162461bcd60e51b81526004016200008090620003c6565b6001600260008784815181106200018757634e487b7160e01b600052603260045260246000fd5b6020908102919091018101516001600160a01b03168252810191909152604001600020805460ff191691151591909117905580620001c581620003ef565b9150506200008c565b508351620001e4906004906020870190620001f1565b505050600555506200042d565b82805482825590600052602060002090810192821562000249579160200282015b828111156200024957825182546001600160a01b0319166001600160a01b0390911617825560209092019160019091019062000212565b50620002579291506200025b565b5090565b5b808211156200025757600081556001016200025c565b80516001600160a01b03811681146200028a57600080fd5b919050565b60008060408385031215620002a2578182fd5b82516001600160401b0380821115620002b9578384fd5b818501915085601f830112620002cd578384fd5b8151602082821115620002e457620002e462000417565b8082026040518282820101818110868211171562000306576200030662000417565b604052838152828101945085830182870184018b101562000325578889fd5b8896505b8487101562000352576200033d8162000272565b86526001969096019594830194830162000329565b5097909101519698969750505050505050565b60208082526013908201527f696e76616c696420726571756972656d656e7400000000000000000000000000604082015260600190565b60208082526010908201526f34b99030b63932b0b23c9037bbb732b960811b604082015260600190565b6020808252600f908201526e6973206e756c6c206164647265737360881b604082015260600190565b60006000198214156200041057634e487b7160e01b81526011600452602481fd5b5060010190565b634e487b7160e01b600052604160045260246000fd5b611e8a806200043d6000396000f3fe60806040526004361061014f5760003560e01c8063969f8a83116100b6578063c64274741161006f578063c642747414610467578063c69ed5f214610487578063d74f8edd146104a7578063dc8452cd146104bc578063e20056e6146104d1578063f3fc536d146104f15761019e565b8063969f8a83146103b0578063a0e67e2b146103dd578063a96bf00c146103f2578063b77bf60014610412578063ba51a6df14610427578063bdfd2793146104475761019e565b8063501895ae11610108578063501895ae146102de578063642f2eaf146102fe5780636486aa51146103305780637065cb481461035057806379716e4314610370578063915c219e146103905761019e565b8063025e7c27146101dd5780630c4ecab414610213578063113642e514610240578063173825d91461026d5780632f54bf6e1461028d5780634aae13ca146102ad5761019e565b3661019e57341561019c57336001600160a01b03167fe1fffcc4923d04b559f4d29a8bfc6cda04eb5b0d3c460751c2402c5c5cc9109c346040516101939190611bae565b60405180910390a25b005b341561019c57336001600160a01b03167fe1fffcc4923d04b559f4d29a8bfc6cda04eb5b0d3c460751c2402c5c5cc9109c346040516101939190611bae565b3480156101e957600080fd5b506101fd6101f8366004611a58565b610511565b60405161020a9190611afd565b60405180910390f35b34801561021f57600080fd5b5061023361022e366004611a70565b61053b565b60405161020a9190611ba3565b34801561024c57600080fd5b5061026061025b366004611a58565b61055b565b60405161020a9190611bae565b34801561027957600080fd5b5061019c610288366004611948565b6105ef565b34801561029957600080fd5b506102336102a8366004611948565b61080d565b3480156102b957600080fd5b506102cd6102c8366004611a58565b610822565b60405161020a959493929190611bb7565b3480156102ea57600080fd5b506102606102f9366004611a58565b61093d565b34801561030a57600080fd5b5061031e610319366004611a58565b61094f565b60405161020a96959493929190611b11565b34801561033c57600080fd5b5061023361034b366004611a58565b610a1c565b34801561035c57600080fd5b5061019c61036b366004611948565b610ac8565b34801561037c57600080fd5b5061019c61038b366004611a58565b610c2d565b34801561039c57600080fd5b506102606103ab36600461199b565b610d1d565b3480156103bc57600080fd5b506103d06103cb366004611a58565b610d32565b60405161020a9190611b56565b3480156103e957600080fd5b506103d0610f6c565b3480156103fe57600080fd5b5061023361040d366004611a70565b610fce565b34801561041e57600080fd5b50610260610ff9565b34801561043357600080fd5b5061019c610442366004611a58565b610fff565b34801561045357600080fd5b506102cd610462366004611a58565b6110a7565b34801561047357600080fd5b5061026061048236600461199b565b6111d3565b34801561049357600080fd5b5061019c6104a2366004611a58565b6111e0565b3480156104b357600080fd5b506102606113dc565b3480156104c857600080fd5b506102606113e1565b3480156104dd57600080fd5b5061019c6104ec366004611969565b6113e7565b3480156104fd57600080fd5b5061019c61050c366004611a58565b6115cf565b6004818154811061052157600080fd5b6000918252602090912001546001600160a01b0316905081565b600160209081526000928352604080842090915290825290205460ff1681565b6000805b6004548110156105e9576000838152600160205260408120600480549192918490811061059c57634e487b7160e01b600052603260045260246000fd5b60009182526020808320909101546001600160a01b0316835282019290925260400190205460ff16156105d7576105d4600183611d79565b91505b806105e181611e0d565b91505061055f565b50919050565b3330146106175760405162461bcd60e51b815260040161060e90611d24565b60405180910390fd5b6001600160a01b038116600090815260026020526040902054819060ff166106515760405162461bcd60e51b815260040161060e90611cf6565b6001600160a01b0382166000908152600260205260408120805460ff191690555b60045461068190600190611d91565b81101561077b57826001600160a01b0316600482815481106106b357634e487b7160e01b600052603260045260246000fd5b6000918252602090912001546001600160a01b0316141561076957600480546106de90600190611d91565b815481106106fc57634e487b7160e01b600052603260045260246000fd5b600091825260209091200154600480546001600160a01b03909216918390811061073657634e487b7160e01b600052603260045260246000fd5b9060005260206000200160006101000a8154816001600160a01b0302191690836001600160a01b0316021790555061077b565b8061077381611e0d565b915050610672565b50600480548061079b57634e487b7160e01b600052603160045260246000fd5b600082815260209020810160001990810180546001600160a01b031916905501905560045460055411156107d5576004546107d590610fff565b6040516001600160a01b038316907f8001553a916ef2f495d26a907cc54d96ed840d7bda71e73194bf5a9df7a76b9090600090a25050565b60026020526000908152604090205460ff1681565b600081815260208181526040808320815160c08101835281546001600160a01b031681526001820154938101939093526002810180546060948694859485948594919284019161087190611dd8565b80601f016020809104026020016040519081016040528092919081815260200182805461089d90611dd8565b80156108ea5780601f106108bf576101008083540402835291602001916108ea565b820191906000526020600020905b8154815290600101906020018083116108cd57829003601f168201915b5050509183525050600382015460ff1615156020820152600482015460408083019190915260059092015460609182015290820151825191830151608090930151999a9099919850919650945092505050565b60036020526000908152604090205481565b6000602081905290815260409020805460018201546002830180546001600160a01b0390931693919261098190611dd8565b80601f01602080910402602001604051908101604052809291908181526020018280546109ad90611dd8565b80156109fa5780601f106109cf576101008083540402835291602001916109fa565b820191906000526020600020905b8154815290600101906020018083116109dd57829003601f168201915b5050505060038301546004840154600590940154929360ff9091169290915086565b600080805b600454811015610ac05760008481526001602052604081206004805491929184908110610a5e57634e487b7160e01b600052603260045260246000fd5b60009182526020808320909101546001600160a01b0316835282019290925260400190205460ff1615610a9957610a96600183611d79565b91505b600554821415610aae57600192505050610ac3565b80610ab881611e0d565b915050610a21565b50505b919050565b333014610ae75760405162461bcd60e51b815260040161060e90611d24565b6001600160a01b038116600090815260026020526040902054819060ff1615610b225760405162461bcd60e51b815260040161060e90611c52565b816001600160a01b038116610b495760405162461bcd60e51b815260040161060e90611ca1565b600454610b57906001611d79565b60055460328211158015610b6b5750818111155b8015610b7657508015155b8015610b8157508115155b610b9d5760405162461bcd60e51b815260040161060e90611bf6565b6001600160a01b038516600081815260026020526040808220805460ff1916600190811790915560048054918201815583527f8a35acfbc15ff81a39ae7d344fd709f28e8600b4aa8c65c6b64bfe7fe36bd19b0180546001600160a01b03191684179055517ff39e6e1eb0edcf53c221607b54b00cd28f3196fed0a24994dc308b8f611b682d9190a25050505050565b3360008181526002602052604090205460ff16610c5c5760405162461bcd60e51b815260040161060e90611cf6565b81610c66816116be565b610c825760405162461bcd60e51b815260040161060e90611ccc565b60008381526001602090815260408083203380855292529091205484919060ff1615610cc05760405162461bcd60e51b815260040161060e90611d49565b6000858152600160208181526040808420338086529252808420805460ff1916909317909255905187927fe1c52dc63b719ade82e8bea94cc41a0d5d28e4aaf536adb5e9cccc9ff8c1aeda91a3610d16856111e0565b5050505050565b6000610d2a8484846116db565b949350505050565b60045460609060009067ffffffffffffffff811115610d6157634e487b7160e01b600052604160045260246000fd5b604051908082528060200260200182016040528015610d8a578160200160208202803683370190505b5090506000805b600454811015610e925760008581526001602052604081206004805491929184908110610dce57634e487b7160e01b600052603260045260246000fd5b60009182526020808320909101546001600160a01b0316835282019290925260400190205460ff1615610e805760048181548110610e1c57634e487b7160e01b600052603260045260246000fd5b9060005260206000200160009054906101000a90046001600160a01b0316838381518110610e5a57634e487b7160e01b600052603260045260246000fd5b6001600160a01b0390921660209283029190910190910152610e7d600183611d79565b91505b80610e8a81611e0d565b915050610d91565b8167ffffffffffffffff811115610eb957634e487b7160e01b600052604160045260246000fd5b604051908082528060200260200182016040528015610ee2578160200160208202803683370190505b509350600090505b81811015610f6457828181518110610f1257634e487b7160e01b600052603260045260246000fd5b6020026020010151848281518110610f3a57634e487b7160e01b600052603260045260246000fd5b6001600160a01b039092166020928302919091019091015280610f5c81611e0d565b915050610eea565b505050919050565b60606004805480602002602001604051908101604052809291908181526020018280548015610fc457602002820191906000526020600020905b81546001600160a01b03168152600190910190602001808311610fa6575b5050505050905090565b60009182526001602090815260408084206001600160a01b0393909316845291905290205460ff1690565b60065481565b33301461101e5760405162461bcd60e51b815260040161060e90611d24565b60045481603282118015906110335750818111155b801561103e57508015155b801561104957508115155b6110655760405162461bcd60e51b815260040161060e90611bf6565b60058390556040517fa3f1ee9126a074d9326c682f561767f710e927faa811f7a99829d49dc421797a9061109a908590611bae565b60405180910390a1505050565b6000818152600360209081526040808320548352828252808320815160c08101835281546001600160a01b031681526001820154938101939093526002810180546060948694859485948594919284019161110190611dd8565b80601f016020809104026020016040519081016040528092919081815260200182805461112d90611dd8565b801561117a5780601f1061114f5761010080835404028352916020019161117a565b820191906000526020600020905b81548152906001019060200180831161115d57829003601f168201915b5050509183525050600382015460ff1615156020820152600482015460408083019190915260059092015460609182015260a083015191830151835191840151608090940151929b909a50909850919650945092505050565b6000610d2a848484611711565b3360008181526002602052604090205460ff1661120f5760405162461bcd60e51b815260040161060e90611cf6565b60008281526001602090815260408083203380855292529091205483919060ff1661124c5760405162461bcd60e51b815260040161060e90611c78565b600084815260208190526040902060030154849060ff16156112805760405162461bcd60e51b815260040161060e90611c23565b61128985610a1c565b15610d1657600085815260208190526040902060038101805460ff19166001908117909155815490820154600283018054611367936001600160a01b03169291906112d390611dd8565b90508460020180546112e490611dd8565b80601f016020809104026020016040519081016040528092919081815260200182805461131090611dd8565b801561135d5780601f106113325761010080835404028352916020019161135d565b820191906000526020600020905b81548152906001019060200180831161134057829003601f168201915b5050505050611875565b1561139c5760405186907f7e9e1cb65db4927b1815f498cbaa226a15c277816f7df407573682110522c9b190600090a26113d4565b60405186907fdbe42d02a4e07d7eeff2874efe172540c93b297d206f6d691c9782a257323e3290600090a260038101805460ff191690555b505050505050565b603281565b60055481565b3330146114065760405162461bcd60e51b815260040161060e90611d24565b6001600160a01b038216600090815260026020526040902054829060ff166114405760405162461bcd60e51b815260040161060e90611cf6565b6001600160a01b038216600090815260026020526040902054829060ff161561147b5760405162461bcd60e51b815260040161060e90611c52565b60005b60045481101561153557846001600160a01b0316600482815481106114b357634e487b7160e01b600052603260045260246000fd5b6000918252602090912001546001600160a01b031614156115235783600482815481106114f057634e487b7160e01b600052603260045260246000fd5b9060005260206000200160006101000a8154816001600160a01b0302191690836001600160a01b03160217905550611535565b8061152d81611e0d565b91505061147e565b506001600160a01b03808516600081815260026020526040808220805460ff1990811690915593871682528082208054909416600117909355915190917f8001553a916ef2f495d26a907cc54d96ed840d7bda71e73194bf5a9df7a76b9091a26040516001600160a01b038416907ff39e6e1eb0edcf53c221607b54b00cd28f3196fed0a24994dc308b8f611b682d90600090a250505050565b3360008181526002602052604090205460ff166115fe5760405162461bcd60e51b815260040161060e90611cf6565b60008281526001602090815260408083203380855292529091205483919060ff1661163b5760405162461bcd60e51b815260040161060e90611c78565b600084815260208190526040902060030154849060ff161561166f5760405162461bcd60e51b815260040161060e90611c23565b6000858152600160209081526040808320338085529252808320805460ff191690555187927f9aec1a62b961581534d37fd62d35e3648f05a17b1f986eda1d1a9d97b147840691a35050505050565b6000908152602081905260409020546001600160a01b0316151590565b60008383836040516020016116f293929190611abe565b6040516020818303038152906040528051906020012090509392505050565b6000836001600160a01b03811661173a5760405162461bcd60e51b815260040161060e90611ca1565b6117458585856116db565b9150611750826116be565b611864576040805160c0810182526001600160a01b038781168252602080830188815283850188815260006060860181905242608087015260a0860189905288815280845295909520845181546001600160a01b031916941693909317835551600183015592518051929391926117cd9260028501920190611898565b5060608201516003828101805460ff1916921515929092179091556080830151600483015560a09092015160059091015560068054600090815260209290925260408220849055805460019290611825908490611d79565b90915550611834905082610c2d565b60405182907f1b15da2a2b1f440c8fb970f04466e7ccd3a8215634645d232bbc23c75785b5bb90600090a261186d565b61186d82610c2d565b509392505050565b6000806040516020840160008287838a8c6187965a03f198975050505050505050565b8280546118a490611dd8565b90600052602060002090601f0160209004810192826118c6576000855561190c565b82601f106118df57805160ff191683800117855561190c565b8280016001018555821561190c579182015b8281111561190c5782518255916020019190600101906118f1565b5061191892915061191c565b5090565b5b80821115611918576000815560010161191d565b80356001600160a01b0381168114610ac357600080fd5b600060208284031215611959578081fd5b61196282611931565b9392505050565b6000806040838503121561197b578081fd5b61198483611931565b915061199260208401611931565b90509250929050565b6000806000606084860312156119af578081fd5b6119b884611931565b92506020808501359250604085013567ffffffffffffffff808211156119dc578384fd5b818701915087601f8301126119ef578384fd5b813581811115611a0157611a01611e3e565b604051601f8201601f1916810185018381118282101715611a2457611a24611e3e565b60405281815283820185018a1015611a3a578586fd5b81858501868301378585838301015280955050505050509250925092565b600060208284031215611a69578081fd5b5035919050565b60008060408385031215611a82578182fd5b8235915061199260208401611931565b60008151808452611aaa816020860160208601611da8565b601f01601f19169290920160200192915050565b60006bffffffffffffffffffffffff198560601b1682528360148301528251611aee816034850160208701611da8565b91909101603401949350505050565b6001600160a01b0391909116815260200190565b600060018060a01b038816825286602083015260c06040830152611b3860c0830187611a92565b941515606083015250608081019290925260a0909101529392505050565b6020808252825182820181905260009190848201906040850190845b81811015611b975783516001600160a01b031683529284019291840191600101611b72565b50909695505050505050565b901515815260200190565b90815260200190565b600086825260a06020830152611bd060a0830187611a92565b6001600160a01b0395909516604083015250911515606083015260809091015292915050565b6020808252601390820152721a5b9d985b1a59081c995c5d5a5c995b595b9d606a1b604082015260600190565b6020808252601590820152740e881d1e08185b1c9958591e48195e1958dd5d1959605a1b604082015260600190565b6020808252600c908201526b4f776e65722065786973747360a01b604082015260600190565b6020808252600f908201526e0e881b9bdd0818dbdb999a5c9b5959608a1b604082015260600190565b6020808252601190820152700e881859191c995cdcc81a5cc81b9d5b1b607a1b604082015260600190565b60208082526010908201526f151e08191bd95cdb89dd08195e1a5cdd60821b604082015260600190565b60208082526014908201527313dddb995c88191bd95cc81b9bdd08195e1a5cdd60621b604082015260600190565b6020808252600b908201526a13db9b1e481dd85b1b195d60aa1b604082015260600190565b6020808252601690820152750e881a5cc8185b1c9958591e4818dbdb999a5c9b595960521b604082015260600190565b60008219821115611d8c57611d8c611e28565b500190565b600082821015611da357611da3611e28565b500390565b60005b83811015611dc3578181015183820152602001611dab565b83811115611dd2576000848401525b50505050565b600281046001821680611dec57607f821691505b602082108114156105e957634e487b7160e01b600052602260045260246000fd5b6000600019821415611e2157611e21611e28565b5060010190565b634e487b7160e01b600052601160045260246000fd5b634e487b7160e01b600052604160045260246000fdfea2646970667358221220c45f452ade718a5fd81f78430b19d38aa80090c793ea24e4eb202e90ba88e93564736f6c63430008000033",
  "immutableReferences": {},
  "source": "// SPDX-License-Identifier: LGPLv3\npragma solidity ^0.8.0;\n\n/// @title Multisignature wallet - Allows multiple parties to agree on transactions before execution.\n/// @author Stefan George - <stefan.george@consensys.net>\ncontract MultiSigHashed {\n\n    /*\n     *  Events\n     */\n    event Confirmation(address indexed sender, bytes32 indexed hash);\n    event Revocation(address indexed sender, bytes32 indexed hash);\n    event Submission(bytes32 indexed hash);\n    event Execution(bytes32 indexed hash);\n    event ExecutionFailure(bytes32 indexed hash);\n    event Deposit(address indexed sender, uint256 value);\n    event OwnerAddition(address indexed owner);\n    event OwnerRemoval(address indexed owner);\n    event RequirementChange(uint256 required);\n\n    /*\n     *  Constants\n     */\n    uint256 constant public MAX_OWNER_COUNT = 50;\n\n    /*\n     *  Storage\n     */\n    mapping (bytes32 => Transaction) public transactions;\n    mapping (bytes32 => mapping (address => bool)) public confirmations;\n    mapping (address => bool) public isOwner;\n    mapping (uint256 => bytes32) public hashes;\n    address[] public owners;\n    uint256 public required;\n    uint256 public transactionCount;\n\n    struct Transaction {\n        address destination;\n        uint256 value;\n        bytes data;\n        bool executed;\n        uint256 timestamp;\n        bytes32 hash;\n    }\n\n    /*\n     *  Modifiers\n     */\n    modifier onlyWallet() {\n        require(msg.sender == address(this), \"Only wallet\");\n        _;\n    }\n\n    modifier ownerDoesNotExist(address owner) {\n        require(!isOwner[owner], \"Owner exists\");\n        _;\n    }\n\n    modifier ownerExists(address owner) {\n        require(isOwner[owner], \"Owner does not exist\");\n        _;\n    }\n\n    modifier transactionExists(bytes32 hash) {\n        require(_transactionExists(hash), \"Tx doesn't exist\");\n        _;\n    }\n\n    modifier confirmed(bytes32 hash, address owner) {\n        require(confirmations[hash][owner], \": not confirmed\");\n        _;\n    }\n\n    modifier notConfirmed(bytes32 hash, address owner) {\n        require(!confirmations[hash][owner], \": is already confirmed\");\n        _;\n    }\n\n    function ownerHasConfirmed(bytes32 hash, address owner) public view returns (bool) {\n        return confirmations[hash][owner];\n    }\n\n    modifier notExecuted(bytes32 hash) {\n        require(!transactions[hash].executed, \": tx already executed\");\n        _;\n    }\n\n    modifier notNull(address _address) {\n        require(_address != address(0), \": address is null\");\n        _;\n    }\n\n    modifier validRequirement(uint256 ownerCount, uint256 _required) {\n        require(ownerCount <= MAX_OWNER_COUNT && _required <= ownerCount && _required != 0 && ownerCount != 0, \"invalid requirement\");\n        _;\n    }\n\n    /// @dev Fallback function allows to deposit ether.\n    fallback() external payable {\n        if (msg.value > 0)\n            emit Deposit(msg.sender, msg.value);\n    }\n\n    // @dev Explicitly defined function for receiving ether.\n    receive() external payable {\n        if (msg.value > 0)\n            emit Deposit(msg.sender, msg.value);\n    }\n\n    /*\n     * Public functions\n     */\n    /// @dev Contract constructor sets initial owners and required number of confirmations.\n    /// @param _owners List of initial owners.\n    /// @param _required Number of required confirmations.\n    constructor(address[] memory _owners, uint256 _required) validRequirement(_owners.length, _required) {\n        for (uint256 i = 0; i < _owners.length; i++) {\n            require(!isOwner[_owners[i]], \"is already owner\");\n            require(_owners[i] != address(0), \"is null address\");\n            isOwner[_owners[i]] = true;\n        }\n        owners = _owners;\n        required = _required;\n    }\n\n    /// @dev Allows to add a new owner. Transaction has to be sent by wallet.\n    /// @param owner Address of new owner to add.\n    function addOwner(address owner)  public\n        onlyWallet\n        ownerDoesNotExist(owner)\n        notNull(owner)\n        validRequirement(owners.length + 1, required)\n    {\n        isOwner[owner] = true;\n        owners.push(owner);\n        emit OwnerAddition(owner);\n    }\n\n    /// @dev Allows to remove an owner. Transaction has to be sent by wallet.\n    /// @param owner Address of owner to remove.\n    function removeOwner(address owner) public onlyWallet ownerExists(owner) {\n        isOwner[owner] = false;\n        for (uint256 i = 0; i < owners.length - 1; i++){\n            if (owners[i] == owner) {\n                owners[i] = owners[owners.length - 1];\n                break;\n            }\n        }\n        owners.pop();\n        if (required > owners.length)\n            changeRequirement(owners.length);\n        emit OwnerRemoval(owner);\n    }\n\n    /// @dev Allows to replace an owner with a new owner. Transaction has to be sent by wallet.\n    /// @param owner Address of owner to be replaced.\n    /// @param newOwner Address of new owner.\n    function replaceOwner(address owner, address newOwner) public onlyWallet ownerExists(owner) ownerDoesNotExist(newOwner) {\n        for(uint256 i = 0; i < owners.length; i++) {\n            if (owners[i] == owner) {\n                owners[i] = newOwner;\n                break;\n            }\n        }\n        isOwner[owner] = false;\n        isOwner[newOwner] = true;\n        emit OwnerRemoval(owner);\n        emit OwnerAddition(newOwner);\n    }\n\n    /// @dev Allows to change the number of required confirmations. Transaction has to be sent by wallet.\n    /// @param _required Number of required confirmations.\n    function changeRequirement(uint256 _required) public onlyWallet validRequirement(owners.length, _required) {\n        required = _required;\n        emit RequirementChange(_required);\n    }\n\n    /// @dev Allows an owner to submit and confirm a transaction.\n    /// @param destination Transaction target address.\n    /// @param value Transaction ether value.\n    /// @param data Transaction data payload.\n    /// @return hash representing transaction ID.\n    function submitTransaction(address destination, uint256 value, bytes memory data) public returns (bytes32 hash) {\n        return addTransaction(destination, value, data);\n        //confirmTransaction(hash);\n    }\n\n    /// @dev Allows an owner to confirm a transaction.\n    /// @param hash Transaction ID.\n    function confirmTransaction(bytes32 hash) public\n        ownerExists(msg.sender)\n        transactionExists(hash)\n        notConfirmed(hash, msg.sender)\n    {\n        confirmations[hash][msg.sender] = true;\n        emit Confirmation(msg.sender, hash);\n        executeTransaction(hash);\n    }\n\n    /// @dev Allows an owner to revoke a confirmation for a transaction.\n    /// @param hash Transaction ID.\n    function revokeConfirmation(bytes32 hash) public\n        ownerExists(msg.sender)\n        confirmed(hash, msg.sender)\n        notExecuted(hash)\n    {\n        confirmations[hash][msg.sender] = false;\n        emit Revocation(msg.sender, hash);\n    }\n\n    /// @dev Allows anyone to execute a confirmed transaction.\n    /// @param hash Transaction ID.\n    function executeTransaction(bytes32 hash) public\n        ownerExists(msg.sender)\n        confirmed(hash, msg.sender)\n        notExecuted(hash)\n    {\n        if (isConfirmed(hash)) {\n            Transaction storage txn = transactions[hash];\n            txn.executed = true;\n            if (external_call(txn.destination, txn.value, txn.data.length, txn.data))\n                emit Execution(hash);\n            else {\n                emit ExecutionFailure(hash);\n                txn.executed = false;\n            }\n        }\n    }\n\n    // call has been separated into its own function in order to take advantage\n    // of the Solidity's code generator to produce a loop that copies tx.data into memory.\n    function external_call(address destination, uint256 value, uint256 dataLength, bytes memory data) internal returns (bool) {\n        bool result;\n        assembly {\n            let x := mload(0x40)   // \"Allocate\" memory for output (0x40 is where \"free memory\" pointer is stored by convention)\n            let d := add(data, 32) // First 32 bytes are the padded length of data, so exclude that\n            result := call(sub(gas(), 34710),   // 34710 is the value that solidity is currently emitting\n                                   // It includes callGas (700) + callVeryLow (3, to pay for SUB) + callValueTransferGas (9000) +\n                                   // callNewAccountGas (25000, in case the destination address does not exist and needs creating)\n                destination,\n                value,\n                d,\n                dataLength,        // Size of the input (in bytes) - this is what fixes the padding problem\n                x,\n                0                  // Output is ignored, therefore the output size is zero\n            )\n        }\n        return result;\n    }\n\n    /// @dev Returns the confirmation status of a transaction.\n    /// @param hash Transaction ID.\n    /// @return Confirmation status.\n    function isConfirmed(bytes32 hash) public view returns (bool) {\n        uint256 count = 0;\n        for (uint256 i = 0; i < owners.length; i++) {\n            if (confirmations[hash][owners[i]])\n                count += 1;\n            if (count == required)\n                return true;\n        }\n    }\n\n    /*\n     * Internal functions\n     */\n    /// @dev Adds a new transaction to the transaction mapping, if transaction does not exist yet.\n    /// @param destination Transaction target address.\n    /// @param value Transaction ether value.\n    /// @param data Transaction data payload.\n    function addTransaction(address destination, uint256 value, bytes memory data) internal\n        notNull(destination) returns (bytes32 hash) {\n        hash = _toHash(destination, value, data);\n        if (!_transactionExists(hash)) {\n            transactions[hash] = Transaction({\n                hash: hash,\n                destination: destination,\n                value: value,\n                data: data,\n                executed: false,\n                timestamp: block.timestamp\n            });\n            hashes[transactionCount] = hash;\n            transactionCount += 1;\n            confirmTransaction(hash);\n            emit Submission(hash);\n        } else {\n            confirmTransaction(hash);\n        }\n    }\n\n    function makeHash(address destination, uint256 value, bytes memory data) public pure returns (bytes32 hash) {\n        return _toHash(destination, value, data);\n    }\n\n    /*\n     * Web3 call functions\n     */\n    /// @dev Returns number of confirmations of a transaction.\n    /// @param hash Transaction ID.\n    /// @return count of confirmations.\n    function getConfirmationCount(bytes32 hash) public view returns (uint256 count) {\n        for (uint256 i = 0; i < owners.length; i++) {\n            if (confirmations[hash][owners[i]])  count += 1;\n        }\n    }\n\n    /// @dev Returns list of owners.\n    /// @return address list of owner addresses.\n    function getOwners() public view returns (address[] memory) {\n        return owners;\n    }\n\n    /// @dev Returns array with owner addresses, which confirmed transaction.\n    /// @param hash Transaction ID.\n    function getConfirmations(bytes32 hash) public view returns (address[] memory _confirmations) {\n        address[] memory confirmationsTemp = new address[](owners.length);\n        uint256 count = 0;\n        uint256 i;\n        for (i = 0; i < owners.length; i++) {\n            if (confirmations[hash][owners[i]]) {\n                confirmationsTemp[count] = owners[i];\n                count += 1;\n            }\n        }\n        _confirmations = new address[](count);\n        for (i = 0; i < count; i++) {\n            _confirmations[i] = confirmationsTemp[i];\n        }\n    }\n\n    function getTransaction(bytes32 hash) public view returns (bytes32, bytes memory, address, bool, uint256) {\n        Transaction memory txn = transactions[hash];\n        return (\n            hash,\n            txn.data,\n            txn.destination,\n            txn.executed,\n            txn.timestamp\n        );\n    }\n\n    function getTransactionByIdx(uint256 idx) public view returns (bytes32, bytes memory, address, bool, uint256)  {\n        Transaction memory txn = transactions[hashes[idx]];\n        return (\n            txn.hash,\n            txn.data,\n            txn.destination,\n            txn.executed,\n            txn.timestamp\n        );\n    }\n\n    function _toHash(address destination, uint256 value, bytes memory data) internal pure returns (bytes32) {\n        return keccak256(abi.encodePacked(destination, value, data));\n    }\n\n    function _transactionExists(bytes32 hash) internal view returns (bool exists) {\n        return (transactions[hash].destination != address(0));\n    }\n\n    \n}\n",
  "sourcePath": "/projects/dealrooms/ethereum/contracts/multisig/MultiSigHashed.sol",
  "compiler": {
    "name": "solc",
    "version": "0.8.0+commit.c7dfd78e.Emscripten.clang"
  },
  "schemaVersion": "3.4.1",
  "updatedAt": "2021-07-01T00:41:39.583Z",
  "devdoc": {
    "author": "Stefan George - <stefan.george@consensys.net>",
    "kind": "dev",
    "methods": {
      "addOwner(address)": {
        "details": "Allows to add a new owner. Transaction has to be sent by wallet.",
        "params": {
          "owner": "Address of new owner to add."
        }
      },
      "changeRequirement(uint256)": {
        "details": "Allows to change the number of required confirmations. Transaction has to be sent by wallet.",
        "params": {
          "_required": "Number of required confirmations."
        }
      },
      "confirmTransaction(bytes32)": {
        "details": "Allows an owner to confirm a transaction.",
        "params": {
          "hash": "Transaction ID."
        }
      },
      "constructor": {
        "details": "Contract constructor sets initial owners and required number of confirmations.",
        "params": {
          "_owners": "List of initial owners.",
          "_required": "Number of required confirmations."
        }
      },
      "executeTransaction(bytes32)": {
        "details": "Allows anyone to execute a confirmed transaction.",
        "params": {
          "hash": "Transaction ID."
        }
      },
      "getConfirmationCount(bytes32)": {
        "details": "Returns number of confirmations of a transaction.",
        "params": {
          "hash": "Transaction ID."
        },
        "returns": {
          "count": "of confirmations."
        }
      },
      "getConfirmations(bytes32)": {
        "details": "Returns array with owner addresses, which confirmed transaction.",
        "params": {
          "hash": "Transaction ID."
        }
      },
      "getOwners()": {
        "details": "Returns list of owners.",
        "returns": {
          "_0": "address list of owner addresses."
        }
      },
      "isConfirmed(bytes32)": {
        "details": "Returns the confirmation status of a transaction.",
        "params": {
          "hash": "Transaction ID."
        },
        "returns": {
          "_0": "Confirmation status."
        }
      },
      "removeOwner(address)": {
        "details": "Allows to remove an owner. Transaction has to be sent by wallet.",
        "params": {
          "owner": "Address of owner to remove."
        }
      },
      "replaceOwner(address,address)": {
        "details": "Allows to replace an owner with a new owner. Transaction has to be sent by wallet.",
        "params": {
          "newOwner": "Address of new owner.",
          "owner": "Address of owner to be replaced."
        }
      },
      "revokeConfirmation(bytes32)": {
        "details": "Allows an owner to revoke a confirmation for a transaction.",
        "params": {
          "hash": "Transaction ID."
        }
      },
      "submitTransaction(address,uint256,bytes)": {
        "details": "Allows an owner to submit and confirm a transaction.",
        "params": {
          "data": "Transaction data payload.",
          "destination": "Transaction target address.",
          "value": "Transaction ether value."
        },
        "returns": {
          "hash": "representing transaction ID."
        }
      }
    },
    "title": "Multisignature wallet - Allows multiple parties to agree on transactions before execution.",
    "version": 1
  },
  "userdoc": {
    "kind": "user",
    "methods": {},
    "version": 1
  }
}