{
  "contractName": "TestContract",
  "abi": [
    {
      "inputs": [
        {
          "internalType": "uint256",
          "name": "_intValue",
          "type": "uint256"
        }
      ],
      "name": "doSomethingInt",
      "outputs": [],
      "stateMutability": "nonpayable",
      "type": "function"
    },
    {
      "inputs": [],
      "name": "getSomethingInt",
      "outputs": [
        {
          "internalType": "uint256",
          "name": "",
          "type": "uint256"
        }
      ],
      "stateMutability": "view",
      "type": "function"
    }
  ],
  "bytecode": "0x608060405234801561001057600080fd5b5060ac8061001f6000396000f3fe6080604052348015600f57600080fd5b506004361060325760003560e01c80635d46730a1460375780639e4ccc3b14604f575b600080fd5b603d606b565b60408051918252519081900360200190f35b606960048036036020811015606357600080fd5b50356071565b005b60005490565b60005556fea2646970667358221220c37ef1943bc8b07f89d0b4e054ed24c88bec21c0f26e68ce9db1573c341aab5864736f6c634300060c0033",
  "immutableReferences": {},
  "source": "pragma solidity >=0.5.0 <0.8.0;\n\ncontract TestContract {\n\n    uint256 intValue;\n\n    function doSomethingInt(uint256 _intValue) public {\n        intValue = _intValue;\n    }\n\n    function getSomethingInt() public view returns (uint256) {\n        return intValue;\n    }\n}",
  "sourcePath": "/projects/dealrooms/ethereum/contracts/TestContract.sol",
  "compiler": {
    "name": "solc",
    "version": "0.6.12+commit.27d51765.Emscripten.clang"
  },
  "schemaVersion": "3.4.1",
  "updatedAt": "2021-05-28T04:44:36.271Z",
  "devdoc": {
    "kind": "dev",
    "methods": {},
    "version": 1
  },
  "userdoc": {
    "kind": "user",
    "methods": {},
    "version": 1
  }
}