{
    "contractName": "DealRoomHub",
    "abi": [
        {
            "anonymous": false,
            "inputs": [
                {
                    "indexed": false,
                    "internalType": "address",
                    "name": "addr",
                    "type": "address"
                }
            ],
            "name": "NewRoomEvent",
            "type": "event"
        },
        {
            "inputs": [
                {
                    "internalType": "address",
                    "name": "buyer",
                    "type": "address"
                },
                {
                    "internalType": "address",
                    "name": "seller",
                    "type": "address"
                }
            ],
            "name": "makeBasicRoom",
            "outputs": [
                {
                    "internalType": "address",
                    "name": "",
                    "type": "address"
                }
            ],
            "stateMutability": "nonpayable",
            "type": "function"
        },
        {
            "inputs": [
                {
                    "components": [
                        {
                            "internalType": "address",
                            "name": "buyer",
                            "type": "address"
                        },
                        {
                            "internalType": "address",
                            "name": "seller",
                            "type": "address"
                        },
                        {
                            "internalType": "address",
                            "name": "arbitrator",
                            "type": "address"
                        },
                        {
                            "internalType": "address",
                            "name": "sensorApprover",
                            "type": "address"
                        },
                        {
                            "internalType": "address",
                            "name": "docApprover",
                            "type": "address"
                        }
                    ],
                    "internalType": "struct DealRoomHub.MakeRoomParams",
                    "name": "params",
                    "type": "tuple"
                }
            ],
            "name": "makeRoom",
            "outputs": [
                {
                    "internalType": "address",
                    "name": "",
                    "type": "address"
                }
            ],
            "stateMutability": "nonpayable",
            "type": "function"
        },
        {
            "inputs": [
                {
                    "internalType": "address",
                    "name": "_user",
                    "type": "address"
                }
            ],
            "name": "getUserRooms",
            "outputs": [
                {
                    "internalType": "address[]",
                    "name": "",
                    "type": "address[]"
                }
            ],
            "stateMutability": "view",
            "type": "function"
        },
        {
            "inputs": [],
            "name": "getAllRooms",
            "outputs": [
                {
                    "internalType": "address[]",
                    "name": "",
                    "type": "address[]"
                }
            ],
            "stateMutability": "view",
            "type": "function"
        },
        {
            "inputs": [
                {
                    "internalType": "address",
                    "name": "addr",
                    "type": "address"
                }
            ],
            "name": "getRoom",
            "outputs": [
                {
                    "components": [
                        {
                            "internalType": "address",
                            "name": "addr",
                            "type": "address"
                        },
                        {
                            "internalType": "address",
                            "name": "buyer",
                            "type": "address"
                        },
                        {
                            "internalType": "address",
                            "name": "seller",
                            "type": "address"
                        },
                        {
                            "internalType": "address",
                            "name": "arbitrator",
                            "type": "address"
                        },
                        {
                            "internalType": "address",
                            "name": "sensorApprover",
                            "type": "address"
                        },
                        {
                            "internalType": "address",
                            "name": "docApprover",
                            "type": "address"
                        },
                        {
                            "internalType": "address",
                            "name": "dealMultiSig",
                            "type": "address"
                        },
                        {
                            "internalType": "address",
                            "name": "agentMultiSig",
                            "type": "address"
                        }
                    ],
                    "internalType": "struct DealRoomHub.DealRoomDetails",
                    "name": "",
                    "type": "tuple"
                }
            ],
            "stateMutability": "view",
            "type": "function"
        },
        {
            "inputs": [],
            "name": "roomCount",
            "outputs": [
                {
                    "internalType": "uint256",
                    "name": "",
                    "type": "uint256"
                }
            ],
            "stateMutability": "view",
            "type": "function"
        },
        {
            "inputs": [
                {
                    "internalType": "address",
                    "name": "newOwner",
                    "type": "address"
                }
            ],
            "name": "changeOwner",
            "outputs": [],
            "stateMutability": "nonpayable",
            "type": "function"
        }
    ],
    "bytecode": "0x608060405234801561001057600080fd5b50614b8a806100206000396000f3fe60806040523480156200001157600080fd5b5060043610620000885760003560e01c8063df93a4e31162000063578063df93a4e314620000fb578063eb1f46821462000114578063ec6d1c02146200013a578063f794cf2d14620001515762000088565b80634966dc0f146200008d578063a6f9dae114620000bc578063b01e796114620000d5575b600080fd5b620000a46200009e36600462000f23565b6200015b565b604051620000b39190620011db565b60405180910390f35b620000d3620000cd36600462000f23565b620001ec565b005b620000ec620000e636600462000f23565b62000244565b604051620000b391906200109e565b62000105620002bc565b604051620000b391906200125e565b6200012b6200012536600462000f81565b620002c2565b604051620000b3919062001070565b6200012b6200014b36600462000f48565b62000b79565b620000ec62000e41565b6200016562000ea5565b506001600160a01b039081166000908152600260208181526040928390208351610100810185528154861681526001820154861692810192909252918201548416928101929092526003810154831660608301526004810154831660808301526005810154831660a08301526006810154831660c08301526007015490911660e082015290565b6000546001600160a01b03163314620002225760405162461bcd60e51b81526004016200021990620011b7565b60405180910390fd5b600080546001600160a01b0319166001600160a01b0392909216919091179055565b6001600160a01b038116600090815260016020908152604091829020805483518184028101840190945280845260609392830182828015620002b057602002820191906000526020600020905b81546001600160a01b0316815260019091019060200180831162000291575b50505050509050919050565b60035490565b60008082600001518360200151604051620002dd9062000ee9565b620002ea92919062001084565b604051809103906000f08015801562000307573d6000803e3d6000fd5b5083519091506001600160a01b0316620003355760405162461bcd60e51b8152600401620002199062001105565b60208301516001600160a01b0316620003625760405162461bcd60e51b815260040162000219906200118f565b60408301516001600160a01b03166200038f5760405162461bcd60e51b8152600401620002199062001163565b60608301516001600160a01b0316620003bc5760405162461bcd60e51b815260040162000219906200112c565b60808301516001600160a01b0316620003e95760405162461bcd60e51b81526004016200021990620010d7565b604080516003808252608082019092526060916020820183803683370190505090508360000151816000815181106200041e57fe5b60200260200101906001600160a01b031690816001600160a01b0316815250508360200151816001815181106200045157fe5b60200260200101906001600160a01b031690816001600160a01b0316815250508360400151816002815181106200048457fe5b60200260200101906001600160a01b031690816001600160a01b0316815250506000816002604051620004b79062000ef7565b620004c4929190620010b3565b604051809103906000f080158015620004e1573d6000803e3d6000fd5b5060408051600380825260808201909252919250606091906020820183803683370190505090508560600151816000815181106200051b57fe5b60200260200101906001600160a01b031690816001600160a01b0316815250508560800151816001815181106200054e57fe5b60200260200101906001600160a01b031690816001600160a01b03168152505081816002815181106200057d57fe5b60200260200101906001600160a01b031690816001600160a01b0316815250506000816003604051620005b09062000ef7565b620005bd929190620010b3565b604051809103906000f080158015620005da573d6000803e3d6000fd5b5060405163a6f9dae160e01b81529091506001600160a01b0386169063a6f9dae1906200060c90849060040162001070565b600060405180830381600087803b1580156200062757600080fd5b505af11580156200063c573d6000803e3d6000fd5b505050506003859080600181540180825580915050600190039060005260206000200160009091909190916101000a8154816001600160a01b0302191690836001600160a01b031602179055506001600088600001516001600160a01b03166001600160a01b03168152602001908152602001600020859080600181540180825580915050600190039060005260206000200160009091909190916101000a8154816001600160a01b0302191690836001600160a01b031602179055506001600088602001516001600160a01b03166001600160a01b03168152602001908152602001600020859080600181540180825580915050600190039060005260206000200160009091909190916101000a8154816001600160a01b0302191690836001600160a01b031602179055506001600088604001516001600160a01b03166001600160a01b03168152602001908152602001600020859080600181540180825580915050600190039060005260206000200160009091909190916101000a8154816001600160a01b0302191690836001600160a01b031602179055506001600088606001516001600160a01b03166001600160a01b03168152602001908152602001600020859080600181540180825580915050600190039060005260206000200160009091909190916101000a8154816001600160a01b0302191690836001600160a01b031602179055506001600088608001516001600160a01b03166001600160a01b03168152602001908152602001600020859080600181540180825580915050600190039060005260206000200160009091909190916101000a8154816001600160a01b0302191690836001600160a01b031602179055508460026000876001600160a01b03166001600160a01b0316815260200190815260200160002060000160006101000a8154816001600160a01b0302191690836001600160a01b03160217905550866000015160026000876001600160a01b03166001600160a01b0316815260200190815260200160002060010160006101000a8154816001600160a01b0302191690836001600160a01b03160217905550866020015160026000876001600160a01b03166001600160a01b0316815260200190815260200160002060020160006101000a8154816001600160a01b0302191690836001600160a01b03160217905550866040015160026000876001600160a01b03166001600160a01b0316815260200190815260200160002060030160006101000a8154816001600160a01b0302191690836001600160a01b03160217905550866060015160026000876001600160a01b03166001600160a01b0316815260200190815260200160002060040160006101000a8154816001600160a01b0302191690836001600160a01b03160217905550866080015160026000876001600160a01b03166001600160a01b0316815260200190815260200160002060050160006101000a8154816001600160a01b0302191690836001600160a01b031602179055508060026000876001600160a01b03166001600160a01b0316815260200190815260200160002060060160006101000a8154816001600160a01b0302191690836001600160a01b031602179055508260026000876001600160a01b03166001600160a01b0316815260200190815260200160002060070160006101000a8154816001600160a01b0302191690836001600160a01b031602179055507f737c7ccf6d56ea889d48343f42ff5094f91b0ef3378198334723e3588f88c8f68560405162000b66919062001070565b60405180910390a1509295945050505050565b600080838360405162000b8c9062000ee9565b62000b9992919062001084565b604051809103906000f08015801562000bb6573d6000803e3d6000fd5b5090506001600160a01b03841662000be25760405162461bcd60e51b8152600401620002199062001105565b6001600160a01b03831662000c0b5760405162461bcd60e51b815260040162000219906200118f565b6040805160028082526060808301845292602083019080368337019050509050848160008151811062000c3a57fe5b60200260200101906001600160a01b031690816001600160a01b031681525050838160018151811062000c6957fe5b60200260200101906001600160a01b031690816001600160a01b031681525050600081600260405162000c9c9062000ef7565b62000ca9929190620010b3565b604051809103906000f08015801562000cc6573d6000803e3d6000fd5b5060405163a6f9dae160e01b81529091506001600160a01b0384169063a6f9dae19062000cf890849060040162001070565b600060405180830381600087803b15801562000d1357600080fd5b505af115801562000d28573d6000803e3d6000fd5b50506003805460018082019092557fc2575a0e9e593c00f959f8c92f12db2869c3395a3b0502d05e2516446f71f85b0180546001600160a01b03199081166001600160a01b038981169182179093558b83166000818152602086815260408083208054808a0182559084528284200180548716861790558e87168084528184208054808b01825590855283852001805488168717905585845260029283905292819020805487169095178555968401805486169093179092559082018054841690911790556006018054909116918616919091179055517f737c7ccf6d56ea889d48343f42ff5094f91b0ef3378198334723e3588f88c8f6925062000e309150859062001070565b60405180910390a150505092915050565b6060600380548060200260200160405190810160405280929190818152602001828054801562000e9b57602002820191906000526020600020905b81546001600160a01b0316815260019091019060200180831162000e7c575b5050505050905090565b6040805161010081018252600080825260208201819052918101829052606081018290526080810182905260a0810182905260c0810182905260e081019190915290565b611611806200128183390190565b6122c3806200289283390190565b80356001600160a01b038116811462000f1d57600080fd5b92915050565b60006020828403121562000f35578081fd5b62000f41838362000f05565b9392505050565b6000806040838503121562000f5b578081fd5b62000f67848462000f05565b915062000f78846020850162000f05565b90509250929050565b600060a0828403121562000f93578081fd5b60405160a0810181811067ffffffffffffffff8211171562000fb3578283fd5b604052823562000fc38162001267565b8152602083013562000fd58162001267565b6020820152604083013562000fea8162001267565b604082015262000ffe846060850162000f05565b606082015262001012846080850162000f05565b60808201529392505050565b6001600160a01b03169052565b6000815180845260208085019450808401835b83811015620010655781516001600160a01b0316875295820195908201906001016200103e565b509495945050505050565b6001600160a01b0391909116815260200190565b6001600160a01b0392831681529116602082015260400190565b60006020825262000f4160208301846200102b565b600060408252620010c860408301856200102b565b90508260208301529392505050565b602080825260149082015273444f435f415050524f5645525f4d495353494e4760601b604082015260600190565b6020808252600d908201526c42555945525f4d495353494e4760981b604082015260600190565b60208082526017908201527f53454e534f525f415050524f5645525f4d495353494e47000000000000000000604082015260600190565b60208082526012908201527141524249545241544f525f4d495353494e4760701b604082015260600190565b6020808252600e908201526d53454c4c45525f4d495353494e4760901b604082015260600190565b6020808252600a908201526927a7262cafa7aba722a960b11b604082015260600190565b60006101008201905060018060a01b038084511683528060208501511660208401528060408501511660408401528060608501511660608401528060808501511660808401528060a08501511660a08401525060c08301516200124260c08401826200101e565b5060e08301516200125760e08401826200101e565b5092915050565b90815260200190565b6001600160a01b03811681146200127d57600080fd5b5056fe608060405234801561001057600080fd5b5060405161161138038061161183398101604081905261002f9161008d565b600680546001600160a01b0393841661010002610100600160a81b031990911617905560078054919092166001600160a01b0319918216179091556000600481905560018054831633908117909155815490921690911790556100de565b6000806040838503121561009f578182fd5b82516100aa816100c6565b60208401519092506100bb816100c6565b809150509250929050565b6001600160a01b03811681146100db57600080fd5b50565b611524806100ed6000396000f3fe608060405234801561001057600080fd5b50600436106101375760003560e01c806382fd5bac116100b8578063a6f9dae11161007c578063a6f9dae114610245578063a719e10314610258578063bca6ce641461026b578063c698f53b14610273578063dbd0e1b614610293578063eadb3c9c1461029b57610137565b806382fd5bac146101ef578063893d20e81461020f5780638da5cb5b146102175780638df828001461021f5780639056b9721461023257610137565b80634a3a8383116100ff5780634a3a8383146101bc5780634d2d2c9d146101c4578063603daf9a146101d75780637150d8ae146101df578063785e9e86146101e757610137565b806302d05d3f1461013c57806303988f841461015a57806308551a531461017f5780633f35253a14610187578063442d04ee146101a7575b600080fd5b6101446102a3565b60405161015191906111dc565b60405180910390f35b61016d610168366004611177565b6102b2565b6040516101519695949392919061143f565b610144610307565b61019a610195366004611177565b610316565b6040516101519190611436565b6101ba6101b53660046110b3565b610499565b005b61019a6105bc565b61019a6101d2366004611177565b6105c2565b610144610772565b610144610786565b61014461079a565b6102026101fd366004611177565b6107a9565b6040516101519190611383565b6101446108a2565b6101446108b1565b6101ba61022d366004611177565b6108c0565b6101ba610240366004611177565b610989565b6101ba610253366004611054565b610b38565b6101ba6102663660046111a7565b610b84565b610144610e06565b610286610281366004611177565b610e15565b604051610151919061122d565b610144610ecc565b61019a610edb565b6000546001600160a01b031681565b600581815481106102bf57fe5b6000918252602090912060069091020180546001820154600283015460038401546005909401549294506001600160a01b039182169391169160ff8082169161010090041686565b6007546001600160a01b031681565b6000816001610323610fb8565b61032c836107a9565b90508115158160c0015115151482610367576040518060400160405280600b81526020016a4445414c5f45584953545360a81b81525061038f565b6040518060400160405280600e81526020016d1111505317d393d517d193d5539160921b8152505b906103b65760405162461bcd60e51b81526004016103ad9190611242565b60405180910390fd5b506103bf610fb8565b6103c8866107a9565b905060038160a0015160038111156103dc57fe5b14156103ec576000945050610491565b60208101516040516370a0823160e01b81526000916001600160a01b0316906370a082319061041f9030906004016111dc565b60206040518083038186803b15801561043757600080fd5b505afa15801561044b573d6000803e3d6000fd5b505050506040513d601f19601f8201168201806040525081019061046f919061118f565b90508160600151811061048757600095505050610491565b6060909101510393505b505050919050565b60056040518060e001604052806004548152602001866001600160a01b03168152602001856001600160a01b03168152602001848152602001838152602001600160038111156104e557fe5b8152600160209182018190528354808201855560009485529382902083516006909502019384558282015190840180546001600160a01b039283166001600160a01b031991821617909155604084015160028601805491909316911617905560608201516003840155608082015180519293926105689260048501920190610ff4565b5060a082015160058201805460ff1916600183600381111561058657fe5b021790555060c09190910151600590910180549115156101000261ff001990921691909117905550506004805460010190555050565b60045490565b60008160016105cf610fb8565b6105d8836107a9565b90508115158160c0015115151482610613576040518060400160405280600b81526020016a4445414c5f45584953545360a81b81525061063b565b6040518060400160405280600e81526020016d1111505317d393d517d193d5539160921b8152505b906106595760405162461bcd60e51b81526004016103ad9190611242565b50610662610fb8565b61066b866107a9565b905060038160a00151600381111561067f57fe5b141561068f576000945050610491565b6000805b82608001515181101561075f57306001600160a01b031683604001516001600160a01b0316636352211e856080015184815181106106cd57fe5b60200260200101516040518263ffffffff1660e01b81526004016106f19190611436565b60206040518083038186803b15801561070957600080fd5b505afa15801561071d573d6000803e3d6000fd5b505050506040513d601f19601f820116820180604052508101906107419190611077565b6001600160a01b03161415610757576001909101905b600101610693565b5060809091015151039350505050919050565b60065461010090046001600160a01b031690565b60065461010090046001600160a01b031681565b6003546001600160a01b031681565b6107b1610fb8565b600582815481106107be57fe5b60009182526020918290206040805160e08101825260069093029091018054835260018101546001600160a01b039081168486015260028201541683830152600381015460608401526004810180548351818702810187019094528084529394919360808601939283018282801561085557602002820191906000526020600020905b815481526020019060010190808311610841575b5050509183525050600582015460209091019060ff16600381111561087657fe5b600381111561088157fe5b815260059190910154610100900460ff16151560209091015290505b919050565b6001546001600160a01b031690565b6001546001600160a01b031681565b806108c9610fb8565b6108d2826107a9565b905060018160a0015160038111156108e657fe5b146109035760405162461bcd60e51b81526004016103ad90611295565b6001546001600160a01b0316331461092d5760405162461bcd60e51b81526004016103ad90611332565b610936836105c2565b156109535760405162461bcd60e51b81526004016103ad90611356565b61095c83610316565b156109795760405162461bcd60e51b81526004016103ad90611305565b610984836003610ee1565b505050565b806001610994610fb8565b61099d836107a9565b90508115158160c00151151514826109d8576040518060400160405280600b81526020016a4445414c5f45584953545360a81b815250610a00565b6040518060400160405280600e81526020016d1111505317d393d517d193d5539160921b8152505b90610a1e5760405162461bcd60e51b81526004016103ad9190611242565b50610a27610fb8565b610a30856107a9565b905060038160a001516003811115610a4457fe5b1415610a79576007546001600160a01b03163314610a745760405162461bcd60e51b81526004016103ad906112bc565b610aa8565b60065461010090046001600160a01b03163314610aa85760405162461bcd60e51b81526004016103ad906112e1565b80602001516001600160a01b031663a9059cbb3383606001516040518363ffffffff1660e01b8152600401610ade9291906111f0565b602060405180830381600087803b158015610af857600080fd5b505af1158015610b0c573d6000803e3d6000fd5b505050506040513d601f19601f82011682018060405250810190610b309190611093565b505050505050565b6001546001600160a01b03163314610b625760405162461bcd60e51b81526004016103ad90611332565b600180546001600160a01b0319166001600160a01b0392909216919091179055565b816001610b8f610fb8565b610b98836107a9565b90508115158160c0015115151482610bd3576040518060400160405280600b81526020016a4445414c5f45584953545360a81b815250610bfb565b6040518060400160405280600e81526020016d1111505317d393d517d193d5539160921b8152505b90610c195760405162461bcd60e51b81526004016103ad9190611242565b50610c22610fb8565b610c2b866107a9565b9050600060038260a001516003811115610c4157fe5b1415610c7b5760065461010090046001600160a01b03163314610c765760405162461bcd60e51b81526004016103ad906112e1565b610ca5565b6007546001600160a01b03163314610ca55760405162461bcd60e51b81526004016103ad906112bc565b60005b826080015151811015610dfc578682108015610d6b5750306001600160a01b031683604001516001600160a01b0316636352211e85608001518481518110610cec57fe5b60200260200101516040518263ffffffff1660e01b8152600401610d109190611436565b60206040518083038186803b158015610d2857600080fd5b505afa158015610d3c573d6000803e3d6000fd5b505050506040513d601f19601f82011682018060405250810190610d609190611077565b6001600160a01b0316145b15610df45782604001516001600160a01b03166323b872dd303386608001518581518110610d9557fe5b60200260200101516040518463ffffffff1660e01b8152600401610dbb93929190611209565b600060405180830381600087803b158015610dd557600080fd5b505af1158015610de9573d6000803e3d6000fd5b505060019093019250505b600101610ca8565b5050505050505050565b6002546001600160a01b031681565b6000816001610e22610fb8565b610e2b836107a9565b90508115158160c0015115151482610e66576040518060400160405280600b81526020016a4445414c5f45584953545360a81b815250610e8e565b6040518060400160405280600e81526020016d1111505317d393d517d193d5539160921b8152505b90610eac5760405162461bcd60e51b81526004016103ad9190611242565b50610eb5610fb8565b610ebe866107a9565b60a001519695505050505050565b6007546001600160a01b031690565b60045481565b816001610eec610fb8565b610ef5836107a9565b90508115158160c0015115151482610f30576040518060400160405280600b81526020016a4445414c5f45584953545360a81b815250610f58565b6040518060400160405280600e81526020016d1111505317d393d517d193d5539160921b8152505b90610f765760405162461bcd60e51b81526004016103ad9190611242565b508360058681548110610f8557fe5b60009182526020909120600560069092020101805460ff19166001836003811115610fac57fe5b02179055505050505050565b6040805160e081018252600080825260208201819052918101829052606080820183905260808201529060a08201908152600060209091015290565b82805482825590600052602060002090810192821561102f579160200282015b8281111561102f578251825591602001919060010190611014565b5061103b92915061103f565b5090565b5b8082111561103b5760008155600101611040565b600060208284031215611065578081fd5b8135611070816114d6565b9392505050565b600060208284031215611088578081fd5b8151611070816114d6565b6000602082840312156110a4578081fd5b81518015158114611070578182fd5b600080600080608085870312156110c8578283fd5b84356110d3816114d6565b93506020858101356110e4816114d6565b935060408601359250606086013567ffffffffffffffff811115611106578283fd5b8601601f81018813611116578283fd5b8035611129611124826114ab565b611484565b81815283810190838501858402850186018c1015611145578687fd5b8694505b83851015611167578035835260019490940193918501918501611149565b50979a9699509497505050505050565b600060208284031215611188578081fd5b5035919050565b6000602082840312156111a0578081fd5b5051919050565b600080604083850312156111b9578182fd5b50508035926020909101359150565b15159052565b600481106111d857fe5b9052565b6001600160a01b0391909116815260200190565b6001600160a01b03929092168252602082015260400190565b6001600160a01b039384168152919092166020820152604081019190915260600190565b6020810161123a836114cb565b825292915050565b6000602080835283518082850152825b8181101561126e57858101830151858201604001528201611252565b8181111561127f5783604083870101525b50601f01601f1916929092016040019392505050565b6020808252600d908201526c2222a0a62fa727aa2fa7a822a760991b604082015260600190565b6020808252600b908201526a53454c4c45525f4f4e4c5960a81b604082015260600190565b6020808252600a908201526942555945525f4f4e4c5960b01b604082015260600190565b6020808252601390820152724445414c5f544f4b454e535f4d495353494e4760681b604082015260600190565b6020808252600a908201526927a7262cafa7aba722a960b11b604082015260600190565b6020808252601390820152724445414c5f4153534554535f4d495353494e4760681b604082015260600190565b6020808252825182820152828101516001600160a01b039081166040808501919091528401511660608084019190915283015160808084019190915283015160e060a0840152805161010084018190526000929182019083906101208601905b8083101561140357835182529284019260019290920191908401906113e3565b5060a0870151935061141860c08701856111ce565b60c0870151935061142c60e08701856111c8565b9695505050505050565b90815260200190565b8681526001600160a01b038681166020830152851660408201526060810184905260c0810161146d846114cb565b608083015291151560a09091015295945050505050565b60405181810167ffffffffffffffff811182821017156114a357600080fd5b604052919050565b600067ffffffffffffffff8211156114c1578081fd5b5060209081020190565b806004811061089d57fe5b6001600160a01b03811681146114eb57600080fd5b5056fea264697066735822122076b1e239d6fd82b2a03f0399f01c6a95e35048cccc51a9960fa17eb80fec005864736f6c634300060c003360806040523480156200001157600080fd5b50604051620022c3380380620022c3833981810160405260408110156200003757600080fd5b81019080805160405193929190846401000000008211156200005857600080fd5b9083019060208201858111156200006e57600080fd5b82518660208202830111640100000000821117156200008c57600080fd5b82525081516020918201928201910280838360005b83811015620000bb578181015183820152602001620000a1565b50505050919091016040525060200151835190925090508160328211801590620000e55750818111155b8015620000f157508015155b8015620000fd57508115155b6200014f576040805162461bcd60e51b815260206004820152601360248201527f696e76616c696420726571756972656d656e7400000000000000000000000000604482015290519081900360640190fd5b60005b84518110156200029757600260008683815181106200016d57fe5b6020908102919091018101516001600160a01b031682528101919091526040016000205460ff1615620001da576040805162461bcd60e51b815260206004820152601060248201526f34b99030b63932b0b23c9037bbb732b960811b604482015290519081900360640190fd5b60006001600160a01b0316858281518110620001f257fe5b60200260200101516001600160a01b0316141562000249576040805162461bcd60e51b815260206004820152600f60248201526e6973206e756c6c206164647265737360881b604482015290519081900360640190fd5b6001600260008784815181106200025c57fe5b6020908102919091018101516001600160a01b03168252810191909152604001600020805460ff191691151591909117905560010162000152565b508351620002ad906004906020870190620002ba565b5050506005555062000345565b82805482825590600052602060002090810192821562000312579160200282015b828111156200031257825182546001600160a01b0319166001600160a01b03909116178255602090920191600190910190620002db565b506200032092915062000324565b5090565b5b80821115620003205780546001600160a01b031916815560010162000325565b611f6e80620003556000396000f3fe60806040526004361061014f5760003560e01c8063969f8a83116100b6578063c64274741161006f578063c642747414610749578063c69ed5f214610811578063d74f8edd1461083b578063dc8452cd14610850578063e20056e614610865578063f3fc536d146108a057610193565b8063969f8a8314610618578063a0e67e2b14610692578063a96bf00c146106a7578063b77bf600146106e0578063ba51a6df146106f5578063bdfd27931461071f57610193565b8063501895ae11610108578063501895ae146103cf578063642f2eaf146103f95780636486aa51146104c95780637065cb48146104f357806379716e4314610526578063915c219e1461055057610193565b8063025e7c27146101d15780630c4ecab414610217578063113642e514610264578063173825d9146102a05780632f54bf6e146102d35780634aae13ca1461030657610193565b366101935734156101915760408051348152905133917fe1fffcc4923d04b559f4d29a8bfc6cda04eb5b0d3c460751c2402c5c5cc9109c919081900360200190a25b005b34156101915760408051348152905133917fe1fffcc4923d04b559f4d29a8bfc6cda04eb5b0d3c460751c2402c5c5cc9109c919081900360200190a2005b3480156101dd57600080fd5b506101fb600480360360208110156101f457600080fd5b50356108ca565b604080516001600160a01b039092168252519081900360200190f35b34801561022357600080fd5b506102506004803603604081101561023a57600080fd5b50803590602001356001600160a01b03166108f1565b604080519115158252519081900360200190f35b34801561027057600080fd5b5061028e6004803603602081101561028757600080fd5b5035610911565b60408051918252519081900360200190f35b3480156102ac57600080fd5b50610191600480360360208110156102c357600080fd5b50356001600160a01b0316610980565b3480156102df57600080fd5b50610250600480360360208110156102f657600080fd5b50356001600160a01b0316610b7a565b34801561031257600080fd5b506103306004803603602081101561032957600080fd5b5035610b8f565b6040518086815260200180602001856001600160a01b031681526020018415158152602001838152602001828103825286818151815260200191508051906020019080838360005b83811015610390578181015183820152602001610378565b50505050905090810190601f1680156103bd5780820380516001836020036101000a031916815260200191505b50965050505050505060405180910390f35b3480156103db57600080fd5b5061028e600480360360208110156103f257600080fd5b5035610cae565b34801561040557600080fd5b506104236004803603602081101561041c57600080fd5b5035610cc0565b60405180876001600160a01b03168152602001868152602001806020018515158152602001848152602001838152602001828103825286818151815260200191508051906020019080838360005b83811015610489578181015183820152602001610471565b50505050905090810190601f1680156104b65780820380516001836020036101000a031916815260200191505b5097505050505050505060405180910390f35b3480156104d557600080fd5b50610250600480360360208110156104ec57600080fd5b5035610d8d565b3480156104ff57600080fd5b506101916004803603602081101561051657600080fd5b50356001600160a01b0316610e14565b34801561053257600080fd5b506101916004803603602081101561054957600080fd5b503561100f565b34801561055c57600080fd5b5061028e6004803603606081101561057357600080fd5b6001600160a01b03823516916020810135918101906060810160408201356401000000008111156105a357600080fd5b8201836020820111156105b557600080fd5b803590602001918460018302840111640100000000831117156105d757600080fd5b91908080601f016020809104026020016040519081016040528093929190818152602001838380828437600092019190915250929550611181945050505050565b34801561062457600080fd5b506106426004803603602081101561063b57600080fd5b5035611196565b60408051602080825283518183015283519192839290830191858101910280838360005b8381101561067e578181015183820152602001610666565b505050509050019250505060405180910390f35b34801561069e57600080fd5b5061064261133a565b3480156106b357600080fd5b50610250600480360360408110156106ca57600080fd5b50803590602001356001600160a01b031661139c565b3480156106ec57600080fd5b5061028e6113c7565b34801561070157600080fd5b506101916004803603602081101561071857600080fd5b50356113cd565b34801561072b57600080fd5b506103306004803603602081101561074257600080fd5b50356114be565b34801561075557600080fd5b5061028e6004803603606081101561076c57600080fd5b6001600160a01b038235169160208101359181019060608101604082013564010000000081111561079c57600080fd5b8201836020820111156107ae57600080fd5b803590602001918460018302840111640100000000831117156107d057600080fd5b91908080601f0160208091040260200160405190810160405280939291908181526020018383808284376000920191909152509295506115ee945050505050565b34801561081d57600080fd5b506101916004803603602081101561083457600080fd5b50356115fb565b34801561084757600080fd5b5061028e61186b565b34801561085c57600080fd5b5061028e611870565b34801561087157600080fd5b506101916004803603604081101561088857600080fd5b506001600160a01b0381358116916020013516611876565b3480156108ac57600080fd5b50610191600480360360208110156108c357600080fd5b5035611a9f565b600481815481106108d757fe5b6000918252602090912001546001600160a01b0316905081565b600160209081526000928352604080842090915290825290205460ff1681565b6000805b60045481101561097a576000838152600160205260408120600480549192918490811061093e57fe5b60009182526020808320909101546001600160a01b0316835282019290925260400190205460ff1615610972576001820191505b600101610915565b50919050565b3330146109c2576040805162461bcd60e51b815260206004820152600b60248201526a13db9b1e481dd85b1b195d60aa1b604482015290519081900360640190fd5b6001600160a01b038116600090815260026020526040902054819060ff16610a28576040805162461bcd60e51b815260206004820152601460248201527313dddb995c88191bd95cc81b9bdd08195e1a5cdd60621b604482015290519081900360640190fd5b6001600160a01b0382166000908152600260205260408120805460ff191690555b60045460001901811015610afc57826001600160a01b031660048281548110610a6e57fe5b6000918252602090912001546001600160a01b03161415610af457600480546000198101908110610a9b57fe5b600091825260209091200154600480546001600160a01b039092169183908110610ac157fe5b9060005260206000200160006101000a8154816001600160a01b0302191690836001600160a01b03160217905550610afc565b600101610a49565b506004805480610b0857fe5b600082815260209020810160001990810180546001600160a01b03191690550190556004546005541115610b4257600454610b42906113cd565b6040516001600160a01b038316907f8001553a916ef2f495d26a907cc54d96ed840d7bda71e73194bf5a9df7a76b9090600090a25050565b60026020526000908152604090205460ff1681565b600060606000806000610ba0611e61565b60008781526020818152604091829020825160c08101845281546001600160a01b03168152600180830154828501526002808401805487516101009482161594909402600019011691909104601f81018690048602830186018752808352929593949386019391929091830182828015610c5b5780601f10610c3057610100808354040283529160200191610c5b565b820191906000526020600020905b815481529060010190602001808311610c3e57829003601f168201915b5050509183525050600382015460ff1615156020820152600482015460408083019190915260059092015460609182015290820151825191830151608090930151999a9099919850919650945092505050565b60036020526000908152604090205481565b6000602081815291815260409081902080546001808301546002808501805487516101009582161595909502600019011691909104601f81018890048802840188019096528583526001600160a01b0390931695909491929190830182828015610d6b5780601f10610d4057610100808354040283529160200191610d6b565b820191906000526020600020905b815481529060010190602001808311610d4e57829003601f168201915b5050505060038301546004840154600590940154929360ff9091169290915086565b600080805b600454811015610e0c5760008481526001602052604081206004805491929184908110610dbb57fe5b60009182526020808320909101546001600160a01b0316835282019290925260400190205460ff1615610def576001820191505b600554821415610e0457600192505050610e0f565b600101610d92565b50505b919050565b333014610e56576040805162461bcd60e51b815260206004820152600b60248201526a13db9b1e481dd85b1b195d60aa1b604482015290519081900360640190fd5b6001600160a01b038116600090815260026020526040902054819060ff1615610eb5576040805162461bcd60e51b815260206004820152600c60248201526b4f776e65722065786973747360a01b604482015290519081900360640190fd5b816001600160a01b038116610f05576040805162461bcd60e51b81526020600482015260116024820152700e881859191c995cdcc81a5cc81b9d5b1b607a1b604482015290519081900360640190fd5b60048054905060010160055460328211158015610f225750818111155b8015610f2d57508015155b8015610f3857508115155b610f7f576040805162461bcd60e51b81526020600482015260136024820152721a5b9d985b1a59081c995c5d5a5c995b595b9d606a1b604482015290519081900360640190fd5b6001600160a01b038516600081815260026020526040808220805460ff1916600190811790915560048054918201815583527f8a35acfbc15ff81a39ae7d344fd709f28e8600b4aa8c65c6b64bfe7fe36bd19b0180546001600160a01b03191684179055517ff39e6e1eb0edcf53c221607b54b00cd28f3196fed0a24994dc308b8f611b682d9190a25050505050565b3360008181526002602052604090205460ff1661106a576040805162461bcd60e51b815260206004820152601460248201527313dddb995c88191bd95cc81b9bdd08195e1a5cdd60621b604482015290519081900360640190fd5b8161107481611c0e565b6110b8576040805162461bcd60e51b815260206004820152601060248201526f151e08191bd95cdb89dd08195e1a5cdd60821b604482015290519081900360640190fd5b60008381526001602090815260408083203380855292529091205484919060ff1615611124576040805162461bcd60e51b81526020600482015260166024820152750e881a5cc8185b1c9958591e4818dbdb999a5c9b595960521b604482015290519081900360640190fd5b6000858152600160208181526040808420338086529252808420805460ff1916909317909255905187927fe1c52dc63b719ade82e8bea94cc41a0d5d28e4aaf536adb5e9cccc9ff8c1aeda91a361117a856115fb565b5050505050565b600061118e848484611c2b565b949350505050565b600454606090819067ffffffffffffffff811180156111b457600080fd5b506040519080825280602002602001820160405280156111de578160200160208202803683370190505b5090506000805b6004548110156112a1576000858152600160205260408120600480549192918490811061120e57fe5b60009182526020808320909101546001600160a01b0316835282019290925260400190205460ff1615611299576004818154811061124857fe5b9060005260206000200160009054906101000a90046001600160a01b031683838151811061127257fe5b60200260200101906001600160a01b031690816001600160a01b0316815250506001820191505b6001016111e5565b8167ffffffffffffffff811180156112b857600080fd5b506040519080825280602002602001820160405280156112e2578160200160208202803683370190505b509350600090505b81811015611332578281815181106112fe57fe5b602002602001015184828151811061131257fe5b6001600160a01b03909216602092830291909101909101526001016112ea565b505050919050565b6060600480548060200260200160405190810160405280929190818152602001828054801561139257602002820191906000526020600020905b81546001600160a01b03168152600190910190602001808311611374575b5050505050905090565b60009182526001602090815260408084206001600160a01b0393909316845291905290205460ff1690565b60065481565b33301461140f576040805162461bcd60e51b815260206004820152600b60248201526a13db9b1e481dd85b1b195d60aa1b604482015290519081900360640190fd5b60045481603282118015906114245750818111155b801561142f57508015155b801561143a57508115155b611481576040805162461bcd60e51b81526020600482015260136024820152721a5b9d985b1a59081c995c5d5a5c995b595b9d606a1b604482015290519081900360640190fd5b60058390556040805184815290517fa3f1ee9126a074d9326c682f561767f710e927faa811f7a99829d49dc421797a9181900360200190a1505050565b6000606060008060006114cf611e61565b600087815260036020908152604080832054835282825291829020825160c08101845281546001600160a01b03168152600180830154828501526002808401805487516101009482161594909402600019011691909104601f810186900486028301860187528083529295939493860193919290918301828280156115955780601f1061156a57610100808354040283529160200191611595565b820191906000526020600020905b81548152906001019060200180831161157857829003601f168201915b5050509183525050600382015460ff1615156020820152600482015460408083019190915260059092015460609182015260a083015191830151835191840151608090940151929b909a50909850919650945092505050565b600061118e848484611cc0565b3360008181526002602052604090205460ff16611656576040805162461bcd60e51b815260206004820152601460248201527313dddb995c88191bd95cc81b9bdd08195e1a5cdd60621b604482015290519081900360640190fd5b60008281526001602090815260408083203380855292529091205483919060ff166116ba576040805162461bcd60e51b815260206004820152600f60248201526e0e881b9bdd0818dbdb999a5c9b5959608a1b604482015290519081900360640190fd5b600084815260208190526040902060030154849060ff161561171b576040805162461bcd60e51b81526020600482015260156024820152740e881d1e08185b1c9958591e48195e1958dd5d1959605a1b604482015290519081900360640190fd5b61172485610d8d565b1561117a576000858152602081815260409182902060038101805460ff19166001908117909155815481830154600280850180548851601f6000199783161561010002979097019091169290920494850187900487028201870190975283815293956117f6956001600160a01b039093169491939283908301828280156117ec5780601f106117c1576101008083540402835291602001916117ec565b820191906000526020600020905b8154815290600101906020018083116117cf57829003601f168201915b5050505050611e3e565b1561182b5760405186907f7e9e1cb65db4927b1815f498cbaa226a15c277816f7df407573682110522c9b190600090a2611863565b60405186907fdbe42d02a4e07d7eeff2874efe172540c93b297d206f6d691c9782a257323e3290600090a260038101805460ff191690555b505050505050565b603281565b60055481565b3330146118b8576040805162461bcd60e51b815260206004820152600b60248201526a13db9b1e481dd85b1b195d60aa1b604482015290519081900360640190fd5b6001600160a01b038216600090815260026020526040902054829060ff1661191e576040805162461bcd60e51b815260206004820152601460248201527313dddb995c88191bd95cc81b9bdd08195e1a5cdd60621b604482015290519081900360640190fd5b6001600160a01b038216600090815260026020526040902054829060ff161561197d576040805162461bcd60e51b815260206004820152600c60248201526b4f776e65722065786973747360a01b604482015290519081900360640190fd5b60005b600454811015611a0557846001600160a01b0316600482815481106119a157fe5b6000918252602090912001546001600160a01b031614156119fd5783600482815481106119ca57fe5b9060005260206000200160006101000a8154816001600160a01b0302191690836001600160a01b03160217905550611a05565b600101611980565b506001600160a01b03808516600081815260026020526040808220805460ff1990811690915593871682528082208054909416600117909355915190917f8001553a916ef2f495d26a907cc54d96ed840d7bda71e73194bf5a9df7a76b9091a26040516001600160a01b038416907ff39e6e1eb0edcf53c221607b54b00cd28f3196fed0a24994dc308b8f611b682d90600090a250505050565b3360008181526002602052604090205460ff16611afa576040805162461bcd60e51b815260206004820152601460248201527313dddb995c88191bd95cc81b9bdd08195e1a5cdd60621b604482015290519081900360640190fd5b60008281526001602090815260408083203380855292529091205483919060ff16611b5e576040805162461bcd60e51b815260206004820152600f60248201526e0e881b9bdd0818dbdb999a5c9b5959608a1b604482015290519081900360640190fd5b600084815260208190526040902060030154849060ff1615611bbf576040805162461bcd60e51b81526020600482015260156024820152740e881d1e08185b1c9958591e48195e1958dd5d1959605a1b604482015290519081900360640190fd5b6000858152600160209081526040808320338085529252808320805460ff191690555187927f9aec1a62b961581534d37fd62d35e3648f05a17b1f986eda1d1a9d97b147840691a35050505050565b6000908152602081905260409020546001600160a01b0316151590565b600083838360405160200180846001600160a01b031660601b815260140183815260200182805190602001908083835b60208310611c7a5780518252601f199092019160209182019101611c5b565b6001836020036101000a03801982511681845116808217855250505050505090500193505050506040516020818303038152906040528051906020012090509392505050565b6000836001600160a01b038116611d12576040805162461bcd60e51b81526020600482015260116024820152700e881859191c995cdcc81a5cc81b9d5b1b607a1b604482015290519081900360640190fd5b611d1d858585611c2b565b9150611d2882611c0e565b611e2d576040805160c0810182526001600160a01b038781168252602080830188815283850188815260006060860181905242608087015260a0860189905288815280845295909520845181546001600160a01b03191694169390931783555160018301559251805192939192611da59260028501920190611ea5565b5060608201516003828101805460ff1916921515929092179091556080830151600483015560a090920151600590910155600680546000908152602092909252604090912083905580546001019055611dfd8261100f565b60405182907f1b15da2a2b1f440c8fb970f04466e7ccd3a8215634645d232bbc23c75785b5bb90600090a2611e36565b611e368261100f565b509392505050565b6000806040516020840160008287838a8c6187965a03f198975050505050505050565b6040518060c0016040528060006001600160a01b03168152602001600081526020016060815260200160001515815260200160008152602001600080191681525090565b828054600181600116156101000203166002900490600052602060002090601f016020900481019282601f10611ee657805160ff1916838001178555611f13565b82800160010185558215611f13579182015b82811115611f13578251825591602001919060010190611ef8565b50611f1f929150611f23565b5090565b5b80821115611f1f5760008155600101611f2456fea2646970667358221220fcbc073d715a8ba68213b444eec2fd9c31d71d2ec63df45cec1a17f8dea8d2a164736f6c634300060c0033a264697066735822122076c3f59f8b57c39efe9768acaa8037d0f2d26d48c9792b7117bc19c7be876a1964736f6c634300060c0033",
    "immutableReferences": {},
    "source": "// SPDX-License-Identifier: MIT\npragma experimental ABIEncoderV2;\npragma solidity ^0.6.0;\n\nimport \"./DealRoom.sol\";\nimport \"./multisig/MultiSigHashed.sol\";\n\ncontract DealRoomHub {\n    address owner;\n\n    struct DealRoomDetails {\n        address addr;\n        address buyer;\n        address seller;\n        address arbitrator;\n        address sensorApprover;\n        address docApprover;\n        address dealMultiSig;\n        address agentMultiSig;\n    }\n\n    mapping (address => address[]) private roomsByUser;\n    mapping (address => DealRoomDetails) private roomDetailsByAddress;\n\n    address[] private rooms;\n\n    struct MakeRoomParams {\n        address buyer;\n        address seller;\n        address arbitrator;\n        address sensorApprover;\n        address docApprover;\n    }\n\n    event NewRoomEvent(\n        address addr\n    );\n\n    function makeBasicRoom(address buyer, address seller) public returns (address) {\n        DealRoom room = new DealRoom(buyer, seller);\n        require(buyer != address(0), \"BUYER_MISSING\");\n        require(seller != address(0), \"SELLER_MISSING\");   \n\n        //Make a Main multisig, 2/2 with Agents\n        address[] memory mainSignatories = new address[](2);\n        mainSignatories[0] = buyer;\n        mainSignatories[1] = seller; \n        MultiSigHashed dealMultiSig = new MultiSigHashed(mainSignatories, 2);   \n\n        //Give the room to the Multisig\n        room.changeOwner(address(dealMultiSig));\n\n        //===Record room details (without upsetting the compiler)\n        //Add to list\n        rooms.push(address(room));\n        //Index by buyer and seller\n        roomsByUser[buyer].push(address(room));\n        roomsByUser[seller].push(address(room));\n\n        //Index by address\n        roomDetailsByAddress[address(room)].addr = address(room);\n        roomDetailsByAddress[address(room)].buyer = buyer;\n        roomDetailsByAddress[address(room)].seller = seller;\n        roomDetailsByAddress[address(room)].dealMultiSig = address(dealMultiSig);\n\n        emit NewRoomEvent(address(room));\n    }\n\n    function makeRoom(MakeRoomParams memory params) public returns (address) {\n        DealRoom room = new DealRoom(params.buyer, params.seller);\n        require(params.buyer != address(0), \"BUYER_MISSING\");\n        require(params.seller != address(0), \"SELLER_MISSING\");\n        require(params.arbitrator != address(0), \"ARBITRATOR_MISSING\");\n        require(params.sensorApprover != address(0), \"SENSOR_APPROVER_MISSING\");\n        require(params.docApprover != address(0), \"DOC_APPROVER_MISSING\");\n\n        //Make an Agents multisig, 2/3 with Buyer, Seller, Arbitrator\n        address[] memory agents = new address[](3);\n        agents[0] = params.buyer;\n        agents[1] = params.seller;\n        agents[2] = params.arbitrator; \n        MultiSigHashed agentMultiSig = new MultiSigHashed(agents, 2);\n        \n        //Make a Main multisig, 3/3 with Agents, DocApprover, SensorApprover\n        address[] memory mainSignatories = new address[](3);\n        mainSignatories[0] = params.sensorApprover;\n        mainSignatories[1] = params.docApprover; \n        mainSignatories[2] = address(agentMultiSig);  \n        MultiSigHashed dealMultiSig = new MultiSigHashed(mainSignatories, 3);\n        \n        //Give the room to the Main Multisig\n        room.changeOwner(address(dealMultiSig));\n\n        //===Record room details (without upsetting the compiler)\n        //Add to list\n        rooms.push(address(room));\n        //Index by buyer and seller\n        roomsByUser[params.buyer].push(address(room));\n        roomsByUser[params.seller].push(address(room));\n        roomsByUser[params.arbitrator].push(address(room));\n        roomsByUser[params.sensorApprover].push(address(room));\n        roomsByUser[params.docApprover].push(address(room));\n\n        //Index by address\n        roomDetailsByAddress[address(room)].addr = address(room);\n        roomDetailsByAddress[address(room)].buyer = params.buyer;\n        roomDetailsByAddress[address(room)].seller = params.seller;\n        roomDetailsByAddress[address(room)].arbitrator = params.arbitrator;        \n        roomDetailsByAddress[address(room)].sensorApprover = params.sensorApprover;\n        roomDetailsByAddress[address(room)].docApprover = params.docApprover;\n        roomDetailsByAddress[address(room)].dealMultiSig = address(dealMultiSig);\n        roomDetailsByAddress[address(room)].agentMultiSig = address(agentMultiSig);\n\n        emit NewRoomEvent(address(room));\n\n        return address(room);\n    }\n\n    function getUserRooms(address _user) public view returns(address[] memory) {\n        return roomsByUser[_user];\n    }\n    function getAllRooms() public view returns(address[] memory) {\n        return rooms;\n    }\n    function getRoom(address addr) public view returns (DealRoomDetails memory) {\n        return roomDetailsByAddress[addr];\n    }\n    function roomCount() public view returns (uint) {\n        return rooms.length;\n    }\n\n    modifier roomExists(\n        address addr,\n        bool mustExist\n    ) {\n        DealRoomDetails memory roomDetails = getRoom(addr);\n        if (mustExist) {\n            //Room must exist\n            require(roomDetails.addr != address(0), \"ROOM_NOT_FOUND\");\n        } else {\n            //Room must not already exist\n            require(roomDetails.addr == address(0), \"ROOM_EXISTS\");\n        }\n        _;\n    }\n\n    function changeOwner(address newOwner) public isOwner() {\n        owner = newOwner;\n    }\n\n    modifier isOwner() {\n        require(msg.sender == owner, \"ONLY_OWNER\");\n        _;\n    }\n}\n",
    "sourcePath": "/projects/dealrooms/ethereum/contracts/DealRoomHub.sol",
    "compiler": {
        "name": "solc",
        "version": "0.6.12+commit.27d51765.Emscripten.clang"
    },
    "schemaVersion": "3.4.1",
    "updatedAt": "2021-05-28T04:44:36.249Z",
    "devdoc": {
        "kind": "dev",
        "methods": {},
        "version": 1
    },
    "userdoc": {
        "kind": "user",
        "methods": {},
        "version": 1
    }
}