{
    "contractName": "DealRoom",
    "abi": [
        {
            "inputs": [
                {
                    "internalType": "address",
                    "name": "_buyer",
                    "type": "address"
                },
                {
                    "internalType": "address",
                    "name": "_seller",
                    "type": "address"
                }
            ],
            "stateMutability": "nonpayable",
            "type": "constructor"
        },
        {
            "anonymous": false,
            "inputs": [
                {
                    "indexed": false,
                    "internalType": "bytes32",
                    "name": "message",
                    "type": "bytes32"
                },
                {
                    "indexed": false,
                    "internalType": "uint256",
                    "name": "num",
                    "type": "uint256"
                }
            ],
            "name": "Debug",
            "type": "event"
        },
        {
            "inputs": [],
            "name": "buyer",
            "outputs": [
                {
                    "internalType": "address",
                    "name": "",
                    "type": "address"
                }
            ],
            "stateMutability": "view",
            "type": "function"
        },
        {
            "inputs": [],
            "name": "creator",
            "outputs": [
                {
                    "internalType": "address",
                    "name": "",
                    "type": "address"
                }
            ],
            "stateMutability": "view",
            "type": "function"
        },
        {
            "inputs": [],
            "name": "dealCount",
            "outputs": [
                {
                    "internalType": "uint256",
                    "name": "",
                    "type": "uint256"
                }
            ],
            "stateMutability": "view",
            "type": "function"
        },
        {
            "inputs": [
                {
                    "internalType": "uint256",
                    "name": "",
                    "type": "uint256"
                }
            ],
            "name": "deals",
            "outputs": [
                {
                    "internalType": "uint256",
                    "name": "id",
                    "type": "uint256"
                },
                {
                    "internalType": "contract IERC20",
                    "name": "erc20",
                    "type": "address"
                },
                {
                    "internalType": "contract IERC721",
                    "name": "erc721",
                    "type": "address"
                },
                {
                    "internalType": "uint256",
                    "name": "price",
                    "type": "uint256"
                },
                {
                    "internalType": "enum DealRoom.DealStatus",
                    "name": "status",
                    "type": "uint8"
                },
                {
                    "internalType": "bool",
                    "name": "valid",
                    "type": "bool"
                }
            ],
            "stateMutability": "view",
            "type": "function"
        },
        {
            "inputs": [],
            "name": "owner",
            "outputs": [
                {
                    "internalType": "address",
                    "name": "",
                    "type": "address"
                }
            ],
            "stateMutability": "view",
            "type": "function"
        },
        {
            "inputs": [],
            "name": "seller",
            "outputs": [
                {
                    "internalType": "address",
                    "name": "",
                    "type": "address"
                }
            ],
            "stateMutability": "view",
            "type": "function"
        },
        {
            "inputs": [
                {
                    "internalType": "contract IERC20",
                    "name": "_erc20",
                    "type": "address"
                },
                {
                    "internalType": "contract IERC721",
                    "name": "_erc721",
                    "type": "address"
                },
                {
                    "internalType": "uint256",
                    "name": "_price",
                    "type": "uint256"
                },
                {
                    "internalType": "uint256[]",
                    "name": "_assetItems",
                    "type": "uint256[]"
                }
            ],
            "name": "makeDeal",
            "outputs": [],
            "stateMutability": "nonpayable",
            "type": "function"
        },
        {
            "inputs": [
                {
                    "internalType": "uint256",
                    "name": "id",
                    "type": "uint256"
                }
            ],
            "name": "dealAssetCount",
            "outputs": [
                {
                    "internalType": "uint256",
                    "name": "",
                    "type": "uint256"
                }
            ],
            "stateMutability": "view",
            "type": "function"
        },
        {
            "inputs": [
                {
                    "internalType": "uint256",
                    "name": "id",
                    "type": "uint256"
                }
            ],
            "name": "missingDealAssets",
            "outputs": [
                {
                    "internalType": "uint256",
                    "name": "",
                    "type": "uint256"
                }
            ],
            "stateMutability": "view",
            "type": "function"
        },
        {
            "inputs": [
                {
                    "internalType": "uint256",
                    "name": "dealId",
                    "type": "uint256"
                },
                {
                    "internalType": "uint256",
                    "name": "assetId",
                    "type": "uint256"
                }
            ],
            "name": "assetOwner",
            "outputs": [
                {
                    "internalType": "address",
                    "name": "",
                    "type": "address"
                }
            ],
            "stateMutability": "view",
            "type": "function"
        },
        {
            "inputs": [
                {
                    "internalType": "uint256",
                    "name": "id",
                    "type": "uint256"
                }
            ],
            "name": "dealAssetsDeposited",
            "outputs": [
                {
                    "internalType": "uint256",
                    "name": "",
                    "type": "uint256"
                }
            ],
            "stateMutability": "view",
            "type": "function"
        },
        {
            "inputs": [
                {
                    "internalType": "uint256",
                    "name": "id",
                    "type": "uint256"
                }
            ],
            "name": "missingDealCoins",
            "outputs": [
                {
                    "internalType": "uint256",
                    "name": "",
                    "type": "uint256"
                }
            ],
            "stateMutability": "view",
            "type": "function"
        },
        {
            "inputs": [
                {
                    "internalType": "uint256",
                    "name": "id",
                    "type": "uint256"
                }
            ],
            "name": "settle",
            "outputs": [],
            "stateMutability": "nonpayable",
            "type": "function"
        },
        {
            "inputs": [
                {
                    "internalType": "uint256",
                    "name": "dealId",
                    "type": "uint256"
                },
                {
                    "internalType": "uint256",
                    "name": "count",
                    "type": "uint256"
                }
            ],
            "name": "withdrawDealAssets",
            "outputs": [],
            "stateMutability": "nonpayable",
            "type": "function"
        },
        {
            "inputs": [
                {
                    "internalType": "uint256",
                    "name": "dealId",
                    "type": "uint256"
                }
            ],
            "name": "withdrawDealCoins",
            "outputs": [],
            "stateMutability": "nonpayable",
            "type": "function"
        },
        {
            "inputs": [],
            "name": "getOwner",
            "outputs": [
                {
                    "internalType": "address",
                    "name": "",
                    "type": "address"
                }
            ],
            "stateMutability": "view",
            "type": "function"
        },
        {
            "inputs": [],
            "name": "getBuyer",
            "outputs": [
                {
                    "internalType": "address",
                    "name": "",
                    "type": "address"
                }
            ],
            "stateMutability": "view",
            "type": "function"
        },
        {
            "inputs": [],
            "name": "getSeller",
            "outputs": [
                {
                    "internalType": "address",
                    "name": "",
                    "type": "address"
                }
            ],
            "stateMutability": "view",
            "type": "function"
        },
        {
            "inputs": [
                {
                    "internalType": "address",
                    "name": "newOwner",
                    "type": "address"
                }
            ],
            "name": "changeOwner",
            "outputs": [],
            "stateMutability": "nonpayable",
            "type": "function"
        },
        {
            "inputs": [
                {
                    "internalType": "uint256",
                    "name": "id",
                    "type": "uint256"
                }
            ],
            "name": "getDeal",
            "outputs": [
                {
                    "components": [
                        {
                            "internalType": "uint256",
                            "name": "id",
                            "type": "uint256"
                        },
                        {
                            "internalType": "contract IERC20",
                            "name": "erc20",
                            "type": "address"
                        },
                        {
                            "internalType": "contract IERC721",
                            "name": "erc721",
                            "type": "address"
                        },
                        {
                            "internalType": "uint256",
                            "name": "price",
                            "type": "uint256"
                        },
                        {
                            "internalType": "uint256[]",
                            "name": "assetItems",
                            "type": "uint256[]"
                        },
                        {
                            "internalType": "enum DealRoom.DealStatus",
                            "name": "status",
                            "type": "uint8"
                        },
                        {
                            "internalType": "bool",
                            "name": "valid",
                            "type": "bool"
                        }
                    ],
                    "internalType": "struct DealRoom.Deal",
                    "name": "",
                    "type": "tuple"
                }
            ],
            "stateMutability": "view",
            "type": "function"
        },
        {
            "inputs": [],
            "name": "getDealCount",
            "outputs": [
                {
                    "internalType": "uint256",
                    "name": "",
                    "type": "uint256"
                }
            ],
            "stateMutability": "view",
            "type": "function"
        },
        {
            "inputs": [
                {
                    "internalType": "uint256",
                    "name": "id",
                    "type": "uint256"
                }
            ],
            "name": "getDealStatus",
            "outputs": [
                {
                    "internalType": "enum DealRoom.DealStatus",
                    "name": "",
                    "type": "uint8"
                }
            ],
            "stateMutability": "view",
            "type": "function"
        }
    ],
    "bytecode": "0x60806040523480156200001157600080fd5b5060405162001ac738038062001ac78339810160408190526200003491620000b0565b600480546001600160a01b0393841661010002610100600160a81b031990911617905560058054919092166001600160a01b031991821617909155600060028190556001805483163390811790915581549092169091179055620000e7565b80516001600160a01b0381168114620000ab57600080fd5b919050565b60008060408385031215620000c3578182fd5b620000ce8362000093565b9150620000de6020840162000093565b90509250929050565b6119d080620000f76000396000f3fe608060405234801561001057600080fd5b50600436106101425760003560e01c8063893d20e8116100b8578063a719e1031161007c578063a719e1031461026e578063bf89293f14610281578063c3a77ea814610294578063c698f53b146102a7578063dbd0e1b6146102c7578063eadb3c9c146102cf57610142565b8063893d20e8146102255780638da5cb5b1461022d5780638df82800146102355780639056b97214610248578063a6f9dae11461025b57610142565b8063442d04ee1161010a578063442d04ee146101c55780634a3a8383146101da5780634d2d2c9d146101e2578063603daf9a146101f55780637150d8ae146101fd57806382fd5bac1461020557610142565b806302d05d3f1461014757806303988f841461016557806308551a531461018a578063155c3f69146101925780633f35253a146101b2575b600080fd5b61014f6102d7565b60405161015c919061167d565b60405180910390f35b610178610173366004611604565b6102e6565b60405161015c969594939291906118df565b61014f61033e565b6101a56101a0366004611604565b61034d565b60405161015c91906118d6565b6101a56101c0366004611604565b61052e565b6101d86101d336600461151b565b610682565b005b6101a56107d9565b6101a56101f0366004611604565b6107df565b61014f610985565b61014f610999565b610218610213366004611604565b6109ad565b60405161015c9190611823565b61014f610ae0565b61014f610aef565b6101d8610243366004611604565b610afe565b6101d8610256366004611604565b610bd5565b6101d86102693660046114bc565b610d8c565b6101d861027c366004611634565b610dd8565b61014f61028f366004611634565b61109c565b6101a56102a2366004611604565b6111bb565b6102ba6102b5366004611604565b611267565b60405161015c91906116ce565b61014f611312565b6101a5611321565b6000546001600160a01b031681565b600381815481106102f657600080fd5b6000918252602090912060069091020180546001820154600283015460038401546005909401549294506001600160a01b039182169391169160ff8082169161010090041686565b6005546001600160a01b031681565b6000816001600061035d836109ad565b90508115158160c0015115151482610398576040518060400160405280600b81526020016a4445414c5f45584953545360a81b8152506103c0565b6040518060400160405280600e81526020016d1111505317d393d517d193d5539160921b8152505b906103e75760405162461bcd60e51b81526004016103de91906116e2565b60405180910390fd5b5060006103f3866109ad565b905060038160a00151600381111561041b57634e487b7160e01b600052602160045260246000fd5b141561042c57610309945050610526565b6000805b82608001515181101561052157306001600160a01b031683604001516001600160a01b0316636352211e8560800151848151811061047e57634e487b7160e01b600052603260045260246000fd5b60200260200101516040518263ffffffff1660e01b81526004016104a291906118d6565b60206040518083038186803b1580156104ba57600080fd5b505afa1580156104ce573d6000803e3d6000fd5b505050506040513d601f19601f820116820180604052508101906104f291906114df565b6001600160a01b0316141561050f578161050b8161193b565b9250505b806105198161193b565b915050610430565b509450505b505050919050565b6000816001600061053e836109ad565b90508115158160c0015115151482610579576040518060400160405280600b81526020016a4445414c5f45584953545360a81b8152506105a1565b6040518060400160405280600e81526020016d1111505317d393d517d193d5539160921b8152505b906105bf5760405162461bcd60e51b81526004016103de91906116e2565b5060006105cb866109ad565b9050600081602001516001600160a01b03166370a08231306040518263ffffffff1660e01b81526004016105ff919061167d565b60206040518083038186803b15801561061757600080fd5b505afa15801561062b573d6000803e3d6000fd5b505050506040513d601f19601f8201168201806040525081019061064f919061161c565b90508160600151811061066757600095505050610526565b8082606001516106779190611924565b979650505050505050565b60036040518060e001604052806002548152602001866001600160a01b03168152602001856001600160a01b03168152602001848152602001838152602001600160038111156106e257634e487b7160e01b600052602160045260246000fd5b8152600160209182018190528354808201855560009485529382902083516006909502019384558282015190840180546001600160a01b039283166001600160a01b031991821617909155604084015160028601805491909316911617905560608201516003840155608082015180519293926107659260048501920190611420565b5060a082015160058201805460ff1916600183600381111561079757634e487b7160e01b600052602160045260246000fd5b021790555060c09190910151600590910180549115156101000261ff0019909216919091179055600280549060006107ce8361193b565b919050555050505050565b60025490565b600081600160006107ef836109ad565b90508115158160c001511515148261082a576040518060400160405280600b81526020016a4445414c5f45584953545360a81b815250610852565b6040518060400160405280600e81526020016d1111505317d393d517d193d5539160921b8152505b906108705760405162461bcd60e51b81526004016103de91906116e2565b50600061087c866109ad565b90506000805b82608001515181101561097357306001600160a01b031683604001516001600160a01b0316636352211e856080015184815181106108d057634e487b7160e01b600052603260045260246000fd5b60200260200101516040518263ffffffff1660e01b81526004016108f491906118d6565b60206040518083038186803b15801561090c57600080fd5b505afa158015610920573d6000803e3d6000fd5b505050506040513d601f19601f8201168201806040525081019061094491906114df565b6001600160a01b03161415610961578161095d8161193b565b9250505b8061096b8161193b565b915050610882565b50808260800151516106779190611924565b60045461010090046001600160a01b031690565b60045461010090046001600160a01b031681565b6109b561146b565b600382815481106109d657634e487b7160e01b600052603260045260246000fd5b60009182526020918290206040805160e08101825260069093029091018054835260018101546001600160a01b0390811684860152600282015416838301526003810154606084015260048101805483518187028101870190945280845293949193608086019392830182828015610a6d57602002820191906000526020600020905b815481526020019060010190808311610a59575b5050509183525050600582015460209091019060ff166003811115610aa257634e487b7160e01b600052602160045260246000fd5b6003811115610ac157634e487b7160e01b600052602160045260246000fd5b815260059190910154610100900460ff16151560209091015292915050565b6001546001600160a01b031690565b6001546001600160a01b031681565b806000610b0a826109ad565b905060018160a001516003811115610b3257634e487b7160e01b600052602160045260246000fd5b14610b4f5760405162461bcd60e51b81526004016103de90611735565b6001546001600160a01b03163314610b795760405162461bcd60e51b81526004016103de906117d2565b610b82836107df565b15610b9f5760405162461bcd60e51b81526004016103de906117f6565b610ba88361052e565b15610bc55760405162461bcd60e51b81526004016103de906117a5565b610bd0836003611327565b505050565b8060016000610be3836109ad565b90508115158160c0015115151482610c1e576040518060400160405280600b81526020016a4445414c5f45584953545360a81b815250610c46565b6040518060400160405280600e81526020016d1111505317d393d517d193d5539160921b8152505b90610c645760405162461bcd60e51b81526004016103de91906116e2565b506000610c70856109ad565b905060038160a001516003811115610c9857634e487b7160e01b600052602160045260246000fd5b1415610ccd576005546001600160a01b03163314610cc85760405162461bcd60e51b81526004016103de9061175c565b610cfc565b60045461010090046001600160a01b03163314610cfc5760405162461bcd60e51b81526004016103de90611781565b80602001516001600160a01b031663a9059cbb3383606001516040518363ffffffff1660e01b8152600401610d329291906116b5565b602060405180830381600087803b158015610d4c57600080fd5b505af1158015610d60573d6000803e3d6000fd5b505050506040513d601f19601f82011682018060405250810190610d8491906114fb565b505050505050565b6001546001600160a01b03163314610db65760405162461bcd60e51b81526004016103de906117d2565b600180546001600160a01b0319166001600160a01b0392909216919091179055565b8160016000610de6836109ad565b90508115158160c0015115151482610e21576040518060400160405280600b81526020016a4445414c5f45584953545360a81b815250610e49565b6040518060400160405280600e81526020016d1111505317d393d517d193d5539160921b8152505b90610e675760405162461bcd60e51b81526004016103de91906116e2565b506000610e73866109ad565b9050600060038260a001516003811115610e9d57634e487b7160e01b600052602160045260246000fd5b1415610ed75760045461010090046001600160a01b03163314610ed25760405162461bcd60e51b81526004016103de90611781565b610f01565b6005546001600160a01b03163314610f015760405162461bcd60e51b81526004016103de9061175c565b60005b826080015151811015611092578682108015610fdb5750306001600160a01b031683604001516001600160a01b0316636352211e85608001518481518110610f5c57634e487b7160e01b600052603260045260246000fd5b60200260200101516040518263ffffffff1660e01b8152600401610f8091906118d6565b60206040518083038186803b158015610f9857600080fd5b505afa158015610fac573d6000803e3d6000fd5b505050506040513d601f19601f82011682018060405250810190610fd091906114df565b6001600160a01b0316145b156110805782604001516001600160a01b03166323b872dd30338660800151858151811061101957634e487b7160e01b600052603260045260246000fd5b60200260200101516040518463ffffffff1660e01b815260040161103f93929190611691565b600060405180830381600087803b15801561105957600080fd5b505af115801561106d573d6000803e3d6000fd5b50505050818061107c9061193b565b9250505b8061108a8161193b565b915050610f04565b5050505050505050565b600082600160006110ac836109ad565b90508115158160c00151151514826110e7576040518060400160405280600b81526020016a4445414c5f45584953545360a81b81525061110f565b6040518060400160405280600e81526020016d1111505317d393d517d193d5539160921b8152505b9061112d5760405162461bcd60e51b81526004016103de91906116e2565b506000611139876109ad565b905080604001516001600160a01b0316636352211e876040518263ffffffff1660e01b815260040161116b91906118d6565b60206040518083038186803b15801561118357600080fd5b505afa158015611197573d6000803e3d6000fd5b505050506040513d601f19601f8201168201806040525081019061067791906114df565b600081600160006111cb836109ad565b90508115158160c0015115151482611206576040518060400160405280600b81526020016a4445414c5f45584953545360a81b81525061122e565b6040518060400160405280600e81526020016d1111505317d393d517d193d5539160921b8152505b9061124c5760405162461bcd60e51b81526004016103de91906116e2565b506000611258866109ad565b60800151519695505050505050565b60008160016000611277836109ad565b90508115158160c00151151514826112b2576040518060400160405280600b81526020016a4445414c5f45584953545360a81b8152506112da565b6040518060400160405280600e81526020016d1111505317d393d517d193d5539160921b8152505b906112f85760405162461bcd60e51b81526004016103de91906116e2565b506000611304866109ad565b60a001519695505050505050565b6005546001600160a01b031690565b60025481565b8160016000611335836109ad565b90508115158160c0015115151482611370576040518060400160405280600b81526020016a4445414c5f45584953545360a81b815250611398565b6040518060400160405280600e81526020016d1111505317d393d517d193d5539160921b8152505b906113b65760405162461bcd60e51b81526004016103de91906116e2565b5083600386815481106113d957634e487b7160e01b600052603260045260246000fd5b60009182526020909120600560069092020101805460ff1916600183600381111561141457634e487b7160e01b600052602160045260246000fd5b02179055505050505050565b82805482825590600052602060002090810192821561145b579160200282015b8281111561145b578251825591602001919060010190611440565b506114679291506114a7565b5090565b6040805160e081018252600080825260208201819052918101829052606080820183905260808201529060a08201908152600060209091015290565b5b8082111561146757600081556001016114a8565b6000602082840312156114cd578081fd5b81356114d881611982565b9392505050565b6000602082840312156114f0578081fd5b81516114d881611982565b60006020828403121561150c578081fd5b815180151581146114d8578182fd5b60008060008060808587031215611530578283fd5b843561153b81611982565b935060208581013561154c81611982565b935060408601359250606086013567ffffffffffffffff8082111561156f578384fd5b818801915088601f830112611582578384fd5b8135818111156115945761159461196c565b838102604051858282010181811085821117156115b3576115b361196c565b604052828152858101935084860182860187018d10156115d1578788fd5b8795505b838610156115f35780358552600195909501949386019386016115d5565b50989b979a50959850505050505050565b600060208284031215611615578081fd5b5035919050565b60006020828403121561162d578081fd5b5051919050565b60008060408385031215611646578182fd5b50508035926020909101359150565b15159052565b6004811061167957634e487b7160e01b600052602160045260246000fd5b9052565b6001600160a01b0391909116815260200190565b6001600160a01b039384168152919092166020820152604081019190915260600190565b6001600160a01b03929092168252602082015260400190565b602081016116dc828461165b565b92915050565b6000602080835283518082850152825b8181101561170e578581018301518582016040015282016116f2565b8181111561171f5783604083870101525b50601f01601f1916929092016040019392505050565b6020808252600d908201526c2222a0a62fa727aa2fa7a822a760991b604082015260600190565b6020808252600b908201526a53454c4c45525f4f4e4c5960a81b604082015260600190565b6020808252600a908201526942555945525f4f4e4c5960b01b604082015260600190565b6020808252601390820152724445414c5f544f4b454e535f4d495353494e4760681b604082015260600190565b6020808252600a908201526927a7262cafa7aba722a960b11b604082015260600190565b6020808252601390820152724445414c5f4153534554535f4d495353494e4760681b604082015260600190565b6020808252825182820152828101516001600160a01b039081166040808501919091528401511660608084019190915283015160808084019190915283015160e060a0840152805161010084018190526000929182019083906101208601905b808310156118a35783518252928401926001929092019190840190611883565b5060a087015193506118b860c087018561165b565b60c087015193506118cc60e0870185611655565b9695505050505050565b90815260200190565b8681526001600160a01b038681166020830152851660408201526060810184905260c08101611911608083018561165b565b82151560a0830152979650505050505050565b60008282101561193657611936611956565b500390565b600060001982141561194f5761194f611956565b5060010190565b634e487b7160e01b600052601160045260246000fd5b634e487b7160e01b600052604160045260246000fd5b6001600160a01b038116811461199757600080fd5b5056fea264697066735822122035a712dcaa0c37f0146d503ef20fa362743b598b83814e3b7ce51c83adee2ee664736f6c63430008000033",
    "immutableReferences": {},
    "source": "// SPDX-License-Identifier: MIT\npragma solidity ^0.8.0;\npragma experimental ABIEncoderV2;\n\nimport \"@openzeppelin/contracts/token/ERC721/IERC721.sol\";\nimport \"@openzeppelin/contracts/token/ERC20/IERC20.sol\";\n\n\n/// @title DealRoom -- allows atomic swap for ERC20/ERC721\n/// @author Barry Earsman\ncontract DealRoom {\n    address public creator;\n    address public owner;\n    //IERC721 public erc721;\n    //IERC20 public erc20;\n    uint256 public dealCount;\n    Deal[] public deals;\n    //mapping(uint256 => Deal) private deals;\n    bool private settled;\n    address public buyer;\n    address public seller;\n\n    event Debug(bytes32 message, uint num);\n\n    struct Deal {\n        uint256 id;\n        IERC20 erc20;\n        IERC721 erc721;\n        uint256 price;\n        uint256[] assetItems;\n        DealStatus status;\n        bool valid;\n    }\n\n    enum DealStatus {\n        Undefined,\n        Open,\n        Cancelled,\n        Settled\n    }\n\n    constructor (address _buyer, address _seller) {\n        buyer = _buyer;\n        seller = _seller;\n        dealCount = 0;\n        owner = msg.sender;\n        creator = msg.sender;\n    }\n\n    function makeDeal(\n        IERC20 _erc20,\n        IERC721 _erc721,\n        uint256 _price,\n        uint256[] memory _assetItems\n    ) public  {\n\n        deals.push(Deal({\n            id: dealCount,\n            erc20: _erc20,\n            erc721: _erc721,\n            price: _price,\n            assetItems: _assetItems,\n            status: DealStatus.Open,\n            valid: true\n        }));\n        dealCount ++;\n        // dealIds.push(_id);\n    }\n\n    function dealAssetCount(uint256 id) public view dealExists(id, true) returns (uint256) {\n        Deal memory deal = getDeal(id);\n        return deal.assetItems.length;\n    }\n\n    function missingDealAssets(\n        uint256 id\n    ) public view dealExists(id, true) returns (uint256) {\n        //Check that all the assets have been deposited, and return the quantity missing    \n        Deal memory deal = getDeal(id);\n        /*if (deal.status == DealStatus.Settled) {\n            return 0;\n        }*/\n        uint256 assetDeposits = 0;\n        for (uint i = 0; i < deal.assetItems.length; i ++) {\n            // Check that I (the dealroom contract) own this asset\n            if (deal.erc721.ownerOf(deal.assetItems[i]) == address(this)) {\n                assetDeposits ++;\n            }\n        }\n        return (deal.assetItems.length - assetDeposits);\n    }\n\n    function assetOwner(\n        uint256 dealId, uint256 assetId\n    ) public view dealExists(dealId, true) returns (address) {\n        Deal memory deal = getDeal(dealId);\n        return deal.erc721.ownerOf(assetId);\n    }\n\n    function dealAssetsDeposited(\n        uint256 id\n    ) public view dealExists(id, true) returns (uint256) {\n        //Check that all the assets have been deposited, and return the quantity missing    \n        Deal memory deal = getDeal(id);\n        if (deal.status == DealStatus.Settled) {\n            return 777;\n        }\n        uint256 assetDeposits = 0;\n        for (uint i = 0; i < deal.assetItems.length; i ++) {\n            // Check that I (the dealroom contract) own this asset\n            if (deal.erc721.ownerOf(deal.assetItems[i]) == address(this)) {\n                assetDeposits ++;\n            }\n        }\n        return assetDeposits;\n    }\n\n    function missingDealCoins(\n        uint256 id\n    ) public view dealExists(id, true) returns (uint256) {\n        //Check that all the coins have been deposited, and return the amount missing\n        Deal memory deal = getDeal(id);\n        /*if (deal.status == DealStatus.Settled) {\n            return 0;\n        }*/\n        uint256 balance = deal.erc20.balanceOf(address(this));\n        if (balance >= deal.price) {\n            return 0;\n        }\n        return deal.price - balance;\n    }\n\n    function settle(\n        uint256 id\n    ) public dealOpen(id) isOwner() {\n        //Deal deal = getDeal(id)\n        //emit Debug(\"Deal ID\", deal.id);\n        //emit Debug(\"Deal ID\", deal.id);\n\n        //uint missing = missingDealAssets(id);\n        require(missingDealAssets(id) == 0, \"DEAL_ASSETS_MISSING\");\n        require(missingDealCoins(id) == 0, \"DEAL_TOKENS_MISSING\");\n        //emit Debug(\"Missing deal assets\", missing);\n        _setDealStatus(id, DealStatus.Settled);\n    }\n\n    function _setDealStatus(\n        uint256 id,\n        DealStatus status\n    ) private dealExists(id, true) {\n        deals[id].status = status;\n    }\n\n    //Transfer a batch of assets\n    function withdrawDealAssets(uint256 dealId, uint256 count) public dealExists(dealId, true) {\n        Deal memory deal = getDeal(dealId);\n        uint256 transferred = 0;\n\n        if (deal.status == DealStatus.Settled) {\n            require(msg.sender == buyer, \"BUYER_ONLY\");\n        } else {\n            require(msg.sender == seller, \"SELLER_ONLY\");\n        }\n\n        for (uint i = 0; i < deal.assetItems.length; i ++) {\n            if (transferred < count && deal.erc721.ownerOf(deal.assetItems[i]) == address(this)) {\n                deal.erc721.transferFrom(address(this), msg.sender, deal.assetItems[i]);\n                transferred ++;\n            }\n        }\n    }\n\n    function withdrawDealCoins(uint256 dealId) public dealExists(dealId, true) {\n        Deal memory deal = getDeal(dealId);\n\n        if (deal.status == DealStatus.Settled) {\n            require(msg.sender == seller, \"SELLER_ONLY\");\n        } else {\n            require(msg.sender == buyer, \"BUYER_ONLY\");\n        }\n        //TODO: Only allow the withdrawal once\n        deal.erc20.transfer(msg.sender, deal.price);\n    }\n\n    function getOwner() public view returns (address) {\n        return owner;\n    }\n\n    function getBuyer() public view returns (address) {\n        return buyer;\n    }\n\n    function getSeller() public view returns (address) {\n        return seller;\n    }\n\n    function changeOwner(address newOwner) public isOwner() {\n        owner = newOwner;\n    }\n\n    function getDeal(\n        uint256 id\n    ) public view returns (Deal memory) {\n        return deals[id];\n    }\n\n    function getDealCount() public view returns (uint256) {\n        return dealCount;\n    }\n\n    function getDealStatus(\n        uint256 id\n    ) public view dealExists(id, true) returns (DealStatus)  {\n        Deal memory deal = getDeal(id);\n        return deal.status;\n    }\n\n    modifier dealExists(\n        uint256 id,\n        bool exists\n    ) {\n        Deal memory deal = getDeal(id);\n        require(deal.valid == exists, exists?\"DEAL_NOT_FOUND\":\"DEAL_EXISTS\");\n        _;\n    }\n\n    modifier dealOpen(\n        uint256 id\n    ) {\n        Deal memory deal = getDeal(id);\n        require(deal.status == DealStatus.Open, \"DEAL_NOT_OPEN\");\n        _;\n    }\n\n    modifier dealClosed(\n        uint256 id\n    ) {\n        Deal memory deal = getDeal(id);\n        require(deal.status != DealStatus.Open, \"DEAL_OPEN\");\n        _;\n    }\n\n    modifier isOwner() {\n        require(msg.sender == owner, \"ONLY_OWNER\");\n        _;\n    }\n}\n",
    "sourcePath": "/projects/dealrooms/ethereum/contracts/DealRoom.sol",
    "compiler": {
        "name": "solc",
        "version": "0.8.0+commit.c7dfd78e.Emscripten.clang"
    },
    "schemaVersion": "3.4.1",
    "updatedAt": "2021-07-01T06:03:03.698Z",
    "devdoc": {
        "author": "Barry Earsman",
        "kind": "dev",
        "methods": {},
        "title": "DealRoom -- allows atomic swap for ERC20/ERC721",
        "version": 1
    },
    "userdoc": {
        "kind": "user",
        "methods": {},
        "version": 1
    }
}