{
    "contractName": "DealRoom",
    "abi": [
        {
            "inputs": [
                {
                    "internalType": "address",
                    "name": "_buyer",
                    "type": "address"
                },
                {
                    "internalType": "address",
                    "name": "_seller",
                    "type": "address"
                }
            ],
            "stateMutability": "nonpayable",
            "type": "constructor"
        },
        {
            "anonymous": false,
            "inputs": [
                {
                    "indexed": false,
                    "internalType": "bytes32",
                    "name": "message",
                    "type": "bytes32"
                },
                {
                    "indexed": false,
                    "internalType": "uint256",
                    "name": "num",
                    "type": "uint256"
                }
            ],
            "name": "Debug",
            "type": "event"
        },
        {
            "inputs": [],
            "name": "buyer",
            "outputs": [
                {
                    "internalType": "address",
                    "name": "",
                    "type": "address"
                }
            ],
            "stateMutability": "view",
            "type": "function"
        },
        {
            "inputs": [],
            "name": "creator",
            "outputs": [
                {
                    "internalType": "address",
                    "name": "",
                    "type": "address"
                }
            ],
            "stateMutability": "view",
            "type": "function"
        },
        {
            "inputs": [],
            "name": "dealCount",
            "outputs": [
                {
                    "internalType": "uint256",
                    "name": "",
                    "type": "uint256"
                }
            ],
            "stateMutability": "view",
            "type": "function"
        },
        {
            "inputs": [
                {
                    "internalType": "uint256",
                    "name": "",
                    "type": "uint256"
                }
            ],
            "name": "deals",
            "outputs": [
                {
                    "internalType": "uint256",
                    "name": "id",
                    "type": "uint256"
                },
                {
                    "internalType": "contract IERC20",
                    "name": "erc20",
                    "type": "address"
                },
                {
                    "internalType": "contract IERC721",
                    "name": "erc721",
                    "type": "address"
                },
                {
                    "internalType": "uint256",
                    "name": "price",
                    "type": "uint256"
                },
                {
                    "internalType": "enum DealRoom.DealStatus",
                    "name": "status",
                    "type": "uint8"
                },
                {
                    "internalType": "bool",
                    "name": "valid",
                    "type": "bool"
                }
            ],
            "stateMutability": "view",
            "type": "function"
        },
        {
            "inputs": [],
            "name": "owner",
            "outputs": [
                {
                    "internalType": "address",
                    "name": "",
                    "type": "address"
                }
            ],
            "stateMutability": "view",
            "type": "function"
        },
        {
            "inputs": [],
            "name": "seller",
            "outputs": [
                {
                    "internalType": "address",
                    "name": "",
                    "type": "address"
                }
            ],
            "stateMutability": "view",
            "type": "function"
        },
        {
            "inputs": [
                {
                    "internalType": "contract IERC20",
                    "name": "_erc20",
                    "type": "address"
                },
                {
                    "internalType": "contract IERC721",
                    "name": "_erc721",
                    "type": "address"
                },
                {
                    "internalType": "uint256",
                    "name": "_price",
                    "type": "uint256"
                },
                {
                    "internalType": "uint256[]",
                    "name": "_assetItems",
                    "type": "uint256[]"
                }
            ],
            "name": "makeDeal",
            "outputs": [],
            "stateMutability": "nonpayable",
            "type": "function"
        },
        {
            "inputs": [
                {
                    "internalType": "uint256",
                    "name": "id",
                    "type": "uint256"
                }
            ],
            "name": "dealAssetCount",
            "outputs": [
                {
                    "internalType": "uint256",
                    "name": "",
                    "type": "uint256"
                }
            ],
            "stateMutability": "view",
            "type": "function"
        },
        {
            "inputs": [
                {
                    "internalType": "uint256",
                    "name": "id",
                    "type": "uint256"
                }
            ],
            "name": "missingDealAssets",
            "outputs": [
                {
                    "internalType": "uint256",
                    "name": "",
                    "type": "uint256"
                }
            ],
            "stateMutability": "view",
            "type": "function"
        },
        {
            "inputs": [
                {
                    "internalType": "uint256",
                    "name": "dealId",
                    "type": "uint256"
                },
                {
                    "internalType": "uint256",
                    "name": "assetId",
                    "type": "uint256"
                }
            ],
            "name": "assetOwner",
            "outputs": [
                {
                    "internalType": "address",
                    "name": "",
                    "type": "address"
                }
            ],
            "stateMutability": "view",
            "type": "function"
        },
        {
            "inputs": [
                {
                    "internalType": "uint256",
                    "name": "id",
                    "type": "uint256"
                }
            ],
            "name": "dealAssetsDeposited",
            "outputs": [
                {
                    "internalType": "uint256",
                    "name": "",
                    "type": "uint256"
                }
            ],
            "stateMutability": "view",
            "type": "function"
        },
        {
            "inputs": [
                {
                    "internalType": "uint256",
                    "name": "id",
                    "type": "uint256"
                }
            ],
            "name": "missingDealCoins",
            "outputs": [
                {
                    "internalType": "uint256",
                    "name": "",
                    "type": "uint256"
                }
            ],
            "stateMutability": "view",
            "type": "function"
        },
        {
            "inputs": [
                {
                    "internalType": "uint256",
                    "name": "id",
                    "type": "uint256"
                }
            ],
            "name": "settle",
            "outputs": [],
            "stateMutability": "nonpayable",
            "type": "function"
        },
        {
            "inputs": [
                {
                    "internalType": "uint256",
                    "name": "dealId",
                    "type": "uint256"
                },
                {
                    "internalType": "uint256",
                    "name": "count",
                    "type": "uint256"
                }
            ],
            "name": "withdrawDealAssets",
            "outputs": [],
            "stateMutability": "nonpayable",
            "type": "function"
        },
        {
            "inputs": [
                {
                    "internalType": "uint256",
                    "name": "dealId",
                    "type": "uint256"
                }
            ],
            "name": "withdrawDealCoins",
            "outputs": [],
            "stateMutability": "nonpayable",
            "type": "function"
        },
        {
            "inputs": [],
            "name": "getOwner",
            "outputs": [
                {
                    "internalType": "address",
                    "name": "",
                    "type": "address"
                }
            ],
            "stateMutability": "view",
            "type": "function"
        },
        {
            "inputs": [],
            "name": "getBuyer",
            "outputs": [
                {
                    "internalType": "address",
                    "name": "",
                    "type": "address"
                }
            ],
            "stateMutability": "view",
            "type": "function"
        },
        {
            "inputs": [],
            "name": "getSeller",
            "outputs": [
                {
                    "internalType": "address",
                    "name": "",
                    "type": "address"
                }
            ],
            "stateMutability": "view",
            "type": "function"
        },
        {
            "inputs": [
                {
                    "internalType": "address",
                    "name": "newOwner",
                    "type": "address"
                }
            ],
            "name": "changeOwner",
            "outputs": [],
            "stateMutability": "nonpayable",
            "type": "function"
        },
        {
            "inputs": [
                {
                    "internalType": "uint256",
                    "name": "id",
                    "type": "uint256"
                }
            ],
            "name": "getDeal",
            "outputs": [
                {
                    "components": [
                        {
                            "internalType": "uint256",
                            "name": "id",
                            "type": "uint256"
                        },
                        {
                            "internalType": "contract IERC20",
                            "name": "erc20",
                            "type": "address"
                        },
                        {
                            "internalType": "contract IERC721",
                            "name": "erc721",
                            "type": "address"
                        },
                        {
                            "internalType": "uint256",
                            "name": "price",
                            "type": "uint256"
                        },
                        {
                            "internalType": "uint256[]",
                            "name": "assetItems",
                            "type": "uint256[]"
                        },
                        {
                            "internalType": "enum DealRoom.DealStatus",
                            "name": "status",
                            "type": "uint8"
                        },
                        {
                            "internalType": "bool",
                            "name": "valid",
                            "type": "bool"
                        }
                    ],
                    "internalType": "struct DealRoom.Deal",
                    "name": "",
                    "type": "tuple"
                }
            ],
            "stateMutability": "view",
            "type": "function"
        },
        {
            "inputs": [],
            "name": "getDealCount",
            "outputs": [
                {
                    "internalType": "uint256",
                    "name": "",
                    "type": "uint256"
                }
            ],
            "stateMutability": "view",
            "type": "function"
        },
        {
            "inputs": [
                {
                    "internalType": "uint256",
                    "name": "id",
                    "type": "uint256"
                }
            ],
            "name": "getDealStatus",
            "outputs": [
                {
                    "internalType": "enum DealRoom.DealStatus",
                    "name": "",
                    "type": "uint8"
                }
            ],
            "stateMutability": "view",
            "type": "function"
        }
    ],
    "bytecode": "0x60806040523480156200001157600080fd5b5060405162001b3438038062001b348339810160408190526200003491620000b0565b600480546001600160a01b0393841661010002610100600160a81b031990911617905560058054919092166001600160a01b031991821617909155600060028190556001805483163390811790915581549092169091179055620000e7565b80516001600160a01b0381168114620000ab57600080fd5b919050565b60008060408385031215620000c3578182fd5b620000ce8362000093565b9150620000de6020840162000093565b90509250929050565b611a3d80620000f76000396000f3fe608060405234801561001057600080fd5b50600436106101425760003560e01c8063893d20e8116100b8578063a719e1031161007c578063a719e1031461026e578063bf89293f14610281578063c3a77ea814610294578063c698f53b146102a7578063dbd0e1b6146102c7578063eadb3c9c146102cf57610142565b8063893d20e8146102255780638da5cb5b1461022d5780638df82800146102355780639056b97214610248578063a6f9dae11461025b57610142565b8063442d04ee1161010a578063442d04ee146101c55780634a3a8383146101da5780634d2d2c9d146101e2578063603daf9a146101f55780637150d8ae146101fd57806382fd5bac1461020557610142565b806302d05d3f1461014757806303988f841461016557806308551a531461018a578063155c3f69146101925780633f35253a146101b2575b600080fd5b61014f6102d7565b60405161015c91906116ea565b60405180910390f35b610178610173366004611671565b6102e6565b60405161015c9695949392919061194c565b61014f61033e565b6101a56101a0366004611671565b61034d565b60405161015c9190611943565b6101a56101c0366004611671565b61052e565b6101d86101d3366004611588565b6106b9565b005b6101a5610810565b6101a56101f0366004611671565b610816565b61014f6109f2565b61014f610a06565b610218610213366004611671565b610a1a565b60405161015c9190611890565b61014f610b4d565b61014f610b5c565b6101d8610243366004611671565b610b6b565b6101d8610256366004611671565b610c42565b6101d8610269366004611529565b610df9565b6101d861027c3660046116a1565b610e45565b61014f61028f3660046116a1565b611109565b6101a56102a2366004611671565b611228565b6102ba6102b5366004611671565b6112d4565b60405161015c919061173b565b61014f61137f565b6101a561138e565b6000546001600160a01b031681565b600381815481106102f657600080fd5b6000918252602090912060069091020180546001820154600283015460038401546005909401549294506001600160a01b039182169391169160ff8082169161010090041686565b6005546001600160a01b031681565b6000816001600061035d83610a1a565b90508115158160c0015115151482610398576040518060400160405280600b81526020016a4445414c5f45584953545360a81b8152506103c0565b6040518060400160405280600e81526020016d1111505317d393d517d193d5539160921b8152505b906103e75760405162461bcd60e51b81526004016103de919061174f565b60405180910390fd5b5060006103f386610a1a565b905060038160a00151600381111561041b57634e487b7160e01b600052602160045260246000fd5b141561042c57610309945050610526565b6000805b82608001515181101561052157306001600160a01b031683604001516001600160a01b0316636352211e8560800151848151811061047e57634e487b7160e01b600052603260045260246000fd5b60200260200101516040518263ffffffff1660e01b81526004016104a29190611943565b60206040518083038186803b1580156104ba57600080fd5b505afa1580156104ce573d6000803e3d6000fd5b505050506040513d601f19601f820116820180604052508101906104f2919061154c565b6001600160a01b0316141561050f578161050b816119a8565b9250505b80610519816119a8565b915050610430565b509450505b505050919050565b6000816001600061053e83610a1a565b90508115158160c0015115151482610579576040518060400160405280600b81526020016a4445414c5f45584953545360a81b8152506105a1565b6040518060400160405280600e81526020016d1111505317d393d517d193d5539160921b8152505b906105bf5760405162461bcd60e51b81526004016103de919061174f565b5060006105cb86610a1a565b905060038160a0015160038111156105f357634e487b7160e01b600052602160045260246000fd5b1415610603576000945050610526565b60208101516040516370a0823160e01b81526000916001600160a01b0316906370a08231906106369030906004016116ea565b60206040518083038186803b15801561064e57600080fd5b505afa158015610662573d6000803e3d6000fd5b505050506040513d601f19601f820116820180604052508101906106869190611689565b90508160600151811061069e57600095505050610526565b8082606001516106ae9190611991565b979650505050505050565b60036040518060e001604052806002548152602001866001600160a01b03168152602001856001600160a01b031681526020018481526020018381526020016001600381111561071957634e487b7160e01b600052602160045260246000fd5b8152600160209182018190528354808201855560009485529382902083516006909502019384558282015190840180546001600160a01b039283166001600160a01b0319918216179091556040840151600286018054919093169116179055606082015160038401556080820151805192939261079c926004850192019061148d565b5060a082015160058201805460ff191660018360038111156107ce57634e487b7160e01b600052602160045260246000fd5b021790555060c09190910151600590910180549115156101000261ff001990921691909117905560028054906000610805836119a8565b919050555050505050565b60025490565b6000816001600061082683610a1a565b90508115158160c0015115151482610861576040518060400160405280600b81526020016a4445414c5f45584953545360a81b815250610889565b6040518060400160405280600e81526020016d1111505317d393d517d193d5539160921b8152505b906108a75760405162461bcd60e51b81526004016103de919061174f565b5060006108b386610a1a565b905060038160a0015160038111156108db57634e487b7160e01b600052602160045260246000fd5b14156108eb576000945050610526565b6000805b8260800151518110156109e057306001600160a01b031683604001516001600160a01b0316636352211e8560800151848151811061093d57634e487b7160e01b600052603260045260246000fd5b60200260200101516040518263ffffffff1660e01b81526004016109619190611943565b60206040518083038186803b15801561097957600080fd5b505afa15801561098d573d6000803e3d6000fd5b505050506040513d601f19601f820116820180604052508101906109b1919061154c565b6001600160a01b031614156109ce57816109ca816119a8565b9250505b806109d8816119a8565b9150506108ef565b50808260800151516106ae9190611991565b60045461010090046001600160a01b031690565b60045461010090046001600160a01b031681565b610a226114d8565b60038281548110610a4357634e487b7160e01b600052603260045260246000fd5b60009182526020918290206040805160e08101825260069093029091018054835260018101546001600160a01b0390811684860152600282015416838301526003810154606084015260048101805483518187028101870190945280845293949193608086019392830182828015610ada57602002820191906000526020600020905b815481526020019060010190808311610ac6575b5050509183525050600582015460209091019060ff166003811115610b0f57634e487b7160e01b600052602160045260246000fd5b6003811115610b2e57634e487b7160e01b600052602160045260246000fd5b815260059190910154610100900460ff16151560209091015292915050565b6001546001600160a01b031690565b6001546001600160a01b031681565b806000610b7782610a1a565b905060018160a001516003811115610b9f57634e487b7160e01b600052602160045260246000fd5b14610bbc5760405162461bcd60e51b81526004016103de906117a2565b6001546001600160a01b03163314610be65760405162461bcd60e51b81526004016103de9061183f565b610bef83610816565b15610c0c5760405162461bcd60e51b81526004016103de90611863565b610c158361052e565b15610c325760405162461bcd60e51b81526004016103de90611812565b610c3d836003611394565b505050565b8060016000610c5083610a1a565b90508115158160c0015115151482610c8b576040518060400160405280600b81526020016a4445414c5f45584953545360a81b815250610cb3565b6040518060400160405280600e81526020016d1111505317d393d517d193d5539160921b8152505b90610cd15760405162461bcd60e51b81526004016103de919061174f565b506000610cdd85610a1a565b905060038160a001516003811115610d0557634e487b7160e01b600052602160045260246000fd5b1415610d3a576005546001600160a01b03163314610d355760405162461bcd60e51b81526004016103de906117c9565b610d69565b60045461010090046001600160a01b03163314610d695760405162461bcd60e51b81526004016103de906117ee565b80602001516001600160a01b031663a9059cbb3383606001516040518363ffffffff1660e01b8152600401610d9f929190611722565b602060405180830381600087803b158015610db957600080fd5b505af1158015610dcd573d6000803e3d6000fd5b505050506040513d601f19601f82011682018060405250810190610df19190611568565b505050505050565b6001546001600160a01b03163314610e235760405162461bcd60e51b81526004016103de9061183f565b600180546001600160a01b0319166001600160a01b0392909216919091179055565b8160016000610e5383610a1a565b90508115158160c0015115151482610e8e576040518060400160405280600b81526020016a4445414c5f45584953545360a81b815250610eb6565b6040518060400160405280600e81526020016d1111505317d393d517d193d5539160921b8152505b90610ed45760405162461bcd60e51b81526004016103de919061174f565b506000610ee086610a1a565b9050600060038260a001516003811115610f0a57634e487b7160e01b600052602160045260246000fd5b1415610f445760045461010090046001600160a01b03163314610f3f5760405162461bcd60e51b81526004016103de906117ee565b610f6e565b6005546001600160a01b03163314610f6e5760405162461bcd60e51b81526004016103de906117c9565b60005b8260800151518110156110ff5786821080156110485750306001600160a01b031683604001516001600160a01b0316636352211e85608001518481518110610fc957634e487b7160e01b600052603260045260246000fd5b60200260200101516040518263ffffffff1660e01b8152600401610fed9190611943565b60206040518083038186803b15801561100557600080fd5b505afa158015611019573d6000803e3d6000fd5b505050506040513d601f19601f8201168201806040525081019061103d919061154c565b6001600160a01b0316145b156110ed5782604001516001600160a01b03166323b872dd30338660800151858151811061108657634e487b7160e01b600052603260045260246000fd5b60200260200101516040518463ffffffff1660e01b81526004016110ac939291906116fe565b600060405180830381600087803b1580156110c657600080fd5b505af11580156110da573d6000803e3d6000fd5b5050505081806110e9906119a8565b9250505b806110f7816119a8565b915050610f71565b5050505050505050565b6000826001600061111983610a1a565b90508115158160c0015115151482611154576040518060400160405280600b81526020016a4445414c5f45584953545360a81b81525061117c565b6040518060400160405280600e81526020016d1111505317d393d517d193d5539160921b8152505b9061119a5760405162461bcd60e51b81526004016103de919061174f565b5060006111a687610a1a565b905080604001516001600160a01b0316636352211e876040518263ffffffff1660e01b81526004016111d89190611943565b60206040518083038186803b1580156111f057600080fd5b505afa158015611204573d6000803e3d6000fd5b505050506040513d601f19601f820116820180604052508101906106ae919061154c565b6000816001600061123883610a1a565b90508115158160c0015115151482611273576040518060400160405280600b81526020016a4445414c5f45584953545360a81b81525061129b565b6040518060400160405280600e81526020016d1111505317d393d517d193d5539160921b8152505b906112b95760405162461bcd60e51b81526004016103de919061174f565b5060006112c586610a1a565b60800151519695505050505050565b600081600160006112e483610a1a565b90508115158160c001511515148261131f576040518060400160405280600b81526020016a4445414c5f45584953545360a81b815250611347565b6040518060400160405280600e81526020016d1111505317d393d517d193d5539160921b8152505b906113655760405162461bcd60e51b81526004016103de919061174f565b50600061137186610a1a565b60a001519695505050505050565b6005546001600160a01b031690565b60025481565b81600160006113a283610a1a565b90508115158160c00151151514826113dd576040518060400160405280600b81526020016a4445414c5f45584953545360a81b815250611405565b6040518060400160405280600e81526020016d1111505317d393d517d193d5539160921b8152505b906114235760405162461bcd60e51b81526004016103de919061174f565b50836003868154811061144657634e487b7160e01b600052603260045260246000fd5b60009182526020909120600560069092020101805460ff1916600183600381111561148157634e487b7160e01b600052602160045260246000fd5b02179055505050505050565b8280548282559060005260206000209081019282156114c8579160200282015b828111156114c85782518255916020019190600101906114ad565b506114d4929150611514565b5090565b6040805160e081018252600080825260208201819052918101829052606080820183905260808201529060a08201908152600060209091015290565b5b808211156114d45760008155600101611515565b60006020828403121561153a578081fd5b8135611545816119ef565b9392505050565b60006020828403121561155d578081fd5b8151611545816119ef565b600060208284031215611579578081fd5b81518015158114611545578182fd5b6000806000806080858703121561159d578283fd5b84356115a8816119ef565b93506020858101356115b9816119ef565b935060408601359250606086013567ffffffffffffffff808211156115dc578384fd5b818801915088601f8301126115ef578384fd5b813581811115611601576116016119d9565b83810260405185828201018181108582111715611620576116206119d9565b604052828152858101935084860182860187018d101561163e578788fd5b8795505b83861015611660578035855260019590950194938601938601611642565b50989b979a50959850505050505050565b600060208284031215611682578081fd5b5035919050565b60006020828403121561169a578081fd5b5051919050565b600080604083850312156116b3578182fd5b50508035926020909101359150565b15159052565b600481106116e657634e487b7160e01b600052602160045260246000fd5b9052565b6001600160a01b0391909116815260200190565b6001600160a01b039384168152919092166020820152604081019190915260600190565b6001600160a01b03929092168252602082015260400190565b6020810161174982846116c8565b92915050565b6000602080835283518082850152825b8181101561177b5785810183015185820160400152820161175f565b8181111561178c5783604083870101525b50601f01601f1916929092016040019392505050565b6020808252600d908201526c2222a0a62fa727aa2fa7a822a760991b604082015260600190565b6020808252600b908201526a53454c4c45525f4f4e4c5960a81b604082015260600190565b6020808252600a908201526942555945525f4f4e4c5960b01b604082015260600190565b6020808252601390820152724445414c5f544f4b454e535f4d495353494e4760681b604082015260600190565b6020808252600a908201526927a7262cafa7aba722a960b11b604082015260600190565b6020808252601390820152724445414c5f4153534554535f4d495353494e4760681b604082015260600190565b6020808252825182820152828101516001600160a01b039081166040808501919091528401511660608084019190915283015160808084019190915283015160e060a0840152805161010084018190526000929182019083906101208601905b8083101561191057835182529284019260019290920191908401906118f0565b5060a0870151935061192560c08701856116c8565b60c0870151935061193960e08701856116c2565b9695505050505050565b90815260200190565b8681526001600160a01b038681166020830152851660408201526060810184905260c0810161197e60808301856116c8565b82151560a0830152979650505050505050565b6000828210156119a3576119a36119c3565b500390565b60006000198214156119bc576119bc6119c3565b5060010190565b634e487b7160e01b600052601160045260246000fd5b634e487b7160e01b600052604160045260246000fd5b6001600160a01b0381168114611a0457600080fd5b5056fea2646970667358221220f9fa67590eb6792965b31f07fa511db7cd12d0029f0d6a22e2c01f68384b89f464736f6c63430008000033",
    "immutableReferences": {},
    "source": "// SPDX-License-Identifier: MIT\npragma solidity ^0.8.0;\npragma experimental ABIEncoderV2;\n\nimport \"@openzeppelin/contracts/token/ERC721/IERC721.sol\";\nimport \"@openzeppelin/contracts/token/ERC20/IERC20.sol\";\n\n\n/// @title DealRoom -- allows atomic swap for ERC20/ERC721\n/// @author Barry Earsman\ncontract DealRoom {\n    address public creator;\n    address public owner;\n    //IERC721 public erc721;\n    //IERC20 public erc20;\n    uint256 public dealCount;\n    Deal[] public deals;\n    //mapping(uint256 => Deal) private deals;\n    bool private settled;\n    address public buyer;\n    address public seller;\n\n    event Debug(bytes32 message, uint num);\n\n    struct Deal {\n        uint256 id;\n        IERC20 erc20;\n        IERC721 erc721;\n        uint256 price;\n        uint256[] assetItems;\n        DealStatus status;\n        bool valid;\n    }\n\n    enum DealStatus {\n        Undefined,\n        Open,\n        Cancelled,\n        Settled\n    }\n\n    constructor (address _buyer, address _seller) {\n        buyer = _buyer;\n        seller = _seller;\n        dealCount = 0;\n        owner = msg.sender;\n        creator = msg.sender;\n    }\n\n    function makeDeal(\n        IERC20 _erc20,\n        IERC721 _erc721,\n        uint256 _price,\n        uint256[] memory _assetItems\n    ) public  {\n\n        deals.push(Deal({\n            id: dealCount,\n            erc20: _erc20,\n            erc721: _erc721,\n            price: _price,\n            assetItems: _assetItems,\n            status: DealStatus.Open,\n            valid: true\n        }));\n        dealCount ++;\n        // dealIds.push(_id);\n    }\n\n    function dealAssetCount(uint256 id) public view dealExists(id, true) returns (uint256) {\n        Deal memory deal = getDeal(id);\n        return deal.assetItems.length;\n    }\n\n    function missingDealAssets(\n        uint256 id\n    ) public view dealExists(id, true) returns (uint256) {\n        //Check that all the assets have been deposited, and return the quantity missing    \n        Deal memory deal = getDeal(id);\n        if (deal.status == DealStatus.Settled) {\n            return 0;\n        }\n        uint256 assetDeposits = 0;\n        for (uint i = 0; i < deal.assetItems.length; i ++) {\n            // Check that I (the dealroom contract) own this asset\n            if (deal.erc721.ownerOf(deal.assetItems[i]) == address(this)) {\n                assetDeposits ++;\n            }\n        }\n        return (deal.assetItems.length - assetDeposits);\n    }\n\n    function assetOwner(\n        uint256 dealId, uint256 assetId\n    ) public view dealExists(dealId, true) returns (address) {\n        Deal memory deal = getDeal(dealId);\n        return deal.erc721.ownerOf(assetId);\n    }\n\n    function dealAssetsDeposited(\n        uint256 id\n    ) public view dealExists(id, true) returns (uint256) {\n        //Check that all the assets have been deposited, and return the quantity missing    \n        Deal memory deal = getDeal(id);\n        if (deal.status == DealStatus.Settled) {\n            return 777;\n        }\n        uint256 assetDeposits = 0;\n        for (uint i = 0; i < deal.assetItems.length; i ++) {\n            // Check that I (the dealroom contract) own this asset\n            if (deal.erc721.ownerOf(deal.assetItems[i]) == address(this)) {\n                assetDeposits ++;\n            }\n        }\n        return assetDeposits;\n    }\n\n    function missingDealCoins(\n        uint256 id\n    ) public view dealExists(id, true) returns (uint256) {\n        //Check that all the coins have been deposited, and return the amount missing\n        Deal memory deal = getDeal(id);\n        if (deal.status == DealStatus.Settled) {\n            return 0;\n        }\n        uint256 balance = deal.erc20.balanceOf(address(this));\n        if (balance >= deal.price) {\n            return 0;\n        }\n        return deal.price - balance;\n    }\n\n    function settle(\n        uint256 id\n    ) public dealOpen(id) isOwner() {\n        //Deal deal = getDeal(id)\n        //emit Debug(\"Deal ID\", deal.id);\n        //emit Debug(\"Deal ID\", deal.id);\n\n        //uint missing = missingDealAssets(id);\n        require(missingDealAssets(id) == 0, \"DEAL_ASSETS_MISSING\");\n        require(missingDealCoins(id) == 0, \"DEAL_TOKENS_MISSING\");\n        //emit Debug(\"Missing deal assets\", missing);\n        _setDealStatus(id, DealStatus.Settled);\n    }\n\n    function _setDealStatus(\n        uint256 id,\n        DealStatus status\n    ) private dealExists(id, true) {\n        deals[id].status = status;\n    }\n\n    //Transfer a batch of assets\n    function withdrawDealAssets(uint256 dealId, uint256 count) public dealExists(dealId, true) {\n        Deal memory deal = getDeal(dealId);\n        uint256 transferred = 0;\n\n        if (deal.status == DealStatus.Settled) {\n            require(msg.sender == buyer, \"BUYER_ONLY\");\n        } else {\n            require(msg.sender == seller, \"SELLER_ONLY\");\n        }\n\n        for (uint i = 0; i < deal.assetItems.length; i ++) {\n            if (transferred < count && deal.erc721.ownerOf(deal.assetItems[i]) == address(this)) {\n                deal.erc721.transferFrom(address(this), msg.sender, deal.assetItems[i]);\n                transferred ++;\n            }\n        }\n    }\n\n    function withdrawDealCoins(uint256 dealId) public dealExists(dealId, true) {\n        Deal memory deal = getDeal(dealId);\n\n        if (deal.status == DealStatus.Settled) {\n            require(msg.sender == seller, \"SELLER_ONLY\");\n        } else {\n            require(msg.sender == buyer, \"BUYER_ONLY\");\n        }\n        deal.erc20.transfer(msg.sender, deal.price);\n    }\n\n    function getOwner() public view returns (address) {\n        return owner;\n    }\n\n    function getBuyer() public view returns (address) {\n        return buyer;\n    }\n\n    function getSeller() public view returns (address) {\n        return seller;\n    }\n\n    function changeOwner(address newOwner) public isOwner() {\n        owner = newOwner;\n    }\n\n    function getDeal(\n        uint256 id\n    ) public view returns (Deal memory) {\n        return deals[id];\n    }\n\n    function getDealCount() public view returns (uint256) {\n        return dealCount;\n    }\n\n    function getDealStatus(\n        uint256 id\n    ) public view dealExists(id, true) returns (DealStatus)  {\n        Deal memory deal = getDeal(id);\n        return deal.status;\n    }\n\n    modifier dealExists(\n        uint256 id,\n        bool exists\n    ) {\n        Deal memory deal = getDeal(id);\n        require(deal.valid == exists, exists?\"DEAL_NOT_FOUND\":\"DEAL_EXISTS\");\n        _;\n    }\n\n    modifier dealOpen(\n        uint256 id\n    ) {\n        Deal memory deal = getDeal(id);\n        require(deal.status == DealStatus.Open, \"DEAL_NOT_OPEN\");\n        _;\n    }\n\n    modifier dealClosed(\n        uint256 id\n    ) {\n        Deal memory deal = getDeal(id);\n        require(deal.status != DealStatus.Open, \"DEAL_OPEN\");\n        _;\n    }\n\n    modifier isOwner() {\n        require(msg.sender == owner, \"ONLY_OWNER\");\n        _;\n    }\n}\n",
    "sourcePath": "/projects/dealrooms/ethereum/contracts/DealRoom.sol",
    "compiler": {
        "name": "solc",
        "version": "0.8.0+commit.c7dfd78e.Emscripten.clang"
    },
    "schemaVersion": "3.4.1",
    "updatedAt": "2021-07-01T00:41:39.561Z",
    "devdoc": {
        "author": "Barry Earsman",
        "kind": "dev",
        "methods": {},
        "title": "DealRoom -- allows atomic swap for ERC20/ERC721",
        "version": 1
    },
    "userdoc": {
        "kind": "user",
        "methods": {},
        "version": 1
    }
}