{
    "contractName": "TestContract",
    "abi": [
        {
            "inputs": [
                {
                    "internalType": "uint256",
                    "name": "_intValue",
                    "type": "uint256"
                }
            ],
            "name": "doSomethingInt",
            "outputs": [],
            "stateMutability": "nonpayable",
            "type": "function"
        },
        {
            "inputs": [],
            "name": "getSomethingInt",
            "outputs": [
                {
                    "internalType": "uint256",
                    "name": "",
                    "type": "uint256"
                }
            ],
            "stateMutability": "view",
            "type": "function"
        }
    ],
    "bytecode": "0x608060405234801561001057600080fd5b5060c38061001f6000396000f3fe6080604052348015600f57600080fd5b506004361060325760003560e01c80635d46730a1460375780639e4ccc3b146051575b600080fd5b603d6062565b604051604891906084565b60405180910390f35b6060605c366004606d565b6068565b005b60005490565b600055565b600060208284031215607d578081fd5b5035919050565b9081526020019056fea26469706673582212209b464998aeac5650d16eef3956a0fd0a04c78bfeba7eeb1e2fbbb47c923dbebf64736f6c63430008000033",
    "immutableReferences": {},
    "source": "pragma solidity ^0.8.0;\n\ncontract TestContract {\n\n    uint256 intValue;\n\n    function doSomethingInt(uint256 _intValue) public {\n        intValue = _intValue;\n    }\n\n    function getSomethingInt() public view returns (uint256) {\n        return intValue;\n    }\n}",
    "sourcePath": "/projects/dealrooms/ethereum/contracts/TestContract.sol",
    "compiler": {
        "name": "solc",
        "version": "0.8.0+commit.c7dfd78e.Emscripten.clang"
    },
    "schemaVersion": "3.4.1",
    "updatedAt": "2021-07-21T06:23:57.427Z",
    "devdoc": {
        "kind": "dev",
        "methods": {},
        "version": 1
    },
    "userdoc": {
        "kind": "user",
        "methods": {},
        "version": 1
    }
}