{
  "contractName": "DealRoomDeployer",
  "abi": [
    {
      "constant": false,
      "inputs": [
        {
          "name": "id",
          "type": "uint256"
        },
        {
          "name": "buyer",
          "type": "address"
        },
        {
          "name": "seller",
          "type": "address"
        }
      ],
      "name": "makeRoom",
      "outputs": [],
      "payable": false,
      "stateMutability": "nonpayable",
      "type": "function"
    },
    {
      "constant": true,
      "inputs": [
        {
          "name": "_user",
          "type": "address"
        }
      ],
      "name": "getUserRooms",
      "outputs": [
        {
          "name": "",
          "type": "address[]"
        }
      ],
      "payable": false,
      "stateMutability": "view",
      "type": "function"
    },
    {
      "constant": true,
      "inputs": [],
      "name": "getAllRooms",
      "outputs": [
        {
          "name": "",
          "type": "address[]"
        }
      ],
      "payable": false,
      "stateMutability": "view",
      "type": "function"
    },
    {
      "constant": true,
      "inputs": [
        {
          "name": "id",
          "type": "uint256"
        }
      ],
      "name": "getRoom",
      "outputs": [
        {
          "name": "",
          "type": "address"
        }
      ],
      "payable": false,
      "stateMutability": "view",
      "type": "function"
    },
    {
      "constant": true,
      "inputs": [],
      "name": "roomCount",
      "outputs": [
        {
          "name": "",
          "type": "uint256"
        }
      ],
      "payable": false,
      "stateMutability": "view",
      "type": "function"
    }
  ],
  "bytecode": "0x608060405234801561001057600080fd5b50611bdb806100206000396000f3fe608060405234801561001057600080fd5b50600436106100575760003560e01c80630a8795ca1461005c5780636d8a74cb14610092578063b01e7961146100cb578063df93a4e314610141578063f794cf2d1461015b575b600080fd5b6100906004803603606081101561007257600080fd5b508035906001600160a01b0360208201358116916040013516610163565b005b6100af600480360360208110156100a857600080fd5b5035610383565b604080516001600160a01b039092168252519081900360200190f35b6100f1600480360360208110156100e157600080fd5b50356001600160a01b031661039e565b60408051602080825283518183015283519192839290830191858101910280838360005b8381101561012d578181015183820152602001610115565b505050509050019250505060405180910390f35b610149610412565b60408051918252519081900360200190f35b6100f1610418565b8260008061017083610383565b905081156101dd576001600160a01b03811615156101d85760408051600160e51b62461bcd02815260206004820152600e60248201527f524f4f4d5f4e4f545f464f554e44000000000000000000000000000000000000604482015290519081900360640190fd5b61022d565b6001600160a01b0381161561022d5760408051600160e51b62461bcd02815260206004820152600b6024820152600160a81b6a524f4f4d5f45584953545302604482015290519081900360640190fd5b6000858560405161023d9061047a565b6001600160a01b03928316815291166020820152604080519182900301906000f080158015610270573d6000803e3d6000fd5b5060408051600160e01b63a6f9dae102815233600482015290519192506001600160a01b0383169163a6f9dae19160248082019260009290919082900301818387803b1580156102bf57600080fd5b505af11580156102d3573d6000803e3d6000fd5b50506002805460018181019092557f405787fa12a823e0f2b7631cc41b3ba8828b3321ca811111fa75cd3aa3bb5ace0180546001600160a01b039586166001600160a01b03199182168117909255998516600090815260208181526040808320805480870182559084528284200180548e16851790559a9096168152898120805480850182559082528682200180548c16831790559a8b5293525050939095208054909416909217909255505050565b6000908152600160205260409020546001600160a01b031690565b6001600160a01b0381166000908152602081815260409182902080548351818402810184019094528084526060939283018282801561040657602002820191906000526020600020905b81546001600160a01b031681526001909101906020018083116103e8575b50505050509050919050565b60025490565b6060600280548060200260200160405190810160405280929190818152602001828054801561047057602002820191906000526020600020905b81546001600160a01b03168152600190910190602001808311610452575b5050505050905090565b611728806104888339019056fe60806040523480156200001157600080fd5b5060405160408062001728833981018060405262000033919081019062000099565b600680546001600160a01b0393841661010002610100600160a81b031990911617905560078054919092166001600160a01b03199182161790915560006003819055805490911633179055620000f7565b6000620000928251620000d8565b9392505050565b60008060408385031215620000ad57600080fd5b6000620000bb858562000084565b9250506020620000ce8582860162000084565b9150509250929050565b6000620000e582620000eb565b92915050565b6001600160a01b031690565b61162180620001076000396000f3fe608060405234801561001057600080fd5b50600436106100cf5760003560e01c80638df828001161008c578063bca6ce6411610066578063bca6ce64146101a8578063c009b629146101b0578063c698f53b146101c3578063eadb3c9c146101e3576100cf565b80638df828001461016f578063a6f9dae114610182578063a719e10314610195576100cf565b806301eb6ca4146100d457806345b623b2146100fd5780634d2d2c9d14610112578063785e9e861461012557806382fd5bac1461013a578063893d20e81461015a575b600080fd5b6100e76100e2366004611044565b6101eb565b6040516100f491906114fb565b60405180910390f35b61011061010b366004611044565b6102de565b005b6100e7610120366004611044565b61049e565b61012d6105dd565b6040516100f4919061145d565b61014d610148366004611044565b6105ec565b6040516100f491906114ea565b6101626106de565b6040516100f49190611406565b61011061017d366004611044565b6106ee565b610110610190366004610fe2565b6107c3565b6101106101a336600461111f565b610812565b61012d610aad565b6101106101be366004611080565b610abc565b6101d66101d1366004611044565b610cce565b6040516100f4919061146b565b6100e7610d90565b6000816101f6610e6b565b6101ff826105ec565b905060018160c00151600381111561021357fe5b1461023c57604051600160e51b62461bcd0281526004016102339061148a565b60405180910390fd5b610244610e6b565b61024d856105ec565b905080604001516001600160a01b03166370a08231306040518263ffffffff1660e01b815260040161027f9190611406565b60206040518083038186803b15801561029757600080fd5b505afa1580156102ab573d6000803e3d6000fd5b505050506040513d601f19601f820116820180604052506102cf9190810190611062565b60809091015103949350505050565b8060016102e9610e6b565b6102f2836105ec565b90508115158160e0015115151482610330576040518060400160405280600b8152602001600160a81b6a4445414c5f4558495354530281525061035b565b6040518060400160405280600e8152602001600160921b6d1111505317d393d517d193d55391028152505b90151561037e57604051600160e51b62461bcd0281526004016102339190611479565b50610387610e6b565b610390856105ec565b905060038160c0015160038111156103a457fe5b14156103dc576007546001600160a01b031633146103d757604051600160e51b62461bcd028152600401610233906114aa565b61040e565b60065461010090046001600160a01b0316331461040e57604051600160e51b62461bcd0281526004016102339061149a565b80604001516001600160a01b031663a9059cbb3383608001516040518363ffffffff1660e01b815260040161044492919061141a565b602060405180830381600087803b15801561045e57600080fd5b505af1158015610472573d6000803e3d6000fd5b505050506040513d601f19601f820116820180604052506104969190810190611026565b505050505050565b6000816104a9610e6b565b6104b2826105ec565b905060018160c0015160038111156104c657fe5b146104e657604051600160e51b62461bcd0281526004016102339061148a565b60006104f0610e6b565b6104f9866105ec565b905060005b8160a00151518110156105ce57306001600160a01b031682606001516001600160a01b0316636352211e8460a001518481518110151561053a57fe5b906020019060200201516040518263ffffffff1660e01b815260040161056091906114fb565b60206040518083038186803b15801561057857600080fd5b505afa15801561058c573d6000803e3d6000fd5b505050506040513d601f19601f820116820180604052506105b09190810190611008565b6001600160a01b031614156105c6576001909201915b6001016104fe565b5060a001515103949350505050565b6002546001600160a01b031681565b6105f4610e6b565b6000828152600460208181526040928390208351610100810185528154815260018201546001600160a01b0390811682850152600283015481168287015260038301541660608201529281015460808401526005810180548551818502810185019096528086529394919360a086019383018282801561069357602002820191906000526020600020905b81548152602001906001019080831161067f575b5050509183525050600682015460209091019060ff1660038111156106b457fe5b60038111156106bf57fe5b815260069190910154610100900460ff16151560209091015292915050565b6000546001600160a01b03165b90565b806106f7610e6b565b610700826105ec565b905060018160c00151600381111561071457fe5b1461073457604051600160e51b62461bcd0281526004016102339061148a565b6000546001600160a01b0316331461076157604051600160e51b62461bcd028152600401610233906114ca565b61076a8361049e565b1561078a57604051600160e51b62461bcd028152600401610233906114da565b610793836101eb565b156107b357604051600160e51b62461bcd028152600401610233906114ba565b6107be836003610d96565b505050565b6000546001600160a01b031633146107f057604051600160e51b62461bcd028152600401610233906114ca565b600080546001600160a01b0319166001600160a01b0392909216919091179055565b81600161081d610e6b565b610826836105ec565b90508115158160e0015115151482610864576040518060400160405280600b8152602001600160a81b6a4445414c5f4558495354530281525061088f565b6040518060400160405280600e8152602001600160921b6d1111505317d393d517d193d55391028152505b9015156108b257604051600160e51b62461bcd0281526004016102339190611479565b506108bb610e6b565b6108c4866105ec565b9050600060038260c0015160038111156108da57fe5b14156109175760065461010090046001600160a01b0316331461091257604051600160e51b62461bcd028152600401610233906114aa565b610944565b6007546001600160a01b0316331461094457604051600160e51b62461bcd0281526004016102339061149a565b60005b8260a0015151811015610aa3578682108015610a0e5750306001600160a01b031683606001516001600160a01b0316636352211e8560a001518481518110151561098d57fe5b906020019060200201516040518263ffffffff1660e01b81526004016109b391906114fb565b60206040518083038186803b1580156109cb57600080fd5b505afa1580156109df573d6000803e3d6000fd5b505050506040513d601f19601f82011682018060405250610a039190810190611008565b6001600160a01b0316145b15610a9b5782606001516001600160a01b03166323b872dd30338660a0015185815181101515610a3a57fe5b906020019060200201516040518463ffffffff1660e01b8152600401610a6293929190611435565b600060405180830381600087803b158015610a7c57600080fd5b505af1158015610a90573d6000803e3d6000fd5b505060019093019250505b600101610947565b5050505050505050565b6001546001600160a01b031681565b856000610ac7610e6b565b610ad0836105ec565b90508115158160e0015115151482610b0e576040518060400160405280600b8152602001600160a81b6a4445414c5f45584953545302815250610b39565b6040518060400160405280600e8152602001600160921b6d1111505317d393d517d193d55391028152505b901515610b5c57604051600160e51b62461bcd0281526004016102339190611479565b506040518061010001604052808a8152602001896001600160a01b03168152602001886001600160a01b03168152602001876001600160a01b0316815260200186815260200185815260200160016003811115610bb557fe5b81526001602091820181905260008c81526004808452604091829020855181558585015193810180546001600160a01b03199081166001600160a01b0396871617909155928601516002820180548516918616919091179055606086015160038201805490941694169390931790915560808401519082015560a083015180519192610c4992600585019290910190610eaf565b5060c082015160068201805460ff19166001836003811115610c6757fe5b021790555060e09190910151600690910180549115156101000261ff00199092169190911790555050600580546001810182556000919091527f036b6384b5eca791c62761152d0c79bb0604c104a5fb6f4eb0703f3154bb3db00196909655505050505050565b6000816001610cdb610e6b565b610ce4836105ec565b90508115158160e0015115151482610d22576040518060400160405280600b8152602001600160a81b6a4445414c5f45584953545302815250610d4d565b6040518060400160405280600e8152602001600160921b6d1111505317d393d517d193d55391028152505b901515610d7057604051600160e51b62461bcd0281526004016102339190611479565b50610d79610e6b565b610d82866105ec565b60c001519695505050505050565b60035481565b816001610da1610e6b565b610daa836105ec565b90508115158160e0015115151482610de8576040518060400160405280600b8152602001600160a81b6a4445414c5f45584953545302815250610e13565b6040518060400160405280600e8152602001600160921b6d1111505317d393d517d193d55391028152505b901515610e3657604051600160e51b62461bcd0281526004016102339190611479565b506000858152600460205260409020600601805485919060ff19166001836003811115610e5f57fe5b02179055505050505050565b604080516101008101825260008082526020820181905291810182905260608082018390526080820183905260a08201529060c08201908152600060209091015290565b828054828255906000526020600020908101928215610eea579160200282015b82811115610eea578251825591602001919060010190610ecf565b50610ef6929150610efa565b5090565b6106eb91905b80821115610ef65760008155600101610f00565b6000610f208235611564565b9392505050565b6000610f208251611564565b6000601f82018313610f4457600080fd5b8135610f57610f5282611530565b611509565b91508181835260208401935060208101905083856020840282011115610f7c57600080fd5b60005b83811015610fa85781610f928882610fca565b8452506020928301929190910190600101610f7f565b5050505092915050565b6000610f20825161156f565b6000610f20823561158c565b6000610f2082356106eb565b6000610f2082516106eb565b600060208284031215610ff457600080fd5b60006110008484610f14565b949350505050565b60006020828403121561101a57600080fd5b60006110008484610f27565b60006020828403121561103857600080fd5b60006110008484610fb2565b60006020828403121561105657600080fd5b60006110008484610fca565b60006020828403121561107457600080fd5b60006110008484610fd6565b60008060008060008060c0878903121561109957600080fd5b60006110a58989610fca565b96505060206110b689828a01610f14565b95505060406110c789828a01610fbe565b94505060606110d889828a01610fbe565b93505060806110e989828a01610fca565b92505060a087013567ffffffffffffffff81111561110657600080fd5b61111289828a01610f33565b9150509295509295509295565b6000806040838503121561113257600080fd5b600061113e8585610fca565b925050602061114f85828601610fca565b9150509250929050565b600061116583836113fd565b505060200190565b61117681611597565b82525050565b61117681611564565b600061119082611557565b61119a818561155b565b93506111a583611551565b60005b828110156111d0576111bb868351611159565b95506111c682611551565b91506001016111a8565b5093949350505050565b6111768161156f565b6111768161158c565b611176816115a2565b600061120082611557565b61120a818561155b565b935061121a8185602086016115ad565b611223816115dd565b9093019392505050565b600061123a600d8361155b565b7f4445414c5f4e4f545f4f50454e00000000000000000000000000000000000000815260200192915050565b6000611273600b8361155b565b600160a81b6a53454c4c45525f4f4e4c5902815260200192915050565b600061129d600a8361155b565b600160b01b6942555945525f4f4e4c5902815260200192915050565b60006112c660138361155b565b7f4445414c5f544f4b454e535f4d495353494e4700000000000000000000000000815260200192915050565b60006112ff600a8361155b565b600160b11b6927a7262cafa7aba722a902815260200192915050565b600061132860138361155b565b7f4445414c5f4153534554535f4d495353494e4700000000000000000000000000815260200192915050565b805160009061010084019061136985826113fd565b50602083015161137c602086018261117c565b50604083015161138f60408601826111e3565b5060608301516113a260608601826111e3565b5060808301516113b560808601826113fd565b5060a083015184820360a08601526113cd8282611185565b91505060c08301516113e260c08601826111ec565b5060e08301516113f560e08601826111da565b509392505050565b611176816106eb565b60208101611414828461117c565b92915050565b60408101611428828561116d565b610f2060208301846113fd565b60608101611443828661117c565b611450602083018561116d565b61100060408301846113fd565b6020810161141482846111e3565b6020810161141482846111ec565b60208082528101610f2081846111f5565b602080825281016114148161122d565b6020808252810161141481611266565b6020808252810161141481611290565b60208082528101611414816112b9565b60208082528101611414816112f2565b602080825281016114148161131b565b60208082528101610f208184611354565b6020810161141482846113fd565b60405181810167ffffffffffffffff8111828210171561152857600080fd5b604052919050565b600067ffffffffffffffff82111561154757600080fd5b5060209081020190565b60200190565b5190565b90815260200190565b600061141482611580565b151590565b600060048210610ef657fe5b6001600160a01b031690565b600061141482611564565b60006114148261158c565b600061141482611574565b60005b838110156115c85781810151838201526020016115b0565b838111156115d7576000848401525b50505050565b601f01601f19169056fea265627a7a723058203e856f501138621bcbdca7934aa91db7275bc1cb30f63e747e461d6de0a532496c6578706572696d656e74616cf50037a165627a7a723058206b3e08a7d94360f2d3d891f01c4c30ccbb061a32f7c23f09f2cc13fa444e99070029",
  "source": "// SPDX-License-Identifier: MIT\npragma solidity >=0.5.0 <0.7.0;\n\nimport \"./DealRoom.sol\";\n\ncontract DealRoomDeployer {\n\n    mapping (address => address[]) private roomsByUser;\n    mapping (uint256 => address) private roomById;\n    address[] private rooms;\n\n    function makeRoom(uint256 id, address buyer, address seller) public roomExists(id, false) {\n        DealRoom room = new DealRoom(buyer, seller);\n        room.changeOwner(msg.sender);\n        rooms.push(address(room));\n        roomsByUser[buyer].push(address(room));\n        roomsByUser[seller].push(address(room));\n        roomById[id] = address(room);\n    }\n\n    function getUserRooms(address _user) public view returns(address[] memory) {\n        return roomsByUser[_user];\n    }\n    function getAllRooms() public view returns(address[] memory) {\n        return rooms;\n    }\n    function getRoom(uint256 id) public view returns (address) {\n        return roomById[id];\n    }\n    function roomCount() public view returns (uint) {\n        return rooms.length;\n    }\n\n    modifier roomExists(\n        uint256 id,\n        bool mustExist\n    ) {\n        address roomAddr = getRoom(id);\n        if (mustExist) {\n            //Room must exist\n            require(roomAddr != address(0), \"ROOM_NOT_FOUND\");\n        } else {\n            //Room must not already exist\n            require(roomAddr == address(0), \"ROOM_EXISTS\");\n        }\n        _;\n    }\n}\n",
  "sourcePath": "/projects/beefledger/investor-engine/contracts/DealRoomDeployer.sol",
  "compiler": {
    "name": "solc",
    "version": "0.5.5+commit.47a71e8f.Emscripten.clang"
  },
  "schemaVersion": "3.1.0",
  "updatedAt": "2020-07-30T12:28:01.355Z",
  "devdoc": {
    "methods": {}
  },
  "userdoc": {
    "methods": {}
  }
}