{
  "contractName": "ERC20Mintable",
  "abi": [
    {
      "constant": false,
      "inputs": [
        {
          "name": "spender",
          "type": "address"
        },
        {
          "name": "amount",
          "type": "uint256"
        }
      ],
      "name": "approve",
      "outputs": [
        {
          "name": "",
          "type": "bool"
        }
      ],
      "payable": false,
      "stateMutability": "nonpayable",
      "type": "function"
    },
    {
      "constant": true,
      "inputs": [],
      "name": "totalSupply",
      "outputs": [
        {
          "name": "",
          "type": "uint256"
        }
      ],
      "payable": false,
      "stateMutability": "view",
      "type": "function"
    },
    {
      "constant": false,
      "inputs": [
        {
          "name": "sender",
          "type": "address"
        },
        {
          "name": "recipient",
          "type": "address"
        },
        {
          "name": "amount",
          "type": "uint256"
        }
      ],
      "name": "transferFrom",
      "outputs": [
        {
          "name": "",
          "type": "bool"
        }
      ],
      "payable": false,
      "stateMutability": "nonpayable",
      "type": "function"
    },
    {
      "constant": false,
      "inputs": [
        {
          "name": "spender",
          "type": "address"
        },
        {
          "name": "addedValue",
          "type": "uint256"
        }
      ],
      "name": "increaseAllowance",
      "outputs": [
        {
          "name": "",
          "type": "bool"
        }
      ],
      "payable": false,
      "stateMutability": "nonpayable",
      "type": "function"
    },
    {
      "constant": true,
      "inputs": [
        {
          "name": "account",
          "type": "address"
        }
      ],
      "name": "balanceOf",
      "outputs": [
        {
          "name": "",
          "type": "uint256"
        }
      ],
      "payable": false,
      "stateMutability": "view",
      "type": "function"
    },
    {
      "constant": false,
      "inputs": [
        {
          "name": "account",
          "type": "address"
        }
      ],
      "name": "addMinter",
      "outputs": [],
      "payable": false,
      "stateMutability": "nonpayable",
      "type": "function"
    },
    {
      "constant": false,
      "inputs": [],
      "name": "renounceMinter",
      "outputs": [],
      "payable": false,
      "stateMutability": "nonpayable",
      "type": "function"
    },
    {
      "constant": false,
      "inputs": [
        {
          "name": "spender",
          "type": "address"
        },
        {
          "name": "subtractedValue",
          "type": "uint256"
        }
      ],
      "name": "decreaseAllowance",
      "outputs": [
        {
          "name": "",
          "type": "bool"
        }
      ],
      "payable": false,
      "stateMutability": "nonpayable",
      "type": "function"
    },
    {
      "constant": false,
      "inputs": [
        {
          "name": "recipient",
          "type": "address"
        },
        {
          "name": "amount",
          "type": "uint256"
        }
      ],
      "name": "transfer",
      "outputs": [
        {
          "name": "",
          "type": "bool"
        }
      ],
      "payable": false,
      "stateMutability": "nonpayable",
      "type": "function"
    },
    {
      "constant": true,
      "inputs": [
        {
          "name": "account",
          "type": "address"
        }
      ],
      "name": "isMinter",
      "outputs": [
        {
          "name": "",
          "type": "bool"
        }
      ],
      "payable": false,
      "stateMutability": "view",
      "type": "function"
    },
    {
      "constant": true,
      "inputs": [],
      "name": "canMint",
      "outputs": [
        {
          "name": "",
          "type": "bool"
        }
      ],
      "payable": false,
      "stateMutability": "view",
      "type": "function"
    },
    {
      "constant": true,
      "inputs": [
        {
          "name": "owner",
          "type": "address"
        },
        {
          "name": "spender",
          "type": "address"
        }
      ],
      "name": "allowance",
      "outputs": [
        {
          "name": "",
          "type": "uint256"
        }
      ],
      "payable": false,
      "stateMutability": "view",
      "type": "function"
    },
    {
      "anonymous": false,
      "inputs": [
        {
          "indexed": true,
          "name": "account",
          "type": "address"
        }
      ],
      "name": "MinterAdded",
      "type": "event"
    },
    {
      "anonymous": false,
      "inputs": [
        {
          "indexed": true,
          "name": "account",
          "type": "address"
        }
      ],
      "name": "MinterRemoved",
      "type": "event"
    },
    {
      "anonymous": false,
      "inputs": [
        {
          "indexed": true,
          "name": "from",
          "type": "address"
        },
        {
          "indexed": true,
          "name": "to",
          "type": "address"
        },
        {
          "indexed": false,
          "name": "value",
          "type": "uint256"
        }
      ],
      "name": "Transfer",
      "type": "event"
    },
    {
      "anonymous": false,
      "inputs": [
        {
          "indexed": true,
          "name": "owner",
          "type": "address"
        },
        {
          "indexed": true,
          "name": "spender",
          "type": "address"
        },
        {
          "indexed": false,
          "name": "value",
          "type": "uint256"
        }
      ],
      "name": "Approval",
      "type": "event"
    },
    {
      "constant": false,
      "inputs": [
        {
          "name": "account",
          "type": "address"
        },
        {
          "name": "amount",
          "type": "uint256"
        }
      ],
      "name": "mint",
      "outputs": [
        {
          "name": "",
          "type": "bool"
        }
      ],
      "payable": false,
      "stateMutability": "nonpayable",
      "type": "function"
    },
    {
      "constant": false,
      "inputs": [],
      "name": "stopMinting",
      "outputs": [],
      "payable": false,
      "stateMutability": "nonpayable",
      "type": "function"
    }
  ],
  "bytecode": "0x60806040526004805460ff1916600117905561002e610023610033602090811b901c565b61003760201b60201c565b6101aa565b3390565b61004f81600361008660201b610b9e1790919060201c565b6040516001600160a01b038216907f6ae172837ea30b801fbfcdd4108aa1d5bf8ff775444fd70256b44e6bf3dfc3f690600090a250565b610096828261012760201b60201c565b1561010257604080517f08c379a000000000000000000000000000000000000000000000000000000000815260206004820152601f60248201527f526f6c65733a206163636f756e7420616c72656164792068617320726f6c6500604482015290519081900360640190fd5b6001600160a01b0316600090815260209190915260409020805460ff19166001179055565b60006001600160a01b038216151561018a576040517f08c379a0000000000000000000000000000000000000000000000000000000008152600401808060200182810382526022815260200180610fe06022913960400191505060405180910390fd5b506001600160a01b03166000908152602091909152604090205460ff1690565b610e27806101b96000396000f3fe608060405234801561001057600080fd5b50600436106100ea5760003560e01c8063983b2d561161008c578063a9059cbb11610066578063a9059cbb14610261578063aa271e1a1461028d578063beb9716d146102b3578063dd62ed3e146102bb576100ea565b8063983b2d5614610207578063986502751461022d578063a457c2d714610235576100ea565b806339509351116100c8578063395093511461017f5780633e3e0b12146101ab57806340c10f19146101b557806370a08231146101e1576100ea565b8063095ea7b3146100ef57806318160ddd1461012f57806323b872dd14610149575b600080fd5b61011b6004803603604081101561010557600080fd5b506001600160a01b0381351690602001356102e9565b604080519115158252519081900360200190f35b610137610306565b60408051918252519081900360200190f35b61011b6004803603606081101561015f57600080fd5b506001600160a01b0381358116916020810135909116906040013561030c565b61011b6004803603604081101561019557600080fd5b506001600160a01b038135169060200135610399565b6101b36103ed565b005b61011b600480360360408110156101cb57600080fd5b506001600160a01b038135169060200135610449565b610137600480360360208110156101f757600080fd5b50356001600160a01b03166104fc565b6101b36004803603602081101561021d57600080fd5b50356001600160a01b0316610517565b6101b361056e565b61011b6004803603604081101561024b57600080fd5b506001600160a01b038135169060200135610580565b61011b6004803603604081101561027757600080fd5b506001600160a01b0381351690602001356105ee565b61011b600480360360208110156102a357600080fd5b50356001600160a01b0316610602565b61011b61061b565b610137600480360360408110156102d157600080fd5b506001600160a01b0381358116916020013516610624565b60006102fd6102f661064f565b8484610653565b50600192915050565b60025490565b6000610319848484610749565b61038f8461032561064f565b61038a85604051806060016040528060278152602001610c8f602791396001600160a01b038a1660009081526001602052604081209061036361064f565b6001600160a01b03168152602081019190915260400160002054919063ffffffff6108af16565b610653565b5060019392505050565b60006102fd6103a661064f565b8461038a85600160006103b761064f565b6001600160a01b03908116825260208083019390935260409182016000908120918c16815292529020549063ffffffff61094916565b6103fd6103f861064f565b610602565b151561043d57604051600160e51b62461bcd028152600401808060200182810382526030815260200180610d1c6030913960400191505060405180910390fd5b6004805460ff19169055565b60006104566103f861064f565b151561049657604051600160e51b62461bcd028152600401808060200182810382526030815260200180610d1c6030913960400191505060405180910390fd5b60045460ff1615156104f25760408051600160e51b62461bcd02815260206004820152601260248201527f43616e6e6f74206d696e7420746f6b656e730000000000000000000000000000604482015290519081900360640190fd5b6102fd83836109ad565b6001600160a01b031660009081526020819052604090205490565b6105226103f861064f565b151561056257604051600160e51b62461bcd028152600401808060200182810382526030815260200180610d1c6030913960400191505060405180910390fd5b61056b81610aa2565b50565b61057e61057961064f565b610aea565b565b60006102fd61058d61064f565b8461038a85604051806060016040528060248152602001610db360249139600160006105b761064f565b6001600160a01b03908116825260208083019390935260409182016000908120918d1681529252902054919063ffffffff6108af16565b60006102fd6105fb61064f565b8484610749565b600061061560038363ffffffff610b3216565b92915050565b60045460ff1681565b6001600160a01b03918216600090815260016020908152604080832093909416825291909152205490565b3390565b6001600160a01b038316151561069d57604051600160e51b62461bcd028152600401808060200182810382526023815260200180610cd86023913960400191505060405180910390fd5b6001600160a01b03821615156106e757604051600160e51b62461bcd028152600401808060200182810382526021815260200180610cfb6021913960400191505060405180910390fd5b6001600160a01b03808416600081815260016020908152604080832094871680845294825291829020859055815185815291517f8c5be1e5ebec7d5bd14f71427d1e84f3dd0314c0f7b2291e5b200ac8c7c3b9259281900390910190a3505050565b6001600160a01b038316151561079357604051600160e51b62461bcd028152600401808060200182810382526024815260200180610d8f6024913960400191505060405180910390fd5b6001600160a01b03821615156107dd57604051600160e51b62461bcd028152600401808060200182810382526022815260200180610cb66022913960400191505060405180910390fd5b61082081604051806060016040528060258152602001610dd7602591396001600160a01b038616600090815260208190526040902054919063ffffffff6108af16565b6001600160a01b038085166000908152602081905260408082209390935590841681522054610855908263ffffffff61094916565b6001600160a01b038084166000818152602081815260409182902094909455805185815290519193928716927fddf252ad1be2c89b69c2b068fc378daa952ba7f163c4a11628f55a4df523b3ef92918290030190a3505050565b6000818484111561094157604051600160e51b62461bcd0281526004018080602001828103825283818151815260200191508051906020019080838360005b838110156109065781810151838201526020016108ee565b50505050905090810190601f1680156109335780820380516001836020036101000a031916815260200191505b509250505060405180910390fd5b505050900390565b6000828201838110156109a65760408051600160e51b62461bcd02815260206004820152601b60248201527f536166654d6174683a206164646974696f6e206f766572666c6f770000000000604482015290519081900360640190fd5b9392505050565b6001600160a01b0382161515610a0d5760408051600160e51b62461bcd02815260206004820152601e60248201527f4552433230206d696e7420746f20746865207a65726f20616464726573730000604482015290519081900360640190fd5b600254610a20908263ffffffff61094916565b6002556001600160a01b038216600090815260208190526040902054610a4c908263ffffffff61094916565b6001600160a01b0383166000818152602081815260408083209490945583518581529351929391927fddf252ad1be2c89b69c2b068fc378daa952ba7f163c4a11628f55a4df523b3ef9281900390910190a35050565b610ab360038263ffffffff610b9e16565b6040516001600160a01b038216907f6ae172837ea30b801fbfcdd4108aa1d5bf8ff775444fd70256b44e6bf3dfc3f690600090a250565b610afb60038263ffffffff610c2216565b6040516001600160a01b038216907fe94479a9f7e1952cc78f2d6baab678adc1b772d936c6583def489e524cb6669290600090a250565b60006001600160a01b0382161515610b7e57604051600160e51b62461bcd028152600401808060200182810382526022815260200180610d6d6022913960400191505060405180910390fd5b506001600160a01b03166000908152602091909152604090205460ff1690565b610ba88282610b32565b15610bfd5760408051600160e51b62461bcd02815260206004820152601f60248201527f526f6c65733a206163636f756e7420616c72656164792068617320726f6c6500604482015290519081900360640190fd5b6001600160a01b0316600090815260209190915260409020805460ff19166001179055565b610c2c8282610b32565b1515610c6c57604051600160e51b62461bcd028152600401808060200182810382526021815260200180610d4c6021913960400191505060405180910390fd5b6001600160a01b0316600090815260209190915260409020805460ff1916905556fe4552433230207472616e7366657220616d6f756e74206578636565647320616c6c6f77616e63654552433230207472616e7366657220746f20746865207a65726f2061646472657373455243323020617070726f76652066726f6d20746865207a65726f2061646472657373455243323020617070726f766520746f20746865207a65726f20616464726573734d696e746572526f6c653a2063616c6c657220646f6573206e6f74206861766520746865204d696e74657220726f6c65526f6c65733a206163636f756e7420646f6573206e6f74206861766520726f6c65526f6c65733a206163636f756e7420697320746865207a65726f20616464726573734552433230207472616e736665722066726f6d20746865207a65726f206164647265737345524332302064656372656173656420616c6c6f77616e63652062656c6f77207a65726f4552433230207472616e7366657220616d6f756e7420657863656564732062616c616e6365a165627a7a723058206e62f5064634454a1bca5db9593122ee456264dfd8def68308f088e7d65cdf860029526f6c65733a206163636f756e7420697320746865207a65726f2061646472657373",
  "source": "pragma solidity ^0.5.0;\n\nimport \"./ERC20.sol\";\nimport \"../access/roles/MinterRole.sol\";\n\n/**\n * @dev Extension of {ERC20} that adds a set of accounts with the {MinterRole},\n * which have permission to mint (create) new tokens as they see fit.\n *\n * At construction, the deployer of the contract is the only minter.\n */\ncontract ERC20Mintable is ERC20, MinterRole {\n\n    bool public canMint = true;\n\n    /**\n     * @dev See {ERC20-_mint}.\n     *\n     * Requirements:\n     *\n     * - the caller must have the {MinterRole}.\n     */\n    function mint(address account, uint256 amount) public onlyMinter returns (bool) {\n        require(canMint, \"Cannot mint tokens\");\n        _mint(account, amount);\n        return true;\n    }\n\n    function stopMinting() public onlyMinter {\n        canMint = false;\n    }\n}\n",
  "sourcePath": "/projects/beefledger/investor-engine/contracts/ERC20/ERC20Mintable.sol",
  "compiler": {
    "name": "solc",
    "version": "0.5.5+commit.47a71e8f.Emscripten.clang"
  },
  "schemaVersion": "3.2.3",
  "updatedAt": "2020-07-31T06:30:01.963Z",
  "devdoc": {
    "details": "Extension of {ERC20} that adds a set of accounts with the {MinterRole}, which have permission to mint (create) new tokens as they see fit. * At construction, the deployer of the contract is the only minter.",
    "methods": {
      "allowance(address,address)": {
        "details": "See {IERC20-allowance}."
      },
      "approve(address,uint256)": {
        "details": "See {IERC20-approve}.     * Requirements:     * - `spender` cannot be the zero address."
      },
      "balanceOf(address)": {
        "details": "See {IERC20-balanceOf}."
      },
      "decreaseAllowance(address,uint256)": {
        "details": "Atomically decreases the allowance granted to `spender` by the caller.     * This is an alternative to {approve} that can be used as a mitigation for problems described in {IERC20-approve}.     * Emits an {Approval} event indicating the updated allowance.     * Requirements:     * - `spender` cannot be the zero address. - `spender` must have allowance for the caller of at least `subtractedValue`."
      },
      "increaseAllowance(address,uint256)": {
        "details": "Atomically increases the allowance granted to `spender` by the caller.     * This is an alternative to {approve} that can be used as a mitigation for problems described in {IERC20-approve}.     * Emits an {Approval} event indicating the updated allowance.     * Requirements:     * - `spender` cannot be the zero address."
      },
      "mint(address,uint256)": {
        "details": "See {ERC20-_mint}.     * Requirements:     * - the caller must have the {MinterRole}."
      },
      "totalSupply()": {
        "details": "See {IERC20-totalSupply}."
      },
      "transfer(address,uint256)": {
        "details": "See {IERC20-transfer}.     * Requirements:     * - `recipient` cannot be the zero address. - the caller must have a balance of at least `amount`."
      },
      "transferFrom(address,address,uint256)": {
        "details": "See {IERC20-transferFrom}.     * Emits an {Approval} event indicating the updated allowance. This is not required by the EIP. See the note at the beginning of {ERC20};     * Requirements: - `sender` and `recipient` cannot be the zero address. - `sender` must have a balance of at least `amount`. - the caller must have allowance for `sender`'s tokens of at least `amount`."
      }
    }
  },
  "userdoc": {
    "methods": {}
  }
}